:020000040002F8
:10600000A85F0020C5630200CD630200CF630200D9
:10601000D1630200D3630200D563020000000000D8
:10602000000000000000000000000000D763020034
:10603000D963020000000000DB630200DD630200A0
:1060400069660200DF6302006D6A0200DF6302001E
:10605000DF630200DF63020091650200DF6302007C
:10606000DF6302001D6A0200DF630200DF630200DB
:10607000DF630200DF630200DF630200DF63020010
:10608000DF630200C1660200DF630200DF6302001B
:10609000DF630200DF630200D1660200DF630200FB
:1060A000DF630200DF630200DF630200DF630200E0
:1060B000DF630200DF630200000000000000000058
:1060C000DF630200DF630200DF630200DF630200C0
:1060D000DF630200DF630200DF63020000000000F4
:1060E00000000000000000000000000000000000B0
:1060F00000000000000000000000000000000000A0
:10610000000000000000000000000000000000008F
:10611000000000000000000000000000000000007F
:10612000000000000000000000000000000000006F
:10613000000000000000000000000000000000005F
:10614000000000000000000000000000000000004F
:10615000000000000000000000000000000000003F
:10616000000000000000000000000000000000002F
:10617000000000000000000000000000000000001F
:10618000000000000000000000000000000000000F
:1061900000000000000000000000000000000000FF
:1061A00000000000000000000000000000000000EF
:1061B00000000000000000000000000000000000DF
:1061C00000000000000000000000000000000000CF
:1061D00000000000000000000000000000000000BF
:1061E00000000000000000000000000000000000AF
:1061F000000000000000000000000000000000009F
:10620000DFF810D000F086F90048004761920200E4
:10621000AFF30080A85F002030B450E8012F93B2A4
:10622000C48923448489A34228BF1B1B0489A34239
:1062300002BFBFF32F8F002007E0C3EA020340E84C
:106240000134002CE9D14FF001000A6030BC7047E6
:1062500050E8012FC2EA024240E801210029F7D1AB
:10626000704730B450E8022F1FFAA2F3C488A3424B
:1062700002BFBFF32F8F00200DE0C489234484891F
:10628000A34228BF1B1BC2EA034340E80234002C90
:10629000E8D14FF001000A6030BC704750E8022F8F
:1062A000C2EA224240E802210029F7D170470346A2
:1062B00053E8022FD988B2EB324F4FF0000017BFDE
:1062C00092B241EA014142EA014104E05A68B2EB6C
:1062D000324F08BF012043E80212002AE8D170477C
:1062E00030B4044654E8000F0D4644E80053002B38
:1062F000F8D1156030BC704730B4044654E8000F44
:1063000040EA010544E80053002BF7D1156030BC8A
:10631000704730B4044654E8000F00EA010544E831
:106320000053002BF7D1156030BC704730B40446E1
:1063300054E8000F80EA010544E80053002BF7D130
:10634000156030BC704730B4044654E8000F00EBD1
:10635000010544E80053002BF7D1156030BC7047AD
:1063600030B4044654E8000FA0EB010544E80053A4
:10637000002BF7D1156030BC704770B404464FF065
:10638000000054E8006F0D68AE4207BF44E80023E8
:10639000012044E800630E60002B1CBF0020F0E7E2
:1063A00070BC704730B4044654E8000F88422CBFDC
:1063B000451A054644E80053002BF5D1156030BC62
:1063C000704700000648804706480047FEE7FEE7A2
:1063D000FEE7FEE7FEE7FEE7FEE7FEE7FEE7FEE795
:1063E00001670200016202002DE9F05F054600200E
:1063F00092469B4688460646814640241BE0284636
:1064000041464746224600F020F853465A46C01AF5
:10641000914110D311461846224600F06CF82D1A0F
:1064200067EB01084F4622460120002100F063F887
:1064300017EB00094E41201EA4F10104DFDC4846A1
:1064400031462A464346BDE8F09F202A04DB203A25
:1064500021FA02F00021704721FA02F3D040C2F184
:106460002002914008431946704740EA01039B0708
:1064700003D009E008C9121F08C0042AFAD203E0B9
:1064800011F8013B00F8013B521EF9D27047D2B21D
:1064900001E000F8012B491EFBD270470022F6E70D
:1064A00010B513460A4604461946FFF7F0FF20468A
:1064B00010BD421C10F8011B0029FBD1801A704747
:1064C00010B5002200E0521C835C8C5CA34201D119
:1064D000002BF8D1D8B2E1B2401A10BD30B5044655
:1064E0000020034600E05B1C934203D2E05CCD5CDD
:1064F000401BF8D030BD202A04DB203A00FA02F11C
:10650000002070479140C2F1200320FA03F31943A1
:1065100090407047064C074D06E0E06840F00103EC
:1065200094E8070098471034AC42F6D3FFF76CFEAE
:10653000ACC70200CCC7020070B58C1810F8015B24
:1065400015F0070301D110F8013B2A1106D110F80C
:10655000012B03E010F8016B01F8016B5B1EF9D110
:106560002B0705D40023521E0DD401F8013BFAE796
:1065700010F8013BCB1A921C03E013F8015B01F801
:10658000015B521EF9D5A142D8D3002070BD000096
:106590002DE9F8430025DFF894804FF4807601243C
:1065A0002F460095304603F0DFFD38B1D8F80403DC
:1065B000204203D0304603F0CDFD2543361D640054
:1065C0007F1CB6B2082FEDD34FF4BE74204603F003
:1065D000CBFD48B1204603F0BDFD45F000456A46BD
:1065E0000121002003F094FD15F0FF0F16D00126C5
:1065F00000242E420ED008EB8401D1F81005D1F80A
:106600001015C0F304200A4AC1F3014152F82420B6
:1066100002B190477600641C082CEAD3002D02DA00
:10662000684604F04FFEBDE8F883000000600040BB
:106630005C3D002000487047303A00200048704719
:10664000303A002000487047323A00200048704736
:10665000333A00200148807A70470000E83000207B
:1066600000487047313A002070B54FF480763046CC
:1066700003F023FB114CB50560B1304603F024FB59
:106680000120C5F80803607920B9012060712168F4
:10669000002088474FF48276304603F00EFB002836
:1066A0000AD0304603F010FB0220C5F80803216829
:1066B000BDE870400120084770BD00007431002023
:1066C00002490248091F096800680847CC310020C8
:1066D00003F06ABF10B504460748007840060AD4A4
:1066E00005F014FE802221460448FFF7BEFEBDE8F7
:1066F000104005F063BA10BD582A0020B03A0020BF
:10670000F0B5B5480023021D0178101D01254FF09A
:10671000805406290BD11678360708D10678C6F3BF
:106720000316032E06D0042E04D0052E02D006290F
:1067300007D00EE0B4F82463A84FC6F304263E60E9
:1067400002E01678360704D10678C6F30316032E46
:1067500002D0062904D00FE0A24FA14E7E670EE0C2
:106760001678360708D10678C6F30316032E06D02E
:10677000042E04D0052E02D0062907D00EE0D4F84E
:106780004462994FC6F342363E6002E016783607FF
:1067900004D10678C6F30316032E02D0062906D0CC
:1067A00011E0924E376827F0807737600EE0167858
:1067B000360708D10678C6F30316032E06D0042E3A
:1067C00004D0052E02D006290AD011E04FF08046F1
:1067D000C6F80C31C6F81031834E361F336002E024
:1067E0001678360704D10678C6F30316032E02D0B6
:1067F000062905D00CE07C4F032664373E600AE092
:106800001678360704D10678C6F30316032E02D095
:1068100006290DD014E0764F05263E60744E78367A
:106820003560734E083633603F263F1D3E6002E000
:106830001678360704D10678C6F30316052E02D063
:10684000062957D062E06B4E36686B4F3E60694E4A
:10685000361D36683F1D3E60664E083636683F1D61
:106860003E60644E0C3636683F1D3E60614E103609
:1068700036683F1D3E605F4E143636683F1D3E60F1
:106880005C4E183636685C4F20373E60594E1C36D9
:1068900036683F1D3E60574E203636683F1D3E60CD
:1068A000544E243636683F1D3E60524E28363668B8
:1068B0003F1D3E604F4E2C3636683F1D3E604D4EAC
:1068C000303636684C4F40373E604A4E3436366874
:1068D0003F1D3E60474E383636683F1D3E60454E90
:1068E0003C3636683F1D3E60424E403636683F1D9E
:1068F0003E6002E01678360708D10678C6F3031624
:10690000032E06D0042E04D0052E02D0062907D06F
:1069100019E0D4F85812394A01F04F01116002E031
:10692000117809070FD10078C0F30310032803D0B2
:10693000042801D0052806D131480168C90702D0D2
:106940006FF001010160D4F83001062808D1D4F8B5
:106950003401062804D12B48016841F480610160AC
:1069600022487438016841F470010160BFF34F8F11
:10697000BFF36F8F4FF01021D1F80002002803DB26
:10698000D1F80402002822DA1F4A15601F48046863
:10699000002CFCD01524C1F800420568002DFCD065
:1069A000C1F8044201680029FCD013600168002985
:1069B000FCD0BFF34F8F0D48F0380168144A01F442
:1069C000E06111430160BFF34F8F00BFFDE7124943
:1069D00010480860F0BD0000E00F00F040350140B5
:1069E0000DF0ADBA00C007403C050040FCED00E0F2
:1069F000105600400404001020C50040E40E004082
:106A0000000400403C17004004E5014000E4014060
:106A10000400FA050090D003E03100202DE9F04792
:106A2000104E042700244FF4A0784FF4803900BFA3
:106A300008EB840509FA04F0715961B1D6F8041322
:106A4000014208D02946304603F043FE0648D0E90B
:106A5000002128469047641CE4B2BC42E8D3BDE85C
:106A6000F087000000900040E43D002001480068ED
:106A7000004700007C31002002E008C8121F08C156
:106A8000002AFAD170477047002001E001C1121FAF
:106A9000002AFBD1704700000121202803DA814041
:106AA0000548014003E0402802DA2038814009B15E
:106AB0000120704700207047FC06FFBD10B54268FA
:106AC0000021144B12F1020201EB411413F814409F
:106AD00024B1491CC9B20A29F6D310BD01EB4111FA
:106AE00003EB410101230B7000234B704068C07C15
:106AF00081F83D001068C1F8360090884887907989
:106B000081F83C004FF6FF70C88703498879401C24
:106B1000887110BD48320020382A0020800701D03B
:106B20000020704701207047C3688B4206D811448B
:106B30000069491E814201D801207047002070473A
:106B400070B500230D884C680DE0E618E15C76789E
:106B5000864206D1E018801C491E5060118000203A
:106B600070BD0B445B1C9D42EFD8052070BD022018
:106B700000F0D4BF72B609480068C00700D000BE5C
:106B8000BFF34F8F0548E4380168054A01F4E0611E
:106B900011430160BFF34F8F00BFFDE7F0ED00E050
:106BA0000400FA050EB500210091CDE901106A46F6
:106BB00044F20100FFF7DEFF0EBDC16881600020D6
:106BC000704710B58268C368934203D001F0CAFED3
:106BD000002010BD052010BD29B112B1531E134273
:106BE00003D0092070470E20704701608380002188
:106BF0008160C1600846704710B58268C3689A1A00
:106C000083889A4203D801F0B7FE002010BD04200B
:106C100010BD0000014801F0FCBB000090310020D5
:106C200010B55AB100684FF0FF3401294261C0E944
:106C3000024400D000210161002010BD072010BDDA
:106C400038B512480823A82241680091104900680D
:106C500002F0FFFB002818D10E4A69460E4801F0E9
:106C6000DDFB040011D101210B4801F024FC0123BC
:106C70000A4A1946084801F0A4FB074801F023FC22
:106C80000549012008390870204638BD94C6020025
:106C9000243E0020A5B6020090310020FFFF7F00B7
:106CA000F8B50446002617460D468DF80060684684
:106CB00000F010F9D4E90201C04370EA010005D0E8
:106CC0009DF8000000F02AF90020F8BD02F0F6F966
:106CD00040197141C4E902019DF8000000F01EF95D
:106CE000A761206900B125612146BDE8F840002078
:106CF00005F09AB838B5044600208DF800006846C3
:106D000000F0E8F8D4E90201C04370EA01000DD0B8
:106D10004FF0FF30C4E902009DF8000000F0FEF8DB
:106D20002146BDE83840012005F07EB89DF80000FE
:106D300000F0F4F8002038BD10B5064A01210648DD
:106D4000FFF76EFF04480021BDE81040034A001D14
:106D5000FFF766BFB7C1020080C5020031C3020061
:106D6000074810B50178074A515C19B1001D04F0BD
:106D7000B1F802E00C3003F029FF002010BD000044
:106D8000B43100206831002010B50648FFF715FF28
:106D9000002805D10348BDE810401030FFF70DBFB3
:106DA00010BD0000CC3E002070B50A4E01460A48D6
:106DB000B578FFF706FF04464DB10020B070711C96
:106DC0000122C81D02F0F6FF08B1FFF7EBFE2046D6
:106DD00070BD0000AC310020CC3E0020F0B5244E48
:106DE00089B01F460D00044672603FD0A88829680C
:106DF00082B22048FFF7F0FE002835D1A889A968A3
:106E000082B21C481030FFF7E7FE00282CD1202268
:106E100019496846FFF729FB60690690207C00B19C
:106E200001208DF814008DF81C70607C00B10E20DC
:106E30008DF81500E0680290A0680390206801902A
:106E4000606800900A480D4A6946083002F07EFFEB
:106E5000002809D1B0702068401C05D004490122E7
:106E6000491CC81D02F0A6FF09B0F0BD0720FBE7D2
:106E7000AC310020CC3E0020A8C60200B9BF020001
:106E800010B501461048FFF7B7FE040019D10F48AE
:106E90000F4A0178515C19B1001D04F00DF802E0B1
:106EA0000C3003F083FE60B9084907480839FFF742
:106EB00088FE30B9054901220839044802F08AFFEA
:106EC0000446204610BD0000DC3E0020B431002006
:106ED0006831002030B5EFF3108172B60D4A946826
:106EE000012324B10370002900D162B630BD936044
:106EF0004FF0E023D3F88051074C25401560C3F8CC
:106F00008041D3F8844154605A17C3F88421002289
:106F10000270E8E7EC3E0020FC06FFBD0B498A68E2
:106F2000002A11D000280FD1EFF3108072B60B6841
:106F30004FF0E022C2F800314B68C2F80431002261
:106F40008A60002800D162B670470000EC3E002045
:106F50002DE9F041064608680C46411C4FF0A04759
:106F60004FF0010506D005FA00F1C7F808152068B2
:106F700003F0A9F86068411C02D0002103F091F8E9
:106F80003168A069C1F82405607D227D3168104315
:106F9000C1F86C05D4E900123068C0F81425C0F8B7
:106FA0000C15207D012815D1A068411C02D00021BC
:106FB00003F077F8E068411C05D08540C7F8085514
:106FC000E06803F080F8D4E902123068C0F80825C0
:106FD000C0F81015BDE8F0812DE9F04106460868BB
:106FE0000C46411C4FF0A0474FF0010506D005FAB2
:106FF00000F1C7F80815206803F06FF86068411CBD
:1070000002D0002103F056F83168A069C1F82405C8
:10701000607D217D32680843C2F86C05D4E9001216
:107020003068C0F80C15C0F81425207D012815D152
:10703000A068411C02D0002103F03CF8E068411C2C
:1070400005D08540C7F80855E06803F046F8D4E954
:1070500002123068C0F80825C0F81015BDE8F081AC
:10706000F8B506464FF000001500ADF8000015D049
:1070700009236A46304600F015F80446BDF80000C2
:10708000064458B154B12846FFF713FAA04205D17F
:10709000224631462846FFF721FA08B10020F8BD04
:1070A0000120F8BD70B5E0B1DAB1002402E0045D62
:1070B0002C44A4B2651C8D4206D21688A642F6D88E
:1070C000061976789E42F2D18C420AD2A31C005D4A
:1070D0009BB200B1401E0004000C02D01C188C4270
:1070E00001D9002070BD138070BD2DE9F0418AB038
:1070F00006460020ADF814001346102088468DF88F
:1071000004000D4606AA01A9184664DFA6B398BB81
:107110009DF80400022804D0042807D0102839D193
:107120000DE003208DF81000022003E005208DF80B
:10713000100004208DF81100002404AF0FE0072098
:107140008DF810000620F5E73B5D05AA4146304664
:10715000FFF7A8FF641CE4B20546022C04D2BDF878
:1071600014000028F0D003E0BDF81400002812D06D
:1071700080B2064400240BE00CE030199DF8042096
:1071800006A9FFF7ABF948B19DF80400204484B28A
:10719000AC42F2D300200AB0BDE8F0810120FAE74A
:1071A00070B540B10C4D297839B1044604F014FA99
:1071B00028B1002070BD0E2070BD082070BDE868A9
:1071C000062807D20549226801EB8001401C0A60AD
:1071D000E860EEE7042070BD58310020303D00200B
:1071E00010B558B103684BB142683AB10449002068
:1071F0000124C8600C70C1E9013210BD0E2010BD21
:1072000058310020002827D0002925D0134A1278B1
:10721000002A21D00A460188112911D0302907D02F
:10722000322909D0332917D1011D104603F056BF6A
:10723000011D104603F0BFBF011D104603F0D0BE74
:107240008088B2F8CA12884206D1002082F8C802AB
:107250004FF6FF70A2F8CA027047000058310020B4
:1072600048B1084A137843B1D26832B190F8C822C5
:107270002AB1112070470E2070470820704701F096
:1072800051B800005831002070B505460878144CFC
:1072900048B101281CD0022819D104F0B9FB20689C
:1072A00020F0010012E0488801F10E020146284654
:1072B00000F018F808B1FFF775FC284600F0C3F895
:1072C00008B1FFF76FFC206840F00100206070BD3E
:1072D0008A898868BDE87040114600F0C3B8000094
:1072E000582A002050B141802AB15388C3801388A6
:1072F000838092880281406902F024BA0E20704790
:1073000030B5154B0D4604000FCB85B08DE80F004E
:107310001FD0F5B1A868E0B12146684662DF0028B9
:1073200015D101208DF812004FF65960ADF810000C
:107330004FF6FF7060802868E06068682061002078
:10734000A0802081A868606104A8FFF729FF05B02C
:1073500030BD0E20FBE7000078C6020030B50246C3
:1073600085B008002DD0002A2BD041884FF6FF743D
:10737000A14226D09388994223D11588112D14D08B
:10738000392D1ED1818800291BD053898B4218D1F9
:10739000C168002915D001218DF8001002F11001FB
:1073A0000291D189ADF80C1008E08B4209D1C16877
:1073B000002906D002218DF800104480C268694679
:1073C000904705B030BD30B585B00C460546142158
:1073D0006846FFF763F8207804F10E01002830D1E9
:1073E000A088A0F57E42593A2BD1A079012828D156
:1073F00017E002EBC20031F81030012B02D0022B53
:107400000ED108E001EB40000389ADF80E30408951
:10741000ADF8100004E001EB40000089ADF8120067
:10742000521C207A9042E4D8E868002809D0002055
:107430008DF800006088ADF80200EA6869462846C9
:10744000904705B030BD48B14188A1F57F42FF3A71
:1074500006D0C18821B1012100F0BEBC0E207047CA
:10746000082070472DE9F05F06460078602823D198
:10747000744C7178DFF8C8E1D4E90430E279002770
:107480004FF0020B4FF005094FF0FF084FF0010AD3
:107490000EF1140507290FD2DFE801F00E040E33B8
:1074A0001E0E5B00B078012802D0032811D108E03D
:1074B000012A03D0022A7DD0BDE8F09F84F801B0F4
:1074C000FAE7012A1BD0022AF6D100BF84F8019006
:1074D000F2E784F80180EFE7B0780128F9D1012ABA
:1074E000F4D0022AF5D1A069401CA061E16931B154
:1074F000884229D184F803A0FE206070DCE7677021
:10750000DAE7B1780129D7D156F8031FCEF8181061
:107510007668CEF82460012A00D11846002200F0D7
:10752000BBFD29698142E0790AD1012803D00228F4
:10753000C2D10920E1E7A0780028BFD00420DCE711
:10754000012803D00228B7D10620D6E784F801A08D
:10755000B2E7B178012901D02770BAE756F8031FC6
:10756000F146CEF814108E467168C9F81810D6F896
:1075700008C0C9F824C0564684F800A0012A24D0C7
:10758000022AA6D12E4E3C363268A2F10108B8FB81
:10759000FEF35B1CE361E770914202D132699445CE
:1075A000C7D0002200F078FD696839B13268914295
:1075B00004D800E03CE02A69824226D0A76128680E
:1075C000C6E902706F606781BEE7B846A7701C4FBE
:1075D00028373868814202D13869844513D00022A7
:1075E000184600F059FD696829B13A68914202D8FD
:1075F0002A69824205D0C5F80480A4F80A80667022
:107600005AE761815AE7A67098E78AB262812868D2
:10761000F0609042034604D2B2FBF3F505FB102262
:1076200000E09A1AB1FBF0F0B260A06100B10AB1BB
:10763000072062E708216170401EA0613CE700005E
:10764000F8310020382A002070B588B015460E4663
:10765000040008D020216846FEF720FFF42D04D94D
:10766000072008B070BD0E20FBE76088A0F57F41C1
:10767000FF3918D00D49CDE9021401208DF8000022
:10768000A188ADF81210ADF816500021ADF8141015
:107690008DF8100006968DF81100628869466069C1
:1076A00002F088F8DDE70820DBE70000B176020091
:1076B0000969002900D008477047000070B588B0FC
:1076C00015460E46040008D020216846FEF7E6FE67
:1076D000F42D04D9072008B070BD0E20FBE76088A8
:1076E000A0F57F41FF3918D00D49CDE902140120E2
:1076F0008DF800002189ADF81210ADF81650002168
:10770000ADF814108DF8100006968DF811006288FF
:107710006946606902F04EF8DDE70820DBE700000B
:10772000B17602002DE9F8430446011D00F1080975
:10773000008800261F2873D00FDC424D424FA5F170
:107740002008102813D011284ED0132865D100230B
:10775000A0881A4685217FDF3BE0212864D03B28A2
:107760006BD0562859D1A088132176DF31E02868E4
:1077700040F001002860072000F008FA08B1FFF788
:1077800011FA484601F068FCFF281DD001F046FCC4
:10779000D0B101218170A188C1874078A1884FF0C4
:1077A0000002E0B12948FFF79DFD08B1FFF7FAF9A3
:1077B000052188F80810002240F266617868FFF71A
:1077C0006FFA08B1FFF7EEF91E48A1881430FFF7F1
:1077D00047FD002821D0BDE8F843FFF7E3B91B4877
:1077E000183000F071F8ECE77868FFF783FA286842
:1077F000FF2120F00100286088F80510484601F0BC
:107800002BFC0246FF2808D001F008FC86701046C9
:1078100001F004FC4FF6FF71C187BDE8F883FFE774
:1078200031F8040B75DFD4E70096A08869468FDF36
:107830000028F2D0FFF7B6F9EFE7A088132176DF32
:10784000C7E70000582A002030C50200E0350020BC
:1078500070B5054608780C4638B1012817D00228C3
:107860002CD1BDE8704004F0D3B8618804F10E0259
:10787000284600F029F808B1FFF794F9284600F0EF
:1078800007F900281AD0BDE87040FFF78BB98021B6
:107890000B48FEF703FEA2890948A168FEF7E5FD43
:1078A0000749A089A1F880000648016841F0080155
:1078B000016000F10E010888401C088070BD0000C6
:1078C000DC340020582A002050B141802AB153886E
:1078D000C3801388838092880281406901F032BF9F
:1078E0000E20704730B5144B0D4604000FCB85B009
:1078F0008DE80F001ED0EDB1A868D8B121466846CA
:1079000062DF002814D120788DF812000120ADF834
:1079100010004FF6FF7060802868E06068682061A2
:107920000020A0802081A868606104A8FFF738FCCF
:1079300005B030BD0E20FBE768C6020030B5024638
:1079400085B008002DD0002A2BD041884FF6FF7457
:10795000A14226D09388994223D11588112D14D0A5
:10796000392D1ED1818800291BD053898B4218D113
:10797000C168002915D001218DF8001002F1100115
:107980000291D189ADF80C1008E08B4209D1C16891
:10799000002906D002218DF800104480C268694693
:1079A000904705B030BD30B585B00C460546142172
:1079B0006846FEF773FD207804F10E01002830D1EF
:1079C000A08801282DD1A0792A78904229D10022BF
:1079D00017E002EBC20031F81030022B02D0032B6B
:1079E0000ED105E001EB40000089ADF8120007E080
:1079F00001EB40000389ADF80E304089ADF810006E
:107A0000521C207A9042E4D8E868002809D06088A7
:107A1000ADF8020000208DF80000EA6869462846AB
:107A2000904705B030BD000070B588B015460E46D1
:107A3000040008D020216846FEF730FDF42D04D95B
:107A4000072008B070BD0E20FBE76088A0F57F41DD
:107A5000FF3919D00D49CDE9021401208DF800003D
:107A60002189ADF81210ADF816500021ADF81410B0
:107A700002218DF8101006968DF811006288694673
:107A8000606901F097FEDCE70820DAE7758F0200F5
:107A900010B58AB058B34188A1F57F42FF3A28D08B
:107AA000C18831B3044620216846FEF7F7FC012166
:107AB0008DF8201000208DF821000F4ACDE9022416
:107AC0008DF80010E288ADF812200222ADF81620E1
:107AD000ADF814008DF8101008A88DF8111006905C
:107AE00062886946606901F065FE0AB010BD0E202B
:107AF000FBE70820F9E70000758F0200C0070AD0F5
:107B000005484FF0A0420321007802EB8000C0F846
:107B1000001700F035B87047B0C5020007490B5C8C
:107B20004FF0A041D1F804250120984020EA02033B
:107B3000C1F808351040C1F80C057047B0C5020007
:107B40000249085C012102F0F9BA0000B0C5020048
:107B50000249085C002102F0F1BA0000B0C5020041
:107B60000649095C4FF0A040D0F80405C84010F069
:107B7000010000D0012080F001007047B0C5020074
:107B80000020FFF7DDBF0020FFF7E2BF044A0146F7
:107B900000201279D20702D0084600F025B87047BD
:107BA0000C3100200C4A10B5014600205160C90775
:107BB00011D00120FFF7A2FF084A00210848FFF773
:107BC0002FF8002807D106480121BDE81040054ADA
:107BD000001DFFF725B810BD0C31002035920200C2
:107BE000B4C502006F6B02002DE9F05F6E4C0546D4
:107BF00000266078B34618B184F801B001F010FB9C
:107C00006A4F4FF47A694FF4C87A4FF00108182D83
:107C100069D2DFE805F00C1313384754696E727BA4
:107C2000727BC58484848484B3B6B9BCC5C501F0B5
:107C3000F7FA3868FFF75EF806465CE00020FFF7C9
:107C40008FFF00284FF0000008D0FFF779FF022DCA
:107C500002D14FF4E16008E0484606E0FFF778FF04
:107C6000022D01D1C82000E05046410CC0034FF462
:107C70007A72801841F10001257052000023FEF74E
:107C8000B3FB01462AE00020FFF76AFF00284FF00F
:107C9000000004D0FFF754FF4FF44870E5E7FFF70A
:107CA00057FFDFE70020FFF75BFF00284FF00000E1
:107CB00002D0FFF745FFCFE7FFF74AFFD4E70020E8
:107CC000FFF74EFF00284FF0000002D0FFF738FF0B
:107CD00001E0FFF73DFF257040F6CD4100223868F6
:107CE000FEF7DEFF064646E00020FFF717FF25708F
:107CF00008E0002051E025703DE084F8018001207B
:107D0000FFF70CFF002240F26661E8E784F801808B
:107D10000120FFF703FF00224FF40051DFE77868EE
:107D2000FEF7E8FF0646D5F1110000D02EB1022083
:107D3000FFF706FF84F802B01DE0012816D980B2D3
:107D4000C8214843C117C90341EA5041C0034FF459
:107D50007A72801841F1000152000023FEF744FBC3
:107D6000014600227868FEF79BFF06460220FFF7D7
:107D7000EFFE84F802803046BDE8F09F01F050FA33
:107D8000B9E701F04DFAB4E701F04AFA04E001F076
:107D900047FA0020FFF7DCFE0120FFF7D9FEAAE733
:107DA000FFF7F1FEA7E700000C310020B4C5020088
:107DB00030B5084B02789A71012205E0845C9D7908
:107DC0006C40521C9C71D2B28A42F7D30148801D8C
:107DD00030BD0000E830002030B589B004460D46C3
:107DE00020216846FEF75AFB8DF82050280A8DF8AE
:107DF00021000E49CDE9021401208DF80000E18830
:107E0000ADF812100221ADF816100021ADF81410D3
:107E100008A906918DF810008DF811006288694656
:107E2000606901F0C7FC09B030BD0000B176020006
:107E30002DE9F04305464068297A00278BB000F110
:107E40000209C90713D080690690686803AA05A9CA
:107E5000808BADF814000920FEF772FE30B103AA42
:107E600005A90820FEF76CFE002838D10127287AE2
:107E7000002640071FD5686801AA05A980690690F9
:107E80006868808BADF814000720FEF759FE88B1B2
:107E900001AA05A90520FEF753FE58B101AA05A9BC
:107EA0000320FEF74DFE28B101AA05A90220FEF726
:107EB00047FE00B90126DFF8A080002404EB44113E
:107EC00018F811203AB108EB410007224946363034
:107ED000FEF704FB30B1641CE4B20A2CEED30BB005
:107EE000BDE8F083686804EB441108EB4104C07CF2
:107EF00084F83D000025A4F840504FB12021E01C3B
:107F0000FEF7CCFABDF80C20E01C0499FEF7ADFAA0
:107F1000DEB1BDF80420102A17D804F1230002991D
:107F2000FEF7A3FABDF80400102802D0022803D0FF
:107F300005E00298808901E002980088A086A08E62
:107F4000A0F57E41593904D065704FF6FF70E08787
:107F5000C5E701206070F8E7483200200249084474
:107F600090F93000704700005C3D002030B589B0CA
:107F70000D46044620216846FEF790FA94F8C602A2
:107F8000002300EB8001C1EB801094F8C51204EBD4
:107F9000400041B1491EC9B201EBC10100EB4101F2
:107FA000498A491C00E0C188008961F30F0360F32E
:107FB0001F4303208DF800000548CDE90204054861
:107FC00004932A466946806801F0F4FB09B030BD8D
:107FD000D58202005831002010B5002001F01EF8B3
:107FE0004FF42571FEF75AFA01490020887110BD3F
:107FF000382A002070B5084C050009D010342168DB
:10800000002907D008682060496828468847F6E7B5
:108010000834F4E770BD0000483D0020054A012106
:1080200020B1012805D19170FFF7E4BF5170002005
:10803000FAE77047483D002010B5D0E90234D1E995
:108040000220D11AA04101D3012010BD002010BD93
:1080500010B502460020138806E0546834F810403A
:108060008C4203D0401C80B28342F6D810BD0EB5BE
:1080700050F8373F00938388ADF8043083798DF84A
:10808000063010F8360C8DF807000098086001984B
:10809000002248608A600EBDF0B54FF0FF3622B175
:1080A0001268D24300230A4D0DE03246FAE7C45C61
:1080B00062400824D70700D037462F4087EA520293
:1080C000641EF7D15B1C8B42F1D3D043F0BD00009E
:1080D0002083B8ED1FB500220092ADF80010019288
:1080E000ADF802100292039202AA694690DF04B032
:1080F00010BD000010B5044601460548FFF753FCCB
:1081000021460348BDE810401838FFF75CB900006D
:10811000F83500202DE9F04389B00F460546914619
:1081200020216846FEF7BAF995F8C60295F8C542CF
:1081300000EB8001C1EB801005EB400604EBC400AE
:1081400006EB40013279601C0A31904232D108AB13
:108150000022284601F032F878B310E0401EA04219
:1081600001D1002004E004EBC40006EB40001C3009
:108170008046024608AB284601F020F890B1002066
:10818000387004208DF8000008984A46CDE9035065
:108190000C4802900C486946806801F00BFB09B05E
:1081A000BDE8F08395F8C5024146401C641C85F883
:1081B000C502E4B23079A042D0D801203870002046
:1081C000EDE70000D582020058310020FEF7EABC3E
:1081D0000649087A10B1401E0872704703482030E3
:1081E000016841F01001016070470000382A00204A
:1081F00030B59FB00C4605467C216846FEF74EF927
:10820000ADF8024003208DF8000004480195416854
:10821000002901D0684688471FB030BD5831002082
:108220002DE9F041044690F8C602884600EB800133
:10823000C1EB801004EB40061746304603F0CCF942
:10824000050042D0D4F8CC0206283ED204EBC01080
:108250007622A0F8D272D4F8CC02314604EBC010DA
:1082600000F53570FEF701F90026B8F1000F06D0D1
:10827000D4F8CC0204EBC01080F8D06206E0D4F849
:10828000CC12022004EBC11181F8D002D4F8CC0248
:1082900004EBC010C0F84C53D4F8CC020C4D401C79
:1082A000C4F8CC02E96888420FD12746002407E0D1
:1082B00007EBC41101F53470D1F84C138847641CE6
:1082C000E8688442F4D3C7F8CC62BDE8F0810000CE
:1082D00058310020F0B515469FB0002281F8C82221
:1082E000074691F8C6020C4600EB8002C2EB8010F4
:1082F00001EB400003F070F9060009D07C22084928
:108300006846FEF7B2F8ADF8025068460197B047EC
:108310001FB029462046BDE8F040FFF769BF0000C6
:10832000BCC50200F0B50D4689B004464FF4BA61F1
:10833000FEF7B4F820216846FEF7B0F8154E29463E
:10834000B06801F0FFF9002821D1A4F8CA52C4F89E
:10835000CC0284F8C70284F8C60284F8C5020E482D
:1083600001272A460068206002208DF80000ADF841
:1083700010702068CDF812000848CDE90204694663
:10838000B06801F017FA002801D184F8C87209B06A
:10839000F0BD000058310020303D0020D5820200A1
:1083A0004FF480328A400168C1F848230068C0F861
:1083B000082370474FF4A07202EB810189B200F0EC
:1083C0004EB92DE9F04105460E464FF4A07000EB82
:1083D000860081B228684FF48034B440984622F079
:1083E0007F47C0F808432868C0F84843286801F070
:1083F000DDFF286800EB8600C0F840752868C0F8EB
:108400004443B8F1000F02D02868C0F80443BDE827
:10841000F0810068D0F804057047000010B543797A
:108420001C4C44F823204279231D03EBC20212792D
:108430000AB1082010BD02680C88C2F8084590F9FE
:1084400004208978002A4FEA411104DB02F1E0227E
:1084500082F8001405E002F00F0202F1E02282F837
:10846000141D90F904100122002909DB01F01F04FA
:1084700002FA04F44909890001F1E021C1F8004140
:10848000417903EBC1010A71417943F831000020C1
:1084900010BD0000C831002090F90400002809DB5D
:1084A00000F01F02012191404009800000F1E0200E
:1084B000C0F8001270470A46022100F0C7B84FF416
:1084C000827100F0CCB800680121016070472DE98D
:1084D000F05F07460C464FF4A07000EB84001FFAD3
:1084E00080FA38684FF48036A6409B4622F07F45DC
:1084F000C0F848633868C0F808633868D0F8048565
:1085000000EB8402D2F84095C2F8408551463868A5
:1085100001F04CFFA9EB080020F07F40012806D1B4
:10852000102002F03FF95146386801F03FFF3868EB
:10853000D0F80485C0F84463A5EB080121F07F4121
:108540003868012900EB840010D0C0F84055386825
:10855000D0F804156FF07F4C6A1A521E22F07F4249
:10856000ACEB0B03934217D362B118E06D1CC0F85B
:108570004055102002F016F93868D0F8040540453F
:108580000AD10CE000EB84006D1CC0F8405538683F
:10859000D0F80405884202D00D20BDE8F09F0122EA
:1085A0003146384600F052F80020F6E72DE9F8434E
:1085B000104D0F4680461E4691466946286800F0D9
:1085C0005BFF040014D01C21FDF768FF012020711F
:1085D000C4F81490380BC4F80080C4E902606946FE
:1085E000286800F06AFF02F0A5FF0020BDE8F883CC
:1085F0000420FBE7D8C6020030B50446006887B007
:108600000D46806800281FD018216846FDF746FFF8
:108610000195A0680590207910B1012810D107E0DC
:1086200001208DF8000020690290E068039005E0C9
:1086300002208DF80000E068000302906069049059
:10864000206881686846884707B030BD0368C3F872
:108650004413002A02D00068C0F80413704710B514
:10866000006842581AB101F0A1FE012010BD00209F
:1086700010BD000070B5A0B0FDF7E4FF06788021C2
:108680006846FDF70BFFFDF7D9FF0078344C8DF8F5
:1086900000008DF80260A4F12005C22E22D005DC76
:1086A0006846C02E47D0C12E4DD105E00120C32E13
:1086B00032D0CB2E47D137E06A218DF8011000244B
:1086C0000546204600F0AAFC017831B104EB4401D4
:1086D00005EB8101C91CFFF7CAFC641CE4B20A2C3B
:1086E000EFD330E0FDF7B2FF0168A9628088A8856A
:1086F000CDF80310ADF80700207800F001008DF8E8
:10870000090008208DF801001548083000F0BDFC74
:10871000FF2818D0687116E08DF80100FF206871FD
:10872000206840F4807004E08DF80100206840F477
:108730008060206007E00B4A0421C01CFDF7A7FE03
:1087400005208DF801007F216846FFF731FB007896
:108750008DF87F006846FDF7BDFF20B070BD0000BA
:10876000582A0020C251B10C2DE9F047ACB0FDF7FA
:1087700069FF90F8008080216846FDF78FFEFDF7C5
:108780005DFF00788DF80000744D0127744E8DF860
:1087900002804FF000094FF0090AB8F1DF0F7CD0DA
:1087A0000CDC6E4CB8F1D10F04F1280412D0B8F1F2
:1087B000D20F26D0B8F1DC0F6ED153E0674C3C34B9
:1087C000B8F1F10F53D0B8F1F20F68D0B8F1FC0F47
:1087D000F2D1AAE0614814212830FDF75FFEFDF7D1
:1087E00035FF0068A862C4F8109000F02DFB5B49CB
:1087F000306134310C46002000F0EAFA21460220B4
:1088000046E0FDF72DFF0078401EC7B2FDF71EFFC2
:108810000146A068326910443A46FDF726FEA0687A
:1088200031694E4A084438323946FFF735FC206139
:10883000A0683844A060E1683944E16022688A4257
:1088400001D9FF280ED90846A168444AB0FBF1F0CF
:10885000401E209020AB30320020316900F046FBF2
:10886000C4F80890686BCDF80300A86B61E03B4842
:1088700014213C30FDF712FEFDF7E8FE0068E863C6
:10888000C4F8109000F0E0FA3449706148310120DA
:1088900000F09EFA8DF801704FE05BE0FFE7FDF716
:1088A000DFFE0078401EC7B2FDF7D0FE0146A0688B
:1088B000726910443A46FDF7D8FDA0687169274AED
:1088C00008444C323946FFF7E7FB2061A068384482
:1088D000A060E1683944E16022688A4201D9FF283A
:1088E00023D9C81B000A1D4A2A902AAB4432012012
:1088F000716900F0FBFAC4F80890E16820688842CA
:1089000013D8282015492B901422283120A8FDF7D0
:10891000ACFD124914223C3125A8FDF7A6FD002329
:108920002BAA20A9022000F0E1FAA86CCDF80300E0
:10893000E86CCDF807008DF801A07F216846FFF7AD
:1089400037FA00788DF87F006846FDF7C3FE2CB03B
:10895000BDE8F08703F048F9F9E70000F83100209E
:10896000382A0020826883881A4003689A5C0A705B
:108970008168491C81607047C26883881A40036817
:108980009954C168491CC1607047000070B54568C2
:1089900000240C4E15F1020504EB441016F81010DB
:1089A00039B106EB4000072229463630FDF796FD27
:1089B00028B1641CE4B20A2CEED3002070BD012063
:1089C00070BD0000483200202DE9F04FA1B0F84DF5
:1089D000002020902868010504D520F4006028605C
:1089E00003F084F82868F24C41074FF0FF07A4F128
:1089F000200403D520F0040028606771810604D5A7
:108A000020F02000286003F0F1FB2878400601D513
:108A100003F050FA2868010723D520F008002860E9
:108A200080216846FDF73AFD7F2201216846FDF767
:108A30002EFDE04890F864008DF80100DD481C38F8
:108A40000146B0F880200DF10200FDF70EFD7F21F8
:108A50006846FFF7ADF900788DF87F006846FDF7AE
:108A600039FE2868810505D520F400702860D048BB
:108A7000001D4CDF2868010620D520F0800028600A
:108A800041051BD520F4806028604FF47A74CA4DEC
:108A9000A601691C30468847641EFAD1C749B12037
:108AA0000860BFF34F8FC6480168C64A01F4E06111
:108AB00011430160BFF34F8F00BFFDE7C10721D015
:108AC0006179FF293CD0C10674D520F010002860E0
:108AD00000F0ACFADFF8F0A20646AAF13C054FF030
:108AE000010B4FF00208A9467078002872D0607818
:108AF000062870D03EDC06286ED2DFE800F04A5C23
:108B0000759B9FA56079FF280ED00A280CD200F033
:108B100085FA48B1017839B1AC4901F1500291F8B8
:108B200058305A3136308CDF2868C10642D520F0E3
:108B30001000286021B0E520BDE8F04F03F080B8B8
:108B400000F074FA002835D00178002932D0C08FA7
:108B5000132176DF082802D008B1FEF723F8286831
:108B6000C10527D520F48070286021B0BDE8F04F02
:108B7000FFF732BAA02879D006DC072877D008287A
:108B800058D0092828D159E0FE2871D0FF28F9D102
:108B9000E4E08D4900202071143984F807B0886022
:108BA000C86000F06FF920610620287085F801B0D8
:108BB0004246C0E0F0E00420207283481438016887
:108BC0001438406885F800B0091A85F801B0C9F872
:108BD000021060E0E3E04CE0D5E07B493C3901F570
:108BE0007A70FEF731FDA8E0774861891438006893
:108BF000401A142800D3142000902069009A0144E0
:108C000071483C38FDF731FC6189009808446E4991
:108C100080B2143960810968814203D884F802B0B7
:108C200003226270DAF80020114464225043B0FB42
:108C3000F1F06CE0032028705A467CE084F808B01C
:108C400004205A46287076E084F807800020CAF88D
:108C50000800CAF80C0000F0F4F8606106202870E3
:108C600085F80180A4F80C804246B6E75AE014E08B
:108C700065E0042020726189DAF80000411A524848
:108C800028380068814200D2084685F800B085F88F
:108C90000180C9F8020006224DE06289DAF800007E
:108CA0005146801A142800D314200090C968DAF8BD
:108CB0000800091A0098814200D200916069811869
:108CC0004148009A3C38FDF7D0FB61890098084480
:108CD00081B26181DAF80830009A50461A44CAF825
:108CE0000820DAF800308B4203D9D0F80CC0624576
:108CF00004D300220820CAF80820607032481438D3
:108D00000068C218084464214843B0FBF2F02071A7
:108D100000982D4982B23C39A28101F57A70FEF7A4
:108D2000CDFC0AE00A2085F80080ADF8000081B291
:108D3000A9F801100322A2814FE7209023E01E48EA
:108D400010384068FDF7D6FF642020710020607065
:108D50001D4814212838FDF7A1FB14E016481038EF
:108D60004068FDF7C7FF6771FDF768FC7F220121AE
:108D7000FDF78DFBFDF766FC70220121FDF787FBF7
:108D8000E52002F05DFF209813283FF4ADAE0849BE
:108D90000E314888401C488021B0BDE8F08F05485E
:108DA00066300146B0F880209A30FEF73DFEC4E7F9
:108DB000582A0020F834002040C502001C0500405D
:108DC0000CED00E00400FA053432002024360020C7
:108DD00070B5184C054669B1086800032060164854
:108DE0004FF48071FDF75AFB35B1012D0BD0022DE8
:108DF00014D118E00020F1E72168002301220F4878
:108E000001F5802108E00D484FF482210069A0F5AA
:108E10008220020B00230AE000F0ECFFBDE8704066
:108E2000064803F051BB002301224FF47C31034874
:108E3000F2E7000004310020303B0020E431002044
:108E400070474FF48220704700487047303B002045
:108E500010B50A4900220A4800F0F3FF08B1FDF7F7
:108E6000A1FE40F6F8700068401C02D14FF01020BF
:108E700040694FF080500169406910BDE8C60200AA
:108E8000E43100204FF480207047000010B5154CED
:108E900003B11B68236012684FF4807362609A42CA
:108EA00000D9636020B1012809D0022818D111E04F
:108EB0000A46D4E900130C4801F5802105E00A4672
:108EC000D4E90013084801F5822100F0EBFF38B126
:108ED000002010BD0A464FF47C3103486368F4E774
:108EE000012010BD04310020E4310020F8B51E4CF3
:108EF00006460025BBB118680002206012681B48B6
:108F00006260FDF7B2FA6368980703D003F00300CC
:108F10001B1A1B1D4EB1012E0ED0022E1BD0144861
:108F200003F0D2FA1DE02560E8E7009521680F4ABA
:108F30000F4801F5802105E0009521680B4A0C4897
:108F400001F5822101F044F80446094803F0BCFA17
:108F50003CB10020F8BD054A4FF47C31044800952F
:108F6000F0E70120F8BD000004310020303C002073
:108F7000E43100200969002900D008477047704794
:108F800010B50949094800F011FB08B1FDF70AFEC8
:108F9000F721064800F0FEFA002803D0BDE8104093
:108FA000FDF700BE10BD00007F8F020010360020CC
:108FB00070B50D4601F11004C98A102901D90920A4
:108FC00070BD01F0D9F8686030B1E2880023A16873
:108FD00001F025F9002070BD042070BD70B50D466C
:108FE00001F1100489690988102901D9092070BD8F
:108FF000891C01F0C1F8686068B100230222A168F1
:1090000001F00DF9A068E16802230288686801F0A8
:1090100006F9002070BD042070BD0000024900EB7D
:10902000401001EB40007047483200200949002001
:1090300000EB401201EB4202927822B100EB4010AB
:1090400001EB40007047401CC0B20A28F0D300205A
:10905000704700004832002070B5054600242046C5
:10906000FFF7DCFF007840B12046FFF7D7FF06226C
:10907000691C3730FDF732FA28B1641CE4B20A2CBF
:10908000EDD3FF2070BD204670BD70B505460024AD
:109090002046FFF7C3FF007840B12046FFF7BEFF30
:1090A000062229463730FDF719FA28B1641CE4B2CC
:1090B0000A2CEDD3FF2070BD204670BD10B50B48C3
:1090C000FFF7A7F9094A083AD2E90434C018D2E9EF
:1090D000063244F10001C31A71EB020204D24FF0D0
:1090E0008072801841F1000110BD00009031002015
:1090F00010B50A4941600A4800F0EAF958B901F090
:1091000065FA07491C238C22087404488C39001F17
:10911000006800F09EF9002010BD0000DCC60200CF
:10912000943F002070B50D46044600684FF48871E6
:1091300001F0EBFA4FF49071206801F0E6FA4FF479
:109140009271206801F0E1FA4FF4A271206801F0F9
:10915000DCFA4FF4AC71206801F0D7FA20681249AC
:10916000C0F804132068690740F30730090E00288F
:1091700004DB00F1E02080F8001405E000F00F00AF
:1091800000F1E02080F8141D206840F3073000282B
:1091900009DB00F01F02012191404009800000F12D
:1091A000E020C0F8001170BD100342000248007AB0
:1091B000002800D001207047943F002010B5098995
:1091C0002AB1D088491C814218D1002010BD90F8E6
:1091D000C62202EB8204C4EB821200EB4202128927
:1091E0009142F2D0491C198090F8C61201EB81021D
:1091F000C2EB811100EB4100008902E01980D088A8
:10920000401E5880012010BD90F85A00C0F3C100E4
:10921000012803D0032801D00020704701207047A7
:109220000348807810B10020FEF78ABCFEF7A8BC86
:109230000C31002003480179C90702D00078FEF7FD
:10924000D3BC70470C310020F721018017214180E9
:10925000002101714171FB2181711B21C171704796
:109260008EB0FDF7EDFC08B1FDF79CFC4A4A0121E8
:109270004A48FDF7D5FC08B1FDF794FC4748484A39
:109280000121001DFDF7CCFC08B1FDF78BFC00218E
:109290000120FEF787FC08B1FDF784FC424C4148F1
:1092A000CDE90B0400250BA8FDF79AFF08B1FDF7E7
:1092B00079FC01F03FF908B1FDF774FC0BA901201E
:1092C0000B9501F083F808B1FDF76CFC0BA801F0D9
:1092D000CDF808B1FDF766FCFFF752FE33480B905E
:1092E0003348CDE90C040BA93248FEF7FBFA08B16C
:1092F000FDF758FC30480B903048CDE90C042D495F
:109300000120183908702B480BA91838FDF7F8FF11
:1093100008B1FDF747FC02F035FB02F0A9FF1F483A
:1093200000224FF480410068FDF7BAFC08B1FDF758
:1093300039FCFFF78DFD04220021022077DF08B100
:10934000FDF730FC28200A9000230AAA6946022073
:10935000FFF79CFD142269461948FDF786F8184866
:109360001422143005A9FDF780F81548806818B953
:1093700013481430806840B114211148FDF78EF86D
:109380000F4814211430FDF789F802F041FB00BFAB
:10939000FFF71AFBFCE7000055BB020030C50200D6
:1093A000D1810200F58002003C300020517802009B
:1093B000DDAF0200F835002089720200CD81020085
:1093C000203200202DE9F047C5881E1DB6FBF5F7B9
:1093D0008946B6FBF5F1044605FB176C4079166823
:1093E0006843DDF820A0F718001F874200D9C61A8D
:1093F000166001E02468491E0029FBD1A5EB0C078B
:109400008846B74216D818E004EB0C00001D09EBA3
:109410000803BAF1000F3A4602D00146184600E0B0
:109420001946FDF722F82468F61B4FF0000CB844EB
:10943000B54201D9374600E02F46002EE4D1BDE801
:10944000F08710B5FCF733FF08B1002010BD1120E4
:1094500010BD10B531B1B2FBF3F403FB14241CB101
:10946000092010BD0E2010BD016000214160816007
:109470008281C381084610BD70B50C460546FCF7D5
:10948000CBFE002802D021882868084470BD10B5A2
:109490000A8849888A4203D1FCF700FF012010BDE9
:1094A000002010BD70B50C460546FCF7DAFE00281A
:1094B00002D061882868084470BD10B50A884988C0
:1094C0008A4203D1FCF7C4FE012010BD002010BD6C
:1094D0000121AFF3008008B56A46FCF70DFF08BD17
:1094E00038B5044600258DF800506846FDF7F2FCBB
:1094F00021686268086890420ED9401E08600178B1
:10950000238AE26801FB0325227A2168101AC0B27F
:109510000A79824200D208719DF80000FDF7FEFC36
:10952000284638BD38B5054600208DF800000C46A9
:109530006846FDF7CFFCE868298A201AB0FBF1F1F4
:109540002A681068431C136001709DF80000FDF745
:10955000E5FC38BD10B530B1017A42680368891A5C
:10956000C9B21A6006E00E2010BD03681A68541CC8
:109570001C601170491EC9B2F7D200680021017148
:10958000084610BDC20800F007030120895C98401E
:109590000840704728B1A1F11702E12A03D3072040
:1095A00070470E20704741800020704710B560B1B1
:1095B0000161F72120F8021B20F8021BFB2100F8B3
:1095C000021BFFF741FE002010BD0E2010BD000061
:1095D0002DE9F047B0F804A08EB00C465FEA0A0906
:1095E00057D10188564E0127002524297BD006DC5F
:1095F000102909D0112929D0232926D199E03A2907
:1096000028D0552921D147E021792173C07BA61D9F
:10961000012802D0022804D101E0208800E06088FF
:10962000308031887088814208D94846A5DF10B162
:10963000112802D002E0777100E03771B179F0793A
:1096400081426BD94846FEF745FD67E0A01DFFF754
:10965000FBFD63E02246408934F8061F814200D8B2
:1096600008466080172800D217206080106970B10A
:10967000607960B1D6E90001CDE90001ADF8029052
:109680006088ADF804001369694610469847657113
:1096900025710EB0BDE8F087C08804F106081728D0
:1096A00000D21720B8F80010814200D80846A8F868
:1096B000020088F804502846B8F80010B5DF98F882
:1096C000050058BB206948B3D6E90201CDE9000185
:1096D000ADF80290B8F80200ADF8040020466946E3
:1096E00022691AE0FFE7011D2C226846FCF7BDFE47
:1096F000BDF80000BDF8042004EBC0014A732269E4
:1097000062B1D6E90423CDE90B23ADF82E00487BE6
:109710008DF83000226920460BA99047A07A0028D6
:10972000B7D0E1885046A5DF0028B2D1A572E77214
:10973000AFE7017A207B884284D2014682E70000AD
:1097400038C602002DE9F0410F4604004FF0000535
:109750000DD001F00DFF39462046FEF779FC218837
:1097600081421ED1002005464FF6FF7609E00E200B
:10977000BDE8F081626832F81020B24206D1401C88
:1097800080B28142F6D8206900F03FFD0020218898
:109790000BE0626832F81020B24204D1616821F80F
:1097A00010702846E4E7401C80B28142F1D80420C2
:1097B000DEE700002DE9F04791460D4604004FF02A
:1097C000000742D0EDB301F0D3FE49462046FEF734
:1097D0003FFC2978062902D22188814202D1072044
:1097E000BDE8F087A16800EB800601EB860000F081
:1097F00065FD30B14946284601F019FF08B13846E9
:10980000EEE72978DFF8488058F821202AB120694E
:10981000B8B1294690470028E2D1A068294600EB5C
:10982000860000F06AFD070006D0297858F821006C
:1098300010B1686800F0D0FCA068494600EB8600D3
:1098400000E002E001F0B6FDD9E70E20C8E7000015
:1098500050C60200F8B505000C4620D0002C1ED0E2
:109860002888112806D0A0F130011F2902D95038CC
:109870001F2814D8AE8820463146FEF7E9FBADF824
:109880000000218881420AD02988112908D0A168C6
:1098900000EB800001EB8000314601F08BFDF8BD4C
:1098A00062684FF6FF7122F810106946E06800F018
:1098B00024FDF8BD2DE9F041044600F15A0700F1FE
:1098C000500590F8586090F84E0086B001F10208FB
:1098D000002814D08BDF14216846FCF7DFFD3346E7
:1098E0002A46394640468CDF05218DF8001001904C
:1098F000002804D0A16E002901D06846884706B030
:10990000BDE8F0814FF4C871A0F85610062120F888
:10991000501F1821418000218180704710F85A1F84
:10992000A02242805022828021F018010022C280B1
:1099300041F0040101700121417070472DE9F041AF
:1099400040B13AB10025042631B103292ED00720B9
:10995000BDE8F0810E20FBE7074600F14004904689
:109960001046FCF7A6FD10F0FF0001D0202801D919
:109970000C20EDE7207802281ED2002607EB4610C7
:109980004146FCF79DFDF8B1761CF6B2022EF5D3E8
:109990004046FCF78EFD02462078414607EB401317
:1099A000401C20701846FCF760FD0DE000F14204F9
:1099B00010F84A3F022B01D33046C9E71688002130
:1099C00034F82170B74201D12846C1E7491CC9B219
:1099D0000229F5D304EB83015B1C03701068086057
:1099E000F2E730B141220021115480F84B100846B3
:1099F00070470E20704730B515460B46040002D064
:109A0000980702D009E00E2030BD580705D4D806CB
:109A100003D4180701D4072030BD2046FFF7E1FF2B
:109A2000D9074FF0010001D084F84100590701D552
:109A300084F84B0084F84C50002030BD70B50D46C2
:109A4000040012D04E21A266FCF728FDEDB1287962
:109A500084F84E00287B84F85800296839B10E221A
:109A600004F15A00FCF701FD04E00E2070BD204611
:109A7000FFF754FFA86820B1016821654068606560
:109A80000CE02046FFF73EFF08E02046FFF746FFC8
:109A90002046FFF737FF002084F84E0004F16C00E9
:109AA00044F88C0F1F20A080002070BD2DE9F04FDE
:109AB00093B00E4604464FF000084546142106A810
:109AC000FCF7ECFC04F15A000A902046FFF79CFBDF
:109AD000010004F18C00109010D002208DF81800C5
:109AE0000796A16E06A88847002010998ADF3146A4
:109AF0002046FFF7DFFE13B0BDE8F08F94F84C006E
:109B0000049094F8410094F84BB04FF0000AE0B193
:109B100094F84090B08B4FF0010800270C9012E0B1
:109B200004EB4712B0690C99FDF79AFA48B19DF819
:109B300020004FF0010A40F001008DF820006D1C5C
:109B400003E07F1CFFB24F45EAD3BBF1000F36D0D4
:109B500004F142000F9094F84C00119094F84AB030
:109B60004FF00009B08B08F101084F460E9012E04B
:109B70000F980E9900EB8702B069FDF7B6FA30B185
:109B800009F1010000F0FF09119858B101E01198A6
:109B900028B97F1CFFB25F45EAD3119810B1D945AF
:109BA00003D00CE0B9F1000F09D09DF820006D1C26
:109BB00040F00400EDB28DF820004FF0010A049847
:109BC000079608B1454503D004993AEA010007D049
:109BD00000208DF8180031462046FFF76BFE02E0AA
:109BE00003208DF81800A16E09B106A8884700204F
:109BF00010998ADF7FE770B50D46014601F1080232
:109C00000C1D284609885A3586B010291ED01B29FC
:109C100007D01D292DD106B01146BDE87040FFF7D1
:109C200045BF064614216846241DFCF737FC207802
:109C300001281ED1B06E00281BD004208DF8000032
:109C4000049520788DF80400B16E10E006461421CA
:109C50006846FCF723FC06208DF80000201D0190CB
:109C60002088ADF808000495B16E002901D068463F
:109C7000884706B070BD10B586B004001BD0142113
:109C80006846FCF70BFC8BDF2046FFF7BDFA30B1CE
:109C9000A16E21B101208DF800006846884704F1CB
:109CA0008C0104F15A008ADF082801D0002800D175
:109CB000002006B010BD0E20FBE700F180400068D8
:109CC000002800D00120704708B500F18040002135
:109CD00001600068009008BD70B50D4C012520782A
:109CE00008B185260EE00020A06060602061E06081
:109CF000084800F02FFD064600F068FC08B900F0A7
:109D000013FD257000F008FD00B1A570304670BD50
:109D1000483D00201D80020038B500258DF8005018
:109D20006846FDF7D7F8084CE068401EE060E06840
:109D300028B900F0F1FC10B900F01CFDA5709DF8E9
:109D40000000FDF7EBF838BD483D0020F0B50546B2
:109D50000478154889B0164640F82420124A08694C
:109D6000121DA2F1080742F82400487F385520222E
:109D70006846FCF77AFB04942878385C48B10EB149
:109D80000A4A00E000226946281D00F087FF09B05A
:109D9000F0BD0EB1064A00E00022694605F10C0054
:109DA00000F0D0FDF3E700006C31002065C3020035
:109DB0005DC0020030B40378054CE35C1BB130BCDD
:109DC000001D00F0A1BF30BC0C3000F025BE00002B
:109DD0006831002030B40378054CE35C1BB130BC23
:109DE000001D01F013B830BC0C3000F08BBE000039
:109DF000683100202DE9F0411F46164604000D464B
:109E000016D02068B8B1C6B160680268501E2842FA
:109E100015D172432046FCF787FE80B120683B468F
:109E20003246D0F810C029462046BDE8F0416047D0
:109E30000E20BDE8F0810820FBE70920F9E710209B
:109E4000F7E720B119B101600B68114618470E20E1
:109E5000704700002DE9F04128B1016819B1C969C6
:109E6000BDE8F04108470D4D0D480024461B14275E
:109E70000DE000BF04EB840005EB8000016829B110
:109E8000C969884710B10120BDE8F081641CB6FBA8
:109E9000F7F0A042EED80020F6E70000E431002001
:109EA000F83100202DE9F0411D46164604000F460A
:109EB00017D0B6B12068B8B1C5B10846FCF72EFE80
:109EC000B0B12A4639462046FCF72EFE80B1206804
:109ED0002B463246D0F808C039462046BDE8F0414E
:109EE00060470E20BDE8F0810820FBE70920F9E774
:109EF0001020F7E7044801214174007A08B10020DE
:109F00007047012070470000943F0020012801D0D5
:109F1000032808D10449002201284A7400D00020F7
:109F2000087401F0B7BA7047943F002070B502463C
:109F3000022801D0032A45D1234C207A002841D0A1
:109F4000012833D0022831D120480023022A00689A
:109F500002D0032A2AD11BE0E360017911B1012963
:109F600024D10DE0D0E90565711B4FF48056B14254
:109F700000D33146294481614569A9420ED015E0DC
:109F80000169491C0161426991420FD1237213E0BA
:109F9000E168491CE160082908D9E3602372022ABC
:109FA0000AD00D21FEF728FB01F0FAF9607C28B1F8
:109FB000BDE8704000F010BB0021F3E7BDE8704041
:109FC00001F068BA70BD0000943F0020D431002039
:109FD0002DE9F8431D46089F1646884604000DD01B
:109FE00066B1206860B135B160684068B5FBF0F1DA
:109FF00000FB115030B10920BDE8F8830E20FBE7CB
:10A000000820F9E74046FCF789FD90B13046FCF79F
:10A0100085FD70B12A4641462046FCF785FD40B1DA
:10A02000009720682B463246C76841462046B8470D
:10A03000E2E71020E0E770B541EA4201DDE90456AD
:10A040004FF0A04441EA830141EA052104EB80007E
:10A0500041EA0641C0F8001770BD70B541EA4201FF
:10A06000DDE904564FF0A04441EA830141EA0521AD
:10A0700004EB800041EA0641C0F8001770BD1CB532
:10A08000002100910B4601220191FFF7D4FF1CBD76
:10A090001CB5002100910B4601220191FFF7DDFF65
:10A0A0001CBD1CB500220B46009211460192FFF721
:10A0B000C2FF1CBD1CB500220B4600921146019246
:10A0C000FFF7CBFF1CBD1CB5002100910B46012200
:10A0D00001911146FFF7AFFF1CBD1CB50021009197
:10A0E0000B46012201911146FFF7B7FF1CBD4FF04F
:10A0F000A04202EB8000D0F8002722F44032C0F8E2
:10A100000027D0F8002742EA0141C0F80017704745
:10A1100038B5094B44181B6800936B4608E000BF34
:10A1200053F82010D1F8205520C2C1F82055401C0A
:10A130008442F5D838BD000088C6020001224FF0E5
:10A14000A043824011B1C3F808257047C3F80C251D
:10A1500070470000034908B5084400210160006809
:10A16000009008BD0060004002494058012800D01E
:10A1700000207047006000402DE9F041058A8046CC
:10A180002D1F4819C01CB0FBF5F0C6B24046FFF7C2
:10A19000A7F9041E19D00020207101206071E5800C
:10A1A00000272546761EC4F800800BE04046FFF7E6
:10A1B00097F960B16179491C6171286005467F1C7F
:10A1C000C0F80080B742F1D32046BDE8F0812046B8
:10A1D00000F002F80020F8E72DE9F041457901464A
:10A1E0006B1E002201E00968521C9A42FBD30F68E3
:10A1F0000146002605E038460C68FFF793F9214632
:10A20000761CAE42F7D3BDE8F081FFF7A3B91CB5C9
:10A2100001920122009201AAFFF7D4F81CBD1CB5DF
:10A2200001920022009201AAFFF7CCF81CBD2DE993
:10A23000F8430446002790460E468DF800706846A5
:10A24000FCF748FE204600F039F838B105279DF8A4
:10A250000000FCF763FE3846BDE8F8832068056817
:10A26000B8F1000F05D10168204600F03FF82168E1
:10A270000860E268012A0CD0022A0ED0042A11D00C
:10A280006068082A13D005FB02013046FCF7EDF8A0
:10A29000DDE76068405D3070D9E7606830F8150030
:10A2A0003080D4E7606850F825003060CFE700EBDD
:10A2B000C501D1E90001C6E90001C8E701680868E5
:10A2C0004968884201D10120704700207047016829
:10A2D0000A6849688068884201D9491C00E0002169
:10A2E000914201D101207047002070478068884268
:10A2F00001D9481C7047002070472DE9F8430446F7
:10A300004FF000080E468DF800806846FCF7E2FD2D
:10A310002046FFF7DCFF07000AD0207C40B14FF059
:10A3200004089DF80000FCF7F9FD4046BDE8F883FD
:10A330002068456841682046FFF7D8FF21684860DB
:10A3400037B1206801682046FFF7D0FF2168086018
:10A35000E268012A14D0022A16D0042A19D0082A49
:10A360001CD06068314605FB0200FCF77EF82046F1
:10A3700001F0F2F821688A688242D2D28860D0E780
:10A38000616830784855F2E76168308821F8150037
:10A39000EDE76168306841F82500E8E7D6E900019B
:10A3A000626802EBC502C2E90001E0E708B50022DD
:10A3B00042504058009008BD20B10349096801602F
:10A3C000002070470E20704780C70200FEB5064689
:10A3D0000C460846FFF7F0FF002845D10025009500
:10A3E0000195012706208DF80060ADF80400029564
:10A3F0008DF8027069462020226869DF00958DF88B
:10A4000001508DF80270019502958DF80370694630
:10A410004020226869DF00958DF80060F720ADF8D4
:10A4200002000195029569462320226869DF0095A4
:10A4300002208DF8000001950295694601202268EE
:10A4400069DF4FF4B0600090019502956946A12044
:10A45000226869DF0095019502958DF800506946E4
:10A46000A020226869DF0020FEBD000060DF002818
:10A4700002D1024A0121117070470000DF31002033
:10A4800030B51548ADF5017D0078002821D04FF496
:10A49000FA7500BFADF8005280A9684661DF38B197
:10A4A000052816D00DF5017DBDE83040FCF77ABBDC
:10A4B0006C460A497DA800F0BBF806E0D0E900210F
:10A4C000204690477DA800F0CAF87F980028E1D088
:10A4D000F4E70DF5017D30BDDF31002084C70200B7
:10A4E000F8B5134C2078C0B10120A07001F0D0FA6B
:10A4F000112814D0022001F0E3FA00258DF8005055
:10A500006846FCF7E7FC11DF064625709DF8000061
:10A51000FCF704FD2EB13046F8BD0820F8BD002040
:10A52000F8BDA57001F0A2FB032001F0C9FAF6E71F
:10A53000DC3100207CB5194C207808B108207CBDA6
:10A540000120A070002001F0A3FA112819D00020EA
:10A5500001F0B6FA12480026006801908DF80060FC
:10A560006846FCF7B7FC0F4901A810DF05000AD0C8
:10A57000002020709DF80000FCF7D0FC2DB128468B
:10A580007CBD00207CBD0120F3E7A670667001F061
:10A590008DFB012001F094FAF3E70000DC3100208C
:10A5A00018C70200756B02000EB50749684600F037
:10A5B0003FF805E0D0E900108847684600F04FF802
:10A5C00002980028F6D10EBD34C702000148007879
:10A5D00070470000DC3100200548817819B100780F
:10A5E00018B1FFF77DBF08207047FFF7A3BF000039
:10A5F000DC3100201FB568464BDF30B1052814D090
:10A6000004B0BDE81040FCF7CDBA084901A800F03D
:10A610000FF806E0D0E900210098904701A800F06B
:10A620001EF803980028E6D0F4E71FBDA0C702007B
:10A63000016009684160AFF3008010B5D0E90021E6
:10A640005368994201D1002104E0D1E90034A342CA
:10A6500002D01946816010BD08314160F0E7816881
:10A6600000290BD0026892680A44826041684B68F6
:10A670009A4203D108314160FFF7DFBF704770B5E0
:10A680000D460646446804E0B2682946904718B172
:10A69000246820680028F7D120682860256070BDF4
:10A6A00040680068704741680868002801D0026867
:10A6B0000A60704702460020526806E08B4203D1D0
:10A6C00008681060012070471A461368002BF5D106
:10A6D000704708B5002242504058009008BD4058CD
:10A6E000002800D00120704708B500224250405891
:10A6F000009008BDD0F80403084000D00120704746
:10A700004058002800D00120704708B50022425070
:10A710004058009008BD000002480068002800D0A2
:10A72000012070470004014008480068012110F032
:10A73000010F06D14FF0E020C02280F800248430C1
:10A74000C1670349012008607047000000E100E094
:10A75000180500400649024600200B790BB1852000
:10A7600070470A6001220A7100224A717047000096
:10A7700074310020022010B54107C1F808034FF4DE
:10A780008270FFF7A1FA05490120086004480168BA
:10A79000C1F300410029FAD110BD00000C000040B7
:10A7A00018040040002802D0014980010847704782
:10A7B000D1C602000121B1EB507F01D101207047C9
:10A7C0000020704738B50D4600F0DEFD040014D0BF
:10A7D00000208DF800006846FCF77CFB207928B14A
:10A7E0009DF80000FCF79AFB112038BD0120256080
:10A7F00020719DF80000FCF791FB002038BD10B5DA
:10A8000000F0C2FD002802D000210160017110BDDE
:10A810002DE9F04106460D464FF480340068174696
:10A82000AC404BB14FF4A07101EB8501FFF751FF34
:10A830003068C0F8044301E0C0F80843306800EB1A
:10A840008500C0F84075BDE8F081F0B40468049E4E
:10A8500040F20115D4F800728D40AF43C4F8007285
:10A860000468D4F800521D43C4F800523346F0BCCB
:10A87000FFF7CEBF2DE9F04104460E4600792C4982
:10A8800000EB400001EB8007387A10B10820BDE8EA
:10A89000F0813A60706800254FF4A078786006E097
:10A8A00008EB85012068FFF714FF6D1CEDB260799D
:10A8B000A842F5D82068F17840F3073000284FEA25
:10A8C000411104DB00F1E02080F8001405E000F005
:10A8D0000F0000F1E02080F8141D2068012140F3F2
:10A8E0000730002809DB00F01F0201FA02F24009DC
:10A8F000800000F1E020C0F8002120687278D0F8D4
:10A90000043562F30103C0F804352068B278D0F84A
:10A91000083562F30103C0F8083520683278D0F8B2
:10A92000103562F30303C0F8103539720020AEE72A
:10A93000E43D00200149024801F0A8BBB83D0020D9
:10A94000002000402DE9F0410546007916460F46EB
:10A9500000EB40012D4A01EBC00102EB810494F8A9
:10A960002A1011B10820BDE8F081294951F82010C2
:10A970002868FFF727FF08B11120F4E73946284679
:10A98000FCF7E6FA66603869206030004FF0010697
:10A990002FD03F7F4FF48E712868FFF7A5FE4FF44C
:10A9A000A2712868FFF7A0FE28681A49C0F80413AE
:10A9B00028684FEA471140F30730002804DB00F114
:10A9C000E02080F8001405E000F00F0000F1E02026
:10A9D00080F8141D286840F30730002809DB00F0D8
:10A9E0001F0106FA01F14009800000F1E020C0F8E3
:10A9F000001128680421C0F800150020A061E06162
:10AA000084F8290044F8140FA675ACE7B83D00207F
:10AA10008CC60200800002002DE9F05F0546007937
:10AA20004FF4017600EB400303EBC000344B03EB23
:10AA300080040020636813B12B68C3F80863A3691E
:10AA40004FF000096BB1E06938B1606810B1286857
:10AA5000C0F804631120BDE8F09FE261012021618C
:10AA600005E0C4F82490A261E160C4F81C9094F859
:10AA70002910014302D1284600F0DFFE606800285B
:10AA8000286803D0C0F804630020E4E74FF4A276FE
:10AA90003146FFF729FEB2464FF4927B59462868AB
:10AAA000FFF71DFE06464FF484712868FFF717FE76
:10AAB000804651462868FFF712FE074648EA07001D
:10AAC0003043EBD056EA070007D12146286800F052
:10AAD00085FEA169606A8142E0D8C4F818900EB181
:10AAE0000320B8E70FB10F20B5E794F82910012033
:10AAF0000029296801D00860C6E74860C4E7000063
:10AB0000B83D00202DE9F05F054600790B4600EBCB
:10AB1000400101EBC000244901EB8004284600F00D
:10AB200045F810B11120BDE8F09F62614FF00009B7
:10AB3000C4F82090A36084F828904FF48E784E4695
:10AB400041462868FFF7D0FD28684FF0010AC0F899
:10AB500008A02146286801F083F9606808BBD5F891
:10AB600000B067690FE000BF94F8280008B10F2615
:10AB700015E041465846FFF7B2FD0028F4D02146C3
:10AB8000584601F06DF9206AB842F2D35746414663
:10AB90002868FFF7A4FD0028F9D02868C760C4F82A
:10ABA00014903046BFE70000B83D0020007900EB6C
:10ABB000400101EBC000044901EB8000406900281E
:10ABC00000D0012070470000B83D00202DE9F0477B
:10ABD000044600794FF0000900EB400101EBC00092
:10ABE000284901EB80072068C0F800957868B0B16B
:10ABF00020682549C0F80813206840F30730002872
:10AC00000DDB00F01F02012191404009800000F19E
:10AC1000E020C0F88011BFF34F8FBFF36F8F206823
:10AC2000D0F80C25D0F81485D0F80865D0F8105568
:10AC30004FF0FF31C0F81415C0F80C152068C0F8AB
:10AC40000815C0F81015501C02D01046FFF717FA6F
:10AC5000B8F1FF3F02D04046FFF711FA681C02D05E
:10AC60002846FFF70CFA701C02D03046FFF707FAAF
:10AC70002068FFF7C4FD87F82A90C7F80490BDE864
:10AC8000F0870000B83D002084020200014902481C
:10AC900001F080BBF03D0020002000402DE9F04194
:10ACA0000546164600790F46154A00EBC00102EB37
:10ACB000810494F8201011B10820BDE8F0811149F9
:10ACC00051F820102868FFF77DFD08B11120F4E746
:10ACD00039462846FCF780F96660386920601EB165
:10ACE000397F2846FEF71EFA28680821C0F80015AB
:10ACF0000020A061E0616061012184F82010DCE7A0
:10AD0000F03D002090C602002DE9F05F0446007976
:10AD10000E4600EBC001DFF8F0A017460AEB8105F4
:10AD20003046FFF747FDB0B168684FF000084FF4B8
:10AD3000047910B12168C1F80893A8694FF0000B9D
:10AD400080B1E86948B1686810B12068C0F8049320
:10AD50001120BDE8F09F1020FBE7EF614FF00108E4
:10AD60002E6102E0EE60C5E9067B00254FF4887194
:10AD70002068FFF7CAFC4FF4A2712068FFF7C5FCFA
:10AD80002068C0F83465C0F838752068B8F1000F45
:10AD900012D0D0F8001241F02001C0F80012207942
:10ADA000D04600EBC0010AEB8100406838B1206852
:10ADB000C0F804932846CCE701210160EFE74FF487
:10ADC000887A4FF4A27951462068FFF799FC07462C
:10ADD00049462068FFF794FC06464FF492712068BC
:10ADE000FFF78EFC014647EA06000843EBD02279C4
:10ADF00002EBC20308EB8302C2F818B001B10325CD
:10AE0000002ED7D00F25D5E7F03D00202DE9F047E3
:10AE100004460E460079274900EBC00001EB80058F
:10AE200017463046FFF7C6FC30B1204600F044F824
:10AE300020B11120BDE8F0871020FBE76F61AE6004
:10AE40004FF490774FF0000839462068FFF75DFC1B
:10AE50004FF4AC7631462068FFF757FC2068AA68AB
:10AE60006969C0F84425C0F8481520684FF0010909
:10AE7000C0F808906868D0B9BA4651462068FFF714
:10AE80003FFC074631462068FFF73AFC0743F4D001
:10AE900010B14FF00F0808E02068C0F80C90314660
:10AEA0002068FFF72DFC0028F9D00020686140469B
:10AEB000C0E70000F03D00200079054900EBC0002C
:10AEC00001EB80004069002800D00120704700009D
:10AED000F03D00202DE9F047064600793D4900EBA2
:10AEE000C00001EB8005346868680127A8B13A49C1
:10AEF000C4F80813306840F3073000280DDB00F079
:10AF00001F0107FA01F14009800000F1E020C0F8BC
:10AF10008011BFF34F8FBFF36F8FD4F8000220F082
:10AF20002000C4F80002A8694FF4A27820B141467D
:10AF30002046FFF7EAFB67604FF4AC7949462046AC
:10AF4000FFF7E3FBE760474649462046FFF7D8FB9B
:10AF50000028F9D0A86928B139462046FFF7D0FB70
:10AF60000028F1D04FF0000AC4F800A53068D0F8EE
:10AF70000C25D0F81495D0F80885D0F810754FF04E
:10AF8000FF31C0F80C15C0F814153068C0F808156A
:10AF9000C0F81015501C02D01046FFF779F8B9F12F
:10AFA000FF3F02D04846FFF773F8781C02D03846BE
:10AFB000FFF76EF8B8F1FF3F02D04046FFF768F8A0
:10AFC0002046FFF71CFC85F820A0C5F804A0BDE8CA
:10AFD000F0870000F03D002010034200FBF7E2BDC7
:10AFE000F8B505460C460888B5F8CA12884266D1FD
:10AFF00095F8C6024FF0000E00EB8001C1EB801007
:10B0000005EB40016088E8BBE6880879A21DF3B231
:10B0100050FA86F6062E01D8034400E006230B7191
:10B0200000261BE000EBC00306EB860702EB470798
:10B0300001EB4303D7F802C0C3F80AC0D7F806C033
:10B04000C3F80EC07F895F82A3F814E0A3F816E06E
:10B05000A3F818E0401CA3F81AE0761C0B79834291
:10B06000E0D895F8C62200EBC00002EB8203C3EBE8
:10B07000821205EB420231F810001289904212D27E
:10B08000087900E00FE006280DD085F8C502218878
:10B090002846FCF76BFF002811D022882946BDE81E
:10B0A000F840FDF717B985F8C5E2228869462846B9
:10B0B000FDF730F820B122882946FDF70BF9F8BDDD
:10B0C0009DF800000028FAD0228801212846FDF7CB
:10B0D000A7F82188284600F0A7F8F8BDF8B505467E
:10B0E0000C460888B5F8CA12884255D195F8C602B0
:10B0F000A21D00EB8001C1EB801005EB400695F826
:10B10000C50200EBC00006EB400160880A3138B38D
:10B1100029E000BF00EB400302EB43039F88B7F533
:10B12000245F0CD06FF4245C17EB0C070AD0012FBE
:10B1300002D0072F0BD108E05B884B8107E05B88CA
:10B140008B8104E05B88CB8101E05B880B824B89BB
:10B150002BB18B891BB1CB890BB10B8A1BB9401C5E
:10B1600013888342D6D800208DF8000095F8C502D8
:10B170003179401C884203D101208DF8000010E095
:10B1800085F8C502228869462846FCF7C3FF20B12E
:10B1900022882946FDF79EF8F8BD9DF8000000289A
:10B1A000FAD0228801212846FDF73AF8218828465E
:10B1B00000F03AF8F8BD70B505460C4690F8C602A6
:10B1C000228800EB8001C1EB801005EB4001B5F84F
:10B1D000CA02824227D1608848B100212846FDF783
:10B1E0001FF821882846BDE8704000F01DB8E268CD
:10B1F000C1F80620E28895F8C412D0B251FA82F262
:10B20000062A01D8084400E0062085F8C4022188F7
:10B210002846FCF7ABFE002805D022882946BDE869
:10B220007040FDF757B870BD70B588B00D46044644
:10B2300020216846FBF732F994F8C7021E4B401CE8
:10B24000C0B284F8C702DA68002190422CD284F898
:10B25000C51294F8C602194E401CC2B202EB82001D
:10B2600084F8C622C0EB821006EB820204EB400099
:10B2700012680260017102218DF800100121ADF801
:10B2800010100068CDF812000D48CDE902042A46DE
:10B2900069469868FEF78EFA002803D02A462146B0
:10B2A000FDF718F808B070BD84F8C812294620468A
:10B2B000FCF79EFFF6E7000058310020303D0020EB
:10B2C000D58202002DE9F05F2A4F06464FF0A04AD2
:10B2D0004FF0010B0024381990F95010491C3CD054
:10B2E00090F85000314620F0C0052846FEF74AF994
:10B2F00020B3204600F040F881460AEB8500D0F8E4
:10B300000007C0F30148B8F1020F18D00221284607
:10B31000FEF7EDFE0BFA05F1CAF820152846FCF7FA
:10B320001DFE57F820204AB14846B9F1030F11D04D
:10B33000B8F1020F05D0B8F1030F07D00DE00321DB
:10B34000E5E74846B9F1010F04D006E04846B9F1F7
:10B35000020F02D1014628469047641C042CBAD340
:10B36000324601210020FEF7D3FE30680028B1D11B
:10B37000BDE8F09F5C3D00200249084490F8500071
:10B38000800970475C3D00200349884201D1034891
:10B390007047002070470000002000407C310020F2
:10B3A000034802490068FEF772B80000D831002057
:10B3B000D8C60200F0B591B00E4607460122694694
:10B3C000FEF735FF04005AD19DF8000004AD0628B1
:10B3D00042D2DFE800F0030A181F2327BDF812202D
:10B3E000BDF810103046A1DF0BE00CA80690014616
:10B3F000BDF8162000230198FEF709FF29463046C4
:10B40000A3DF044626E0BDF8101030460DF112020D
:10B410009BDFF6E7294630469DDFF2E729463046B6
:10B420009EDFEEE70CA807900023022208A90198EE
:10B43000FEF7EDFE08A80690BDF82020022307992C
:10B440000198FEF7E4FEBDF820E029463046AEDF65
:10B45000040016D0112C12D09DF800000C4951F8B0
:10B46000200010B10198FEF7B7FE00226946384669
:10B47000FEF7DDFE22463146684600F0C9F811B0FD
:10B48000F0BDBDF820008645E6D00C24E4E70000BE
:10B4900050C602002DE9F041234C0025234E207AAE
:10B4A000012730B92248311D0068FDF7FBFF3060ED
:10B4B00038B1022020723168087928B101281ED1E4
:10B4C00016E06560BDE8F081D1E90503C01A4FF4CC
:10B4D0008052904200D31046B7EB900F01D2820801
:10B4E00000E001220869C9681844194429DF03E013
:10B4F000D1E90301084428DF58B1112812D00321F3
:10B500003068FDF779F825726560BDE8F041FFF716
:10B5100047BF207C0028D5D1BDE8F04100210220A2
:10B52000FEF704BD2772CDE7943F0020D431002000
:10B53000D8C6020010B5074C201DFDF7C9FF002832
:10B5400006D1607C002803D1BDE81040FFF7A2BF00
:10B5500010BD0000943F002001680A6849689142CC
:10B5600001D3881A70478068801A0844401C7047CD
:10B5700070B58CB00446C068002209A9FEF757FEDA
:10B58000104D1BE0BDF82410A06801EB810100EB19
:10B59000810607E09DF8000055F8200010B10198E1
:10B5A000FEF71AFE002269463046FEF740FE0028EC
:10B5B000F0D0002209A9E068FEF739FE0028E1D0AA
:10B5C0000CB070BD50C6020010B510461A46FAF70E
:10B5D0004CFF002010BD000070B50C4B00210A4A42
:10B5E000DC680DE002EB81058678AD78B54206D1C6
:10B5F00032F821500688B54201D1586870BD491C07
:10B60000A142EFD3002070BD303D00205831002012
:10B6100030B4130009D08468002C06D0C0680A46F4
:10B62000A446014630BC1846604730BC704770B530
:10B63000044600780E46002204F11001062827D2A5
:10B64000DFE800F003080B111418628A218A3046E3
:10B65000A1DF0DE03046A3DF0AE0218A04F11202E7
:10B6600030469BDF04E030469DDF01E030469EDF40
:10B67000024605E0A06905883046AEDF020002D030
:10B68000112A0BD004E0A0690088A84200D00C2247
:10B6900031462046FFF7BCFF012070BD002070BD81
:10B6A0000846704770B50546FCF709FF134C40B1DA
:10B6B000D4E904024FF08071411842F10000C4E95E
:10B6C000041000212846FCF775FE30B1606820B1F7
:10B6D000606800F01DFB0020606001212846FCF737
:10B6E00069FE18B1FDF7EAFCC4E90601284600F03E
:10B6F0005BFB2846BDE8704000F038B88831002078
:10B700002DE9F04100260E70D0E902740D46804606
:10B71000FDF7D4FC381A002364EB01011A461B1A0A
:10B720008A4115DAB0F5350F04D3FBF773FA0D49EA
:10B73000421800E03A464FF4960300210A48FCF70D
:10B74000C6FE10B10D2807D00AE00120BDE8F08147
:10B7500000210548FCF724FE404600F0D9FA287085
:10B760000020F3E7FFFFB40090310020F8B5194C3A
:10B7700000251948FEF794FF002824D0D0E90210D4
:10B78000CA4372EA00021FD0626882B16368D3E9DB
:10B790000223891A984116D26168D1E90201C04397
:10B7A00070EA010003D061680B48FEF768FF00F003
:10B7B000A9FA06466946FFF7A3FF40B166609DF807
:10B7C00000000028D5D1F8BD00F09CFAD1E76560F3
:10B7D000CFE70000883100209CC6020070B5054606
:10B7E00088690C4600284FF4847128460AD0FEF779
:10B7F0007BFFD5F81805626AE1688854606A401CCE
:10B80000606270BDFEF770FFD5F8180570BD1FB5FA
:10B8100001238DF80030CDE90121D0E900126846FE
:10B8200090471FBD1FB501238DF80030CDE90121E0
:10B83000D0E90012684690471FBD10B50446006865
:10B840004FF49271FEF750FF4FF484712068FEF7B9
:10B850004BFF20680121016010BD000070B500F0B1
:10B860006AFD344C4FF0000004F10C01227A0B68A1
:10B87000DD073FD06378082B07D22F49A0780A5400
:10B88000401CA0705B1C637070BDAA2A2CD1607034
:10B89000A278802AF8D1A07020700870086840F063
:10B8A00004000860234914310888401C088000F017
:10B8B00053FD00F083FCFBF767FA1F488021FCF77B
:10B8C00077FA00781D4D38B1E32000F0B9F9286807
:10B8D00020F02000286070BD286840F0200028601B
:10B8E00015484078A07270BD6070A070207008701C
:10B8F000E12010E09D0707D5AA2AF5D143F0010207
:10B900000A606070A07070BD552A08D06070A07089
:10B9100020700870E220BDE8704000F091B92078F6
:10B92000401CC0B220700928EDD143F0020008602D
:10B9300070BD0000E8300020303A0020582A002076
:10B9400010B50446007870B1042808D0052818D135
:10B950006068002815D0BDE81040FBF723B9BDE8AA
:10B96000104000F055B82046FDF710F8002820469A
:10B9700003D0BDE81040FCF75BBABDE81040FBF710
:10B980009DB810BD1FB5002001900090029003905B
:10B990008DF8040001208DF80C001A4A69461A48F7
:10B9A000FEF74CF808B1FBF7FDF8184A03211648DA
:10B9B000FDF7C4FF08B1FBF7F5F8144A0321121D87
:10B9C0001148FDF7BBFF08B1FBF7ECF80F4A002167
:10B9D0000E320D48FDF7B2FF08B1FBF7E3F80B4A52
:10B9E00000211F320848FDF7A9FF08B1FBF7DAF87C
:10B9F000002205210448FDF7FEFF002801D0FBF7D7
:10BA0000D1F81FBD41B902002436002038C502001C
:10BA100010B50848FEF72FF908B1FBF7C3F801206D
:10BA2000FCF7B4F8002803D0BDE81040FBF7BAB823
:10BA300010BD00002436002038B50021012548B192
:10BA4000012810D003280DD1FEF76EFEBDE8384066
:10BA5000FEF762B94FF0E020C0F88051BFF34F8F7E
:10BA6000BFF36F8F38BD8DF800106846FBF732FAD0
:10BA7000064C207808B9FEF72FF9E068401CE0601A
:10BA8000A5709DF80000FBF749FA38BD483D00203D
:10BA90003EB5044609496846FEF7CAFD08E000BF06
:10BAA000D0E900212046904730B16846FEF7D7FD27
:10BAB00002980028F4D13EBD11203EBD1CC70200F3
:10BAC0003EB5044608496846FEF7B2FD07E000BFF0
:10BAD000D0E90021204690476846FEF7C0FD029855
