:020000040002F8
:1060000050660020C5630200CD630200CF6302002A
:10601000D1630200D3630200D563020000000000D8
:10602000000000000000000000000000D763020034
:10603000D963020000000000DB630200DD630200A0
:106040009D660200DF6302008D6A0200DF630200CA
:10605000DF630200DF630200AD650200DF63020060
:10606000DF630200756A0200DF630200DF63020083
:10607000DF630200DF630200DF630200DF63020010
:10608000DF630200F1660200DF630200DF630200EB
:10609000DF630200DF63020095670200DF63020036
:1060A000DF630200DF630200DF630200DF630200E0
:1060B000DF630200DF630200000000000000000058
:1060C000DF630200DF630200DF630200DF630200C0
:1060D000DF630200DF630200DF63020000000000F4
:1060E00000000000000000000000000000000000B0
:1060F00000000000000000000000000000000000A0
:10610000000000000000000000000000000000008F
:10611000000000000000000000000000000000007F
:10612000000000000000000000000000000000006F
:10613000000000000000000000000000000000005F
:10614000000000000000000000000000000000004F
:10615000000000000000000000000000000000003F
:10616000000000000000000000000000000000002F
:10617000000000000000000000000000000000001F
:10618000000000000000000000000000000000000F
:1061900000000000000000000000000000000000FF
:1061A00000000000000000000000000000000000EF
:1061B00000000000000000000000000000000000DF
:1061C00000000000000000000000000000000000CF
:1061D00000000000000000000000000000000000BF
:1061E00000000000000000000000000000000000AF
:1061F000000000000000000000000000000000009F
:10620000DFF810D000F094F90048004799AC020084
:10621000AFF300805066002030B450E8012F93B2F5
:10622000C48923448489A34228BF1B1B0489A34239
:1062300002BFBFF32F8F002007E0C3EA020340E84C
:106240000134002CE9D14FF001000A6030BC7047E6
:1062500050E8012FC2EA024240E801210029F7D1AB
:10626000704730B450E8022F1FFAA2F3C488A3424B
:1062700002BFBFF32F8F00200DE0C489234484891F
:10628000A34228BF1B1BC2EA034340E80234002C90
:10629000E8D14FF001000A6030BC704750E8022F8F
:1062A000C2EA224240E802210029F7D170470346A2
:1062B00053E8022FD988B2EB324F4FF0000017BFDE
:1062C00092B241EA014142EA014104E05A68B2EB6C
:1062D000324F08BF012043E80212002AE8D170477C
:1062E00030B4044654E8000F0D4644E80053002B38
:1062F000F8D1156030BC704730B4044654E8000F44
:1063000040EA010544E80053002BF7D1156030BC8A
:10631000704730B4044654E8000F00EA010544E831
:106320000053002BF7D1156030BC704730B40446E1
:1063300054E8000F80EA010544E80053002BF7D130
:10634000156030BC704730B4044654E8000F00EBD1
:10635000010544E80053002BF7D1156030BC7047AD
:1063600030B4044654E8000FA0EB010544E80053A4
:10637000002BF7D1156030BC704770B404464FF065
:10638000000054E8006F0D68AE4207BF44E80023E8
:10639000012044E800630E60002B1CBF0020F0E7E2
:1063A00070BC704730B4044654E8000F88422CBFDC
:1063B000451A054644E80053002BF5D1156030BC62
:1063C000704700000648804706480047FEE7FEE7A2
:1063D000FEE7FEE7FEE7FEE7FEE7FEE7FEE7FEE795
:1063E000DD670200016202002DE9F05F0546002032
:1063F00092469B4688460646814640241BE0284636
:1064000041464746224600F020F853465A46C01AF5
:10641000914110D311461846224600F07AF82D1A01
:1064200067EB01084F4622460120002100F071F879
:1064300017EB00094E41201EA4F10104DFDC4846A1
:1064400031462A464346BDE8F09F202A04DB203A25
:1064500021FA02F00021704721FA02F3D040C2F184
:1064600020029140084319467047000000487047D9
:106470002C0C030040EA01039B0703D009E008C984
:10648000121F08C0042AFAD203E011F8013B00F8F9
:10649000013B521EF9D27047D2B201E000F8012B45
:1064A000491EFBD270470022F6E710B513460A4694
:1064B00004461946FFF7F0FF204610BD421C10F8B5
:1064C000011B0029FBD1801A704710B5002200E0A3
:1064D000521C835C8C5CA34201D1002BF8D1D8B252
:1064E000E1B2401A10BD30B504460020034600E07A
:1064F0005B1C934203D2E05CCD5C401BF8D030BD06
:10650000034611F8012B00F8012B002AF9D1184697
:106510007047202A04DB203A00FA02F1002070477D
:106520009140C2F1200320FA03F3194390407047D1
:10653000064C074D06E0E06840F0010394E80700D0
:1065400098471034AC42F6D3FFF75EFE3C150300CB
:106550005C15030070B58C1810F8015B15F007038B
:1065600001D110F8013B2A1106D110F8012B03E0EC
:1065700010F8016B01F8016B5B1EF9D12B0705D4F4
:106580000023521E0DD401F8013BFAE710F8013B3D
:10659000CB1A921C03E013F8015B01F8015B521E59
:1065A000F9D5A142D8D3002070BD00002DE9F84FE5
:1065B0000026002000904FF480770125002410E091
:1065C000384605F029FD40B100BF25480068284045
:1065D00018B1384605F012FD2E436D00381D87B204
:1065E000641C082CECD34FF4BE7005F015FD50B1BF
:1065F0004FF4BE7005F002FD46F000466A460121E8
:10660000002005F0A7FCF0B210B3012500241DE026
:1066100005EA0600C0B100BF124850F82400C0F3DC
:106620000420814600BF0F4850F82400C0F3014009
:106630008246204602F076FC8046B8F1000F02D078
:1066400051464846C04700BF6D00641C082CDFD38C
:1066500006F0004010B1684608F0A4F8BDE8F88FD5
:10666000046300401065004000487047483900202E
:106670000048704748390020004870474A390020D8
:10668000004870474B3900200148007870470000EF
:10669000F1300020004870474939002010B54FF410
:1066A000807005F0CDF980B14FF4807005F0D1F91C
:1066B000012005F0D7F90D48407930B901200B4988
:1066C000487108460168002088474FF4827005F041
:1066D000B7F950B14FF4827005F0BBF9022005F014
:1066E000C1F9024801680120884710BD6C310020C3
:1066F00010B5034A1068034A1168884710BD0000AE
:10670000C4310020C031002010B500F0C7F910BD21
:106710002DE9F047074688461646C24607EB470173
:106720001B4800EBC109D9F8140020B1012811D091
:10673000022826D11EE0484600F0E8F90546B54299
:1067400001D2002405E0344632465146484600F066
:1067500024FA18E0484600F0D9F90546B54201D2BE
:10676000284600E03046044622465146484600F09E
:1067700014FA08E032465146484600F0D5F904467E
:1067800001E0002400BF00BF2046BDE8F087000004
:10679000E043002010B506F04BFB10BD10B50446D9
:1067A00008480078C0F3801000B110BD09F0FEFD6C
:1067B000802221460448FFF75DFE09F0AFF800BFD4
:1067C000F3E70000982A0020C83900200148024958
:1067D000086070470090D0033032002010B503F0FD
:1067E000BDF828B192480088C0F3042091490860A0
:1067F00003F008F910B190489049486703F02AF96E
:1068000030B18B48E0380068C0F342308C490860F2
:1068100003F04AF928B18B48006820F0807089495C
:10682000086003F059F948B10020874908604FF02B
:106830008041C1F810018249091F086003F076F910
:1068400018B103207E496431086003F087F968B10C
:1068500005207E49086001207C49783108600020CD
:106860007A49083108603F20091F086003F08EF95B
:10687000002855D06E48E0300068754908606C48C3
:10688000E4300068091D08606948E8300068091DA7
:1068900008606748EC300068091D08606448F03003
:1068A0000068091D08606248F4300068091D08602E
:1068B0005F48F83000686649203108605C48FC3069
:1068C0000068091D086063480068091D0860614888
:1068D000001D0068091D08605E4808300068091D39
:1068E00008605C480C300068091D08605948103089
:1068F0000068574940310860564814300068091D47
:106900000860544818300068091D086051481C3060
:106910000068091D08604F4820300068091D0860A4
:1069200002F0F2FF30B14248CC38006800F04F006E
:106930004949086003F03CF840B14848006800F05D
:10694000010018B16FF001004449086003F072F8CB
:1069500028B14348006840F48060414908603948E4
:106960007438006840F4700036497439086000BF1C
:1069700000BF00BFBFF34F8F00BF00BF00BF00BF0D
:1069800000BF00BFBFF36F8F00BF00BF00BF35481F
:10699000006800F0004028B93248001D006800F08F
:1069A0000040E8B301203049086000BF2F4800686C
:1069B0000028FBD015202B49086000BF2B48006839
:1069C0000028FBD015212748001D016000BF274883
:1069D00000680028FBD000202349086000BF23483E
:1069E00000680028FBD000BF00BF00BF00BF00BF91
:1069F000BFF34F8F00BF00BF00BF1248F0380068E0
:106A000000F4E0601A490843001D0E49F03908609F
:106A100000BF00BF00BFBFF34F8F00BF00BF00E04B
:106A200003E000BF00BF00BFFDE7FFF7CFFE10BDD2
:106A300024030010403501400DF0ADBA00C00740FE
:106A40003C050040FCED00E00C0100401056004009
:106A500020C5004024040010E40E00400004004063
:106A60003C1700400012001004E5014000E4014022
:106A70000000FA0510B504220249034803F0A9FFFB
:106A800010BD0000FC3C00200090004010B5024901
:106A90000868804710BD00007431002010B5124C0A
:106AA00002202061606111A0A0611349E1614FF4EF
:106AB000007121620021A1626162E1620BA0A06409
:106AC0000E49E164102121650021A1656165E16540
:106AD0000BA1E01DFFF714FD0AA12046FFF710FDF2
:106AE0002020A07110BD0000C84300205465726DC5
:106AF000696E616C000000004044002040460020A8
:106B000052545400534547474552000010B50146C2
:106B10000A69CB689A4204D88C68641EE41AA018EB
:106B200001E0D41A601E10BD2DE9F04704468946E5
:106B300017464FF0000AE56800BFD4F81080A8455A
:106B400003D9A8EB0500461E04E0A5EB0800401C95
:106B5000A1680E1AA068401BB04201D9304601E07E
:106B6000A068401B0646BE4201D2304600E03846CF
:106B700006466168481932464946FFF77BFCB24435
:106B8000B144BF1B3544A068A84200D10025E56090
:106B9000002FD2D15046BDE8F0872DE9F0470446DA
:106BA00089461546E668A068871BAF4208D9616828
:106BB00088192A464946FFF75DFC7019E06010E02D
:106BC000B8466168881942464946FFF753FCA5EB71
:106BD000070809EB070142466068FFF74BFCC4F861
:106BE0000C80BDE8F08702E008C8121F08C1002A27
:106BF000FAD170477047002001E001C1121F002A3E
:106C0000FBD170470146202908DA012088400A4A52
:106C1000104008B1012070470020FCE7402909DA44
:106C2000A1F12000012202FA00F008B10120F2E7F0
:106C30000020F0E70120EEE7FC06FFBD00BFEFF308
:106C40001081084672B6704730B502465068831C02
:106C5000002125E001EB4110134C14F81000E8B9B5
:106C600001EB4114104D05EB440001240470002495
:106C700044705468E47C80F83D401C68C0F836409D
:106C80009C8844879C7980F83C404FF6FF74C48709
:106C9000064C2478641C054D2C7030BD481CC1B2D4
:106CA0000A29D7DB00BFF8E74C330020472A002031
:106CB0002DE9F04704460D462F4695F84080B4F87C
:106CC0001C9000260BE007EB46124946A06900F035
:106CD00097FB10B10120BDE8F087701CC6B2464595
:106CE000F1DB0020F7E7F0B505460B4600215C68B4
:106CF0000EE0665C481C275CAF4206D1881C20442D
:106D00005060701E10800020F0BD701C014400BF58
:106D100018888842EDD80520F6E72DE9F05F064691
:106D20000C4604F1420A94F84C504A2010F80490A2
:106D30004FF00008B6F81CB0002710E00AEB8702FD
:106D40005946B06900F0B1FB28B108F1010000F02C
:106D5000FF0815B905E005B103E0781CC7B24F453F
:106D6000ECDB00BF0DB1C84503D02DB9B8F1000F61
:106D700002DD0120BDE8F09F0020FBE710B50446CE
:106D8000022001F077FC10BD10B572B600BF05F00F
:106D900033FD00BF00BF05F035FA0028FBD100BF6E
:106DA00000BF1E491E4A891AC908012242EA014051
:106DB0001CA105F02BFC00BF1D48006800F001007D
:106DC00000B100BE00BF1549154A891AC908022240
:106DD00042EA014017A105F019FC00BF00BF00BF47
:106DE00000BF00BFBFF34F8F00BF00BF00BF104800
:106DF000E438006800F4E06012490843001D0C49C3
:106E0000E439086000BF00BF00BFBFF34F8F00BF71
:106E100000BF00BF00BF00BFFDE70000E415030096
:106E20006C150300466174616C206572726F7200AC
:106E3000F0ED00E053797374656D207265736574CD
:106E4000000000000000FA053EB504460020009056
:106E50000190029002946A46002144F20100FFF77B
:106E600093FF3EBD0146C86888600020704770B53A
:106E700004460D46204602F0E1FF28B1294620468F
:106E800002F0D0FF002070BD0520FCE7034609B9E1
:106E90000E20704712B1501E104008B10920F8E7CB
:106EA0001960501E988000209860D86000BFF0E7FD
:106EB00070B504460D46204602F0C0FFA188884206
:106EC00005D82946204602F0CCFF002070BD0420E2
:106ED000FCE7000010B5024802F0D4FB10BD000032
:106EE0008031002030B503460C460AB9072030BD7A
:106EF00019684FF0FF358D60CD604A61012C01D1DA
:106F0000012000E0002008610020F0E738B51448B7
:106F1000006800900823A82212491348006803F073
:106F200089FF04460CB1204638BD104A6946104816
:106F300002F0AEFB04460CB12046F5E701210C48F7
:106F400002F04CFC01230B4A1946094802F06CFB85
:106F5000074802F054FC0120074908702046E3E787
:106F6000500903002C3D002040090300B5F0020049
:106F700080310020FFFF7F008C3100202DE9F84395
:106F800006460D469046344600200090684600F0C4
:106F90005DF94FF0FF33D4E90210594058400143E6
:106FA00008D103F073FB401941F10001C4E902016B
:106FB000012700E000279DF8000000F04DF917B907
:106FC0000020BDE8F883C4F81880206900B125616D
:106FD0002146002008F0D2FEF3E7F8B50446254626
:106FE00000200090684600F031F94FF0FF33D5E9FA
:106FF000021059405840014301D1002604E04FF0EF
:10700000FF31A960E96001269DF8000000F024F935
:107010000EB90020F8BD2946012008F0AFFEF9E7BF
:1070200010B5054A01210548FFF75CFF044A00211D
:107030000448FFF757FF10BDCB0203009807030079
:10704000590403009C07030010B50A4C20780A4934
:10705000085C18B1201D06F0BDFC07E02078064949
:10706000085C18B904F10C0006F03CFB00BF0020DE
:1070700010BD0000A43100206831002010B50A487E
:10708000FFF7F0FE044600BF204600B110BD00BF70
:107090000648FFF7E7FE044600BF204600B1F5E7CB
:1070A00000BF0020F2E70000E43D0020F43D002096
:1070B0002DE9F04104460F48077821460E48FFF7B6
:1070C000D6FE804697B100200A49087001220B497C
:1070D0000B4804F055FD054600BF2E4626B100BF03
:1070E0003046FFF7B1FE00BF00BF00BF4046BDE81D
:1070F000F0810000BE310020E43D0020BD310020C1
:10710000A43100202DE9F04188B004460E46174610
:1071100098462B4807601EB9072008B0BDE8F081EB
:10712000B08882B227483168FFF7B0FE054600BF3D
:10713000284600B1F1E700BFB08982B22248B168A9
:10714000FFF7A4FE054600BF284600B1E5E700BFF3
:1071500020221E496846FFF78DF960690690207C61
:1071600008B1012000E000208DF814008DF81C808B
:10717000607C08B10E2000E000208DF81500E0686A
:107180000290A06803902068019060680090104A07
:107190006946104804F0AEFC054600BF284600B121
:1071A000BBE700BF00200C4908702068401C28B1D4
:1071B00001220A49074804F0E3FCAEE70020ACE7EF
:1071C000B8310020E43D0020F43D002054090300C4
:1071D00005000300A4310020BE310020BD31002095
:1071E0002DE9F041054629461448FFF761FE0646A1
:1071F00006BB134C002720781249085C20B1201DE3
:1072000006F0D8FB074608E020780E49085C20B954
:1072100004F10C0006F054FA074600BF57B90A49BA
:107220000648FFF724FE28B901220749044804F064
:10723000C9FC06463046BDE8F0810000F43D002060
:10724000A431002068310020BC31002010B5044674
:10725000204608F045FA10BD70B5044625460E4894
:107260008068B0B1ADB9FFF7E9FC06460A4800688E
:107270000A490860084840684FF0E021C1F804015D
:107280000020054988601EB900BF62B600BF00BF7C
:1072900000BF00BF70BD0000043E002000E100E020
:1072A00070B500224FF4804107480068FFF766FE82
:1072B000044600BF254625B100BF2846FFF7C4FDA0
:1072C00000BF00BF70BD00006C07030070B505462D
:1072D0000C462068401C28B1206804F055FE206848
:1072E00004F007FE6068401C18B10021606804F0DB
:1072F000E6FD2868A169C0F8241500BF617D227DE4
:10730000286841EA0203C0F86C3500BFD4E90012D6
:10731000286805F0BFFE207D012814D1A068401C1C
:1073200018B10021A06804F0CAFDE068401C28B133
:10733000E06804F029FEE06804F0DBFDD4E90221F6
:10734000286805F090FE70BD70B505460C462068B3
:10735000401C28B1206804F022FE206804F0D5FD0E
:107360006068401C18B10021606804F0B5FD286811
:10737000A169C0F8241500BF617D227D286841EA1B
:107380000203C0F86C3500BFD4E90012286805F08C
:10739000B9FE207D012814D1A068401C18B100213D
:1073A000A06804F099FDE068401C28B1E06804F092
:1073B000F6FDE06804F0A9FDD4E90221286805F093
:1073C00082FE70BD002114E00C48D0F81024012387
:1073D00008E000BFD0680079884201D1002303E0B3
:1073E000D0680268002AF4D100BF0BB1084670478C
:1073F000491C0A29E8DB4FF0FF30F8E7A83F0020DE
:107400002DE9F843064688461546002000900DB940
:10741000BDE8F88309236A464146304600F017F874
:107420000446BDF800003718BDF8000068B164B12B
:107430002846FFF743F8A04207D12246394628469E
:10744000FFF751F808B90120E2E70020E0E7F0B5C6
:1074500004460D461E4604B10AB90020F0BD0021C5
:1074600003E0605C401C084481B2481CA84206DA74
:1074700010888842F5DC481C205CB042F1D1A9425A
:1074800001DB0020EAE7881C87B2605C10B1605C19
:10749000401E00E0002083B213B1F818A84201DDBD
:1074A0000020DBE717801846D8E72DE9F04788B0C1
:1074B00004460E4617460020079010200690B2465C
:1074C00002AA06A9384664DF814614B1B9F1000F5B
:1074D00003D0002008B0BDE8F0879DF8180002280E
:1074E00004D0042809D0102815D10DE003208DF810
:1074F000040002208DF805000FE005208DF804003F
:1075000004208DF8050008E007208DF8040006200F
:107510008DF8050001E00020DCE700BF002509E050
:1075200001A8435D07AA31462046FFF790FF824637
:10753000681CC5B2022D03DABDF81C000028EFD08C
:10754000BDF81C0008B90020C4E7BDF81C0004EB1E
:10755000000800250DE008EB05009DF8182002A9A1
:10756000FEF7C1FF08B90120B4E79DF818002844D0
:1075700085B25545EFDB0020ACE7000010B50446AE
:1075800000BF0CB90E2010BD00BF00BF0648007838
:10759000012801D00820F6E700BF04480168204612
:1075A00007F00AFCEFE700005C31002050310020BA
:1075B0000146002200BF09B90E20704700BF00BF7E
:1075C000086808B90E20F8E700BF00BF486808B98E
:1075D0000E20F2E700BF0020064B18600120064B8A
:1075E0001870064B08681860054B4868186010460C
:1075F000E3E70000583100205C31002050310020CA
:107600005431002070B504460D4600BF04B970BD6A
:1076100000BF00BF05B9FAE700BF00BF14480078FB
:10762000012800D0F3E700BF2E462088112815D08E
:10763000302804D0322807D0332814D109E0211D86
:10764000304606F00DFF0FE0211D304606F032FAFD
:107650000AE0211D304606F0AFFC05E0211D304652
:1076600006F04EFD00E000BF00BF00BFCFE7000006
:107670005C31002070B504460D4600BF0CB90E20E9
:1076800070BD00BF00BF0B480078012801D0082062
:10769000F6E700BF0848006808B90820F0E794F84A
:1076A000C80208B11120EBE72946204601F034FF5B
:1076B000E6E700005C310020583100202DE9F04160
:1076C00007460C46207820B101283BD0022851D132
:1076D0003DE02A492A4A891AC908032242EA0140A0
:1076E00028A104F093FF618804F10E02384600F0EF
:1076F00071F8054600BF2E4626B100BF3046FFF7A1
:10770000A3FB00BF00BF384600F052F9054600BF9A
:107710002E4626B100BF3046FFF796FB00BF00BFE4
:107720001649174A891AC908032242EA01401AA1D8
:1077300004F06CFF2248006820F00100401C204942
:10774000086017E0A189A06800F048F912E00B4931
:107750000B4A891AC908032242EA014019A104F020
:1077600055FF07F04DFF1648006820F0010014494E
:10777000086000BF00BFBDE8F0810000E415030011
:107780006C150300446973636F7665727920636FCB
:107790006D706C6574652E00436F6E6E6563746505
:1077A0006420746F20646576696365207769746806
:1077B0002044465520536572766963652E000000AB
:1077C000982A0020446973636F6E6E656374656404
:1077D0002E00000070B504460E46154600BF0CB9D9
:1077E0000E2070BD00BF66802DB16988E1802888B9
:1077F000A080A98821813146606903F0E3FCF0E7AD
:1078000070B586B004460D461B4B0FCB01AE0FC6BC
:1078100000BF14B90E2006B070BD00BF00BF0DB987
:107820000E20F8E700BF00BFA86808B90E20F2E7F5
:1078300000BF214601A862DF064600BF304600B106
:10784000E9E700BF00BF01208DF816004FF6596030
:10785000ADF8140000BF4FF6FF7060802868E0604C
:10786000686820610020A08000212181A8686061F3
:1078700005A8FFF783FECEE79008030070B586B039
:1078800005460E46344604B10DB906B070BD608899
:107890004FF6FF71884203D06088A988884200D0E3
:1078A000F3E72888112806D0392816D12946204622
:1078B00006F092FD12E0A888618888420CD1E06849
:1078C00050B102208DF804004FF6FF70608001A9CE
:1078D0002046E268904700BF00E000BF00BF00BF45
:1078E000D3E70000F0B585B007460C461421684682
:1078F000FEF7D9FD04F10E062078002849D1A088B2
:107900004FF65961884244D1A079012841D1002520
:1079100030E005EBC50036F81000012802D002283F
:1079200017D10EE005EBC50006EB40000089ADF86D
:107930000E0005EBC50006EB40004189ADF81010C4
:1079400016E005EBC50006EB40000189ADF812100A
:107950000EE005EBC50136F811200F490F4BC91A8F
:10796000C908032343EA01400DA104F059FE00BFFA
:1079700000BF6D1C207AA842CBD8F86848B100201F
:107980008DF800006088ADF8020069463846FA6854
:10799000904705B0F0BD0000941503006C1503007E
:1079A0004E6F7420666F756E64202564200D0A008A
:1079B00010B5044600BF0CB90E2010BD00BF608892
:1079C0004FF6FF71884201D0E08808B90820F4E73B
:1079D0000121204601F0B4F9EFE7000070B504463C
:1079E0000D469649964A891AC908042242EA01407E
:1079F00094A104F00BFE9149914A891AC908042206
:107A000042EA01402A46214604F08AFD2078602897
:107A10000AD08A498A4A891AC908012242EA0140E1
:107A20008DA104F0F3FD70BD6078072870D2DFE807
:107A300000F0F60440411AF67900A078012803D13D
:107A400002208D4908700DE0A2787C497C4BC91A50
:107A5000C908012343EA014088A104F0E1FDFF20A9
:107A600085490870E6E0A078012813D18E48007897
:107A7000012803D105208049087019E08A48007860
:107A8000022803D1FE207C49087011E0FF207A49CA
:107A900008700DE0A2786949694BC91AC908012329
:107AA00043EA014075A104F0BBFDFF207249087054
:107AB000C0E0BFE0A078012833D17C48D4F803109F
:107AC0004160D4F80710816000224168784801F0D5
:107AD000F1FA064675488068B0421ED172480078B7
:107AE00001280AD17348007818B10420624908704F
:107AF00016E002206049087012E06B480078022806
:107B00000ED16D48007820B109205B49087007E06C
:107B100085E007205849087002E0FF2056490870A8
:107B200000BF87E0A078012867D1604854F8031FA0
:107B3000016061684160A168E41E816001205F49C5
:107B400008705948007801282BD100228721584815
:107B500001F0B0FA064655484068872803D15348DB
:107B60008068B04219D0514800224168504801F065
:107B7000A1FA06464D48406838B14C48406887280D
:107B800003D84A488068B04203D001203A490870BF
:107B900006E002203849087002E0032036490870E8
:107BA00006E041480078022802D0FF2032490870E0
:107BB0003E490A682149224BC91AC908032343EAEE
:107BC00001403FA104F02CFD38494A681B491C4B79
:107BD000C91AC908032343EA01403EA104F020FD6D
:107BE00032498A681549164BC91AC908032343EA62
:107BF00001403CA104F014FD10E0A2780F49104BA5
:107C0000C91AC908012343EA01403AA104F008FD5A
:107C100000202A490870FF20174908700AE0074928
:107C2000074A891AC908022242EA01403CA104F02D
:107C3000EDFC00BF00BF00BFF5E60000E415030047
:107C40006C150300526563656976696E672064662A
:107C50007520646174612E00424C452044465520D5
:107C60004F5020434F4445204E4F542052455350CF
:107C70004F4E534500000000392A0020424C452059
:107C8000444655206F7020636F64652063726561A0
:107C90007465206F626A65637420726573756C74B5
:107CA0003A20256400000000502A002034320020D1
:107CB000C00603004E2A00204F2A0020382A002048
:107CC0006D61782073697A65203D202564200D0A56
:107CD000000000006F6666736574203D20256420F7
:107CE0000D0A00006372633332203D202564200DAD
:107CF0000A000000424C4520444655206F70206326
:107D00006F64652073656C656374206F626A656378
:107D10007420726573756C743A202564000000004D
:107D2000526563656976656420756E737570706FF2
:107D300072746564204F5020636F6465000000001A
:107D400070B588B004460E46154600BF14B90E2023
:107D500008B070BD00BF20216846FEF7A4FBF42DDB
:107D60000BDD1C491C4A891AC908022242EA01405B
:107D70001AA104F04BFC0720EAE760884FF6FF7178
:107D800088420BD11349144A891AC908022242EACF
:107D9000014017A104F03AFC0820D9E701208DF832
:107DA00000001A4802900394A188ADF81210ADF8B3
:107DB00016500021ADF81410069601208DF8100021
:107DC00001218DF8111062886946606903F048FA54
:107DD000BEE70000941503006C150300436F6E743A
:107DE000656E7420746F6F206C6F6E672E000000DC
:107DF000436F6E6E656374696F6E2068616E646C4C
:107E00006520696E76616C69642E0000117E020047
:107E10002DE9F04106460C46174625460849094A11
:107E2000891AC908042242EA01403A4606A104F030
:107E3000F7FB286910B1304629698847BDE8F08111
:107E4000941503006C15030041204741545420430E
:107E50006C69656E74206572726F72206861732040
:107E60006F63637572726564206F6E20636F6E6EF0
:107E70005F68616E646C653A2030582558000000D8
:107E800070B588B004460E46154600BF14B90E20E2
:107E900008B070BD00BF20216846FEF704FBF42D3A
:107EA0000BDD1C491C4A891AC908022242EA01401A
:107EB0001AA104F0ABFB0720EAE760884FF6FF71D8
:107EC00088420BD11349144A891AC908022242EA8E
:107ED000014017A104F09AFB0820D9E701208DF892
:107EE00000001A48029003942189ADF81210ADF8F1
:107EF00016500021ADF81410069601208DF81000E0
:107F000001218DF8111062886946606903F0A8F9B3
:107F1000BEE70000941503006C150300436F6E74F8
:107F2000656E7420746F6F206C6F6E672E0000009A
:107F3000436F6E6E656374696F6E2068616E646C0A
:107F40006520696E76616C69642E0000117E020006
:107F50002DE9F84F05468B462E1D06F1040A2888A8
:107F60001F287DD008DC10280DD0112863D01328DD
:107F700077D01B2876D18EE0212874D03B2873D08F
:107F80005628F7D1E5E08148006820F00100401C48
:107F90007E490860072000F0EDFB044600BF27463D
:107FA00027B100BF3846FEF74FFF00BF00BF504665
:107FB00002F034FB8046B8F1FF0F2DD0404602F0AE
:107FC0000DFB07463FB30120B870A888F887787882
:107FD00080B1A98800226E48FFF7FCFB044600BF71
:107FE000A146B9F1000F04D000BF4846FEF72CFFB0
:107FF00000BF10E0A9880022664800F0BBF90446E3
:1080000000BFA146B9F1000F04D000BF4846FEF7FB
:108010001BFF00BF00BF00BFA9885F48FFF72AFB16
:10802000044600BF274627B100BF3846FEF70CFFC5
:1080300000BF00BFA6E05548006820F0010053498A
:108040000860FF2055490870504602F0E7FA0746DD
:10805000FF2F10D0384602F0C1FA0021817004E0F1
:1080600037E026E08DE042E05BE0384602F0B6FA09
:108070004FF6FF71C187337932884949DFF824C14F
:10808000A1EB0C01C9084FF0030C4CEA014046A1DA
:1080900004F0D2FA76E03079022809D14049414A09
:1080A000891AC908032242EA01404BA104F0AEFA42
:1080B00068E0A88800231A4685217FDF044600BFB8
:1080C000274627B100BF3846FEF7BEFE00BF00BFFF
:1080D00058E03088311D75DF044600BF274627B1C0
:1080E00000BF3846FEF7B0FE00BF00BF4AE02C4993
:1080F0002C4A891AC908042242EA01403EA104F030
:1081000085FA00200090A88869468FDF044600BFEA
:10811000274627B100BF3846FEF796FE00BF00BFD6
:1081200030E01F491F4A891AC908042242EA014067
:1081300036A104F06BFAA888132176DF044600BF4D
:10814000274627B100BF3846FEF77EFE00BF00BFBE
:1081500018E01349134A891AC908042242EA014067
:1081600030A104F053FAA888132176DF044600BF3B
:10817000274627B100BF3846FEF766FE00BF00BFA6
:1081800000E000BF00BFBDE8F88F0000982A002083
:10819000F836002010370020A02A0020402A0020B6
:1081A000E41503006C150300446973636F6E6E651C
:1081B000637465642E20636F6E6E5F68616E646CBD
:1081C000653A20307825782C20726561736F6E3A9D
:1081D0002030782578000000436F6E6E6563746907
:1081E0006F6E20526571756573742074696D656476
:1081F000206F75742E00000050485920757064611E
:10820000746520726571756573742E00474154540E
:1082100020436C69656E742054696D656F75742EAA
:108220000000000047415454205365727665722067
:1082300054696D656F75742E000000002DE9F041E2
:1082400007460C46207820B1012834D0022859D1A5
:108250004BE02E492E4A891AC908032242EA0140FE
:108260002CA104F0D3F9618804F10E02384600F025
:1082700081F8054600BF2E4626B100BF3046FEF706
:10828000E3FD00BF00BF384600F0ACF9054600BF73
:108290002E4626B100BF3046FEF7D6FD00BF00BF18
:1082A0001A491B4A891AC908032242EA01401EA141
:1082B00004F0ACF926E080212748FEF7F4F8A28903
:1082C0002548A168FEF7D6F8A0892349A1F88000C7
:1082D0002248006820F00800083020490860204843
:1082E0000088401C1E4908800CE00849084A891A89
:1082F000C908032242EA01401AA104F087F907F0F5
:108300007FF900BF00BFBDE8F0810000E415030065
:108310006C150300446973636F7665727920636F2F
:108320006D706C6574652E00436F6E6E6563746569
:108330006420746F2064657669636520776974686A
:10834000204E6F7264696320554152542053657208
:10835000766963652E000000E0350020982A002031
:10836000482A0020446973636F6E6E6563746564A8
:108370002E00000070B504460E46154600BF0CB92D
:108380000E2070BD00BF66802DB16988E18028880D
:10839000A080A98821813146606902F013FFF0E7CF
:1083A00070B586B004460D461A4B0FCB01AE0FC612
:1083B00000BF14B90E2006B070BD00BF00BF0DB9DC
:1083C0000E20F8E700BF00BFA86808B90E20F2E74A
:1083D00000BF214601A862DF064600BF304600B15B
:1083E000E9E700BF20788DF816000120ADF81400F1
:1083F0004FF6FF7060802868E060686820610020A8
:10840000A08000212181A868606105A8FFF7B6F867
:10841000D1E700008008030070B586B005460E461F
:10842000344604B10DB906B070BD60884FF6FF71D7
:10843000884203D06088A988884200D0F3E7288862
:10844000112806D0392816D12946204605F08EFF7E
:1084500012E0A888618888420CD1E06850B10220FF
:108460008DF804004FF6FF70608001A92046E26895
:10847000904700BF00E000BF00BF00BFD3E770B56A
:1084800086B005460C46142101A8FEF70CF804F14D
:108490000E06207800283AD1A088012837D1A0798B
:1084A0002978884233D1002022E000EBC00136F861
:1084B0001110022902D0032917D107E000EBC001F7
:1084C00006EB41010A89ADF816200FE000EBC00170
:1084D00006EB41010989ADF8121000EBC00106EB73
:1084E00041014A89ADF8142000E000BF00BF401CE4
:1084F000217A8142D9D8E86848B16088ADF8060091
:1085000000208DF8040001A92846EA68904706B0CB
:1085100070BD000070B588B004460E46154600BF19
:1085200014B90E2008B070BD00BF20216846FDF7C9
:10853000BAFFF42D0BDD1C491C4A891AC908022216
:1085400042EA01401AA104F061F80720EAE76088D6
:108550004FF6FF7188420BD11349144A891AC90892
:10856000022242EA014017A104F050F80820D9E79E
:1085700001208DF800001A48029003942189ADF87B
:108580001210ADF816500021ADF814100696022016
:108590008DF8100001218DF811106288694660691C
:1085A00002F05EFEBEE700008C1503006C150300B0
:1085B000436F6E74656E7420746F6F206C6F6E679E
:1085C0002E000000436F6E6E656374696F6E2068E5
:1085D000616E646C6520696E76616C69642E000062
:1085E00019A4020010B5044600BF0CB90E2010BD3E
:1085F00000BF60884FF6FF71884201D0E08808B95B
:108600000820F4E70121204600F06AFBEFE738B5C7
:1086100004F0CCFB044600BF254625B100BF284628
:10862000FEF712FC00BF00BF002000906946012049
:1086300004F012FB044600BF254625B100BF2846C2
:10864000FEF702FC00BF00BF684604F063FB04466F
:1086500000BF254625B100BF2846FEF7F5FB00BF49
:1086600000BF38BD10B5044604F0010008B100F0A9
:1086700045F810BD10B502460949885C00BF4FF0AF
:10868000A0442146D1F80435012484409C43C1F81C
:108690000845012484401C40C1F80C4500BF10BDB2
:1086A000C807030010B504460249085D012103F024
:1086B00081FC10BDC807030010B504460249085DDF
:1086C000002103F077FC10BDC807030010B5014678
:1086D000094B585C00BF4FF0A044234600BFD3F8BD
:1086E0000445C44004F001040CB1012000E0002066
:1086F000024682F0010010BDC80703002DE9F041D9
:10870000002004461AE01049085D01210B460022B2
:108710001546164600BF4FF0A04C674641EA430C91
:108720004CEA820C4CEA052C4CEA064807F5E06C52
:108730004CF8208000BF00BF601C0446002CE2D033
:1087400000F004F8BDE8F081C807030010B500246C
:1087500003E02046FFF7A6FF641C002CF9D010BDF3
:1087600010B5002403E02046FFF7A6FF641C002C90
:10877000F9D010BD70B5044600250548007800F01A
:10878000010018B1204600F02BF80546284670BDC0
:108790000431002070B504460E4600250B480460E5
:1087A00004F0010080B10120FFF75CFF2DB9084AF9
:1087B00000210848FEF796FB05462DB9064A01211F
:1087C0000648FEF78FFB0546284670BD04310020A1
:1087D00055AB0200CC0703007D6D0200D0070300FB
:1087E0002DE9F047044600260025DA48007820B13C
:1087F0000020D849087002F099F9182C7ED2DFE8E1
:1088000004F00C16174A7EB2F6F4F3F2F1F0EFEE34
:10881000EDECEBEAE9E8E7E6E5E402F087F9CE48BB
:108820000068FEF7DAFB0646CC4804708DE100BF15
:108830000020FFF74BFF58B10020FFF733FF022C59
:1088400002D14FF4E16001E04FF47A60054609E09F
:108850000020FFF731FF022C01D1C82001E04FF4C6
:10886000C8700546BD4804704FF40040A5FB0010D9
:108870004FF47A73CF1840F100015A0000233846B4
:10888000FDF7B2FD814600224946B3480068FEF775
:1088900075FB064659E10020FFF718FF58B100208C
:1088A000FFF700FF032C02D14FF4487001E04FF4B2
:1088B0007A60054609E00020FFF7FEFE032C01D197
:1088C000C82001E04FF4C8700546A44804704FF476
:1088D0000040A5FB00104FF47A728F1840F10001A0
:1088E000520000233846FDF77FFD814600224946AD
:1088F00099480068FEF742FB064626E124E1002085
:10890000FFF7E4FE58B10020FFF7CCFE042C02D1A3
:108910004FF47A6001E04FF47A6005460AE00020E7
:10892000FFF7CAFE042C02D14FF4C87001E04FF4E7
:10893000C8700546894804704FF40040A5FB00103C
:108940004FF47A73CF1840F100015A0000233846E3
:10895000FDF74AFD8146002249467F480068FEF740
:108960000DFB0646F1E00020FFF7B0FE50B10020FD
:10897000FFF798FE052C01D1C82001E04FF47A6082
:10898000054609E00020FFF797FE052C01D1C8201D
:1089900001E04FF4C8700546704804704FF4004081
:1089A000A5FB00204FF47A73D71840F100015A005C
:1089B00000233846FDF718FD8146002249466648E7
:1089C0000068FEF7DBFA0646BFE0B8E0B6E0AAE0D2
:1089D000A1E098E092E05FE05DE05BE059E057E005
:1089E00051E042E033E024E015E00EE0FFE7002034
:1089F000FFF740FE59480470002240F26661564875
:108A00000068FEF7BBFA06469FE00020FFF754FE21
:108A10005248047099E001204E490870FFF72AFE81
:108A2000002240F266614C480068FEF7A7FA06464D
:108A30008BE0012047490870FFF71CFE00224FF42D
:108A4000005145480068FEF799FA06467DE001208E
:108A500040490870FFF70EFE002240F266613E4872
:108A60000068FEF78BFA06466FE00120394908706E
:108A7000FFF700FE00224FF4005137480068FEF770
:108A80007DFA064661E0FFF76BFE344804705CE057
:108A900000BF00BF00BF00BF31480068FEF79DFA6D
:108AA0000646C4F1110515B30EBB012D18D9A8B2A5
:108AB000C82148434FF4004180FB01104FF47A7203
:108AC0008F1840F10001520000233846FDF78CFC5E
:108AD00081460022494622480068FEF74FFA0646C2
:108AE0000220FFF7E9FD01201E49087005E0022081
:108AF000FFF7D8FD00201B49087026E002F016F8A9
:108B00001648047021E002F011F80020FFF7D4FDB0
:108B10001248047019E002F009F80120FFF7CCFDBB
:108B20000E48047011E002F001F80020FFF7C4FDC8
:108B30000120FFF7C1FD0948047006E000BFFFF700
:108B40000FFE0648047000E000BF00BF3046BDE8DD
:108B5000F087000001310020CC0703000031002025
:108B6000D0070300083100202DE9FC4704460D46DC
:108B70001646A71C4FF001080020019001A8FEF73F
:108B800065FB3048406828602E4840682D49896858
:108B9000411A2D480068401CA0EB010915E0012195
:108BA0002A4802F0A1F902F011F8824651462748FE
:108BB00002F09AF92348406822498968411A2248FC
:108BC0000068401CA0EB010900BF4F45E7D8B8F191
:108BD000000F30D00021009176B1009921F00301FF
:108BE000491C0091009921F00401091D0091009990
:108BF00064F3891100910DE0009921F00301891CB3
:108C00000091009921F00401091D0091009964F37D
:108C10009F5100910B4949680B4A12681140094A5B
:108C20000C3202EB81000099016006494968394421
:108C30000C3A516000BF9DF80400FEF70DFB404662
:108C4000BDE8FC87A83F0020E8310020C443002095
:108C500070B504460D460A2D03D10D212046FFF7BD
:108C6000F7FFA168481CA06020684554D4E90110B2
:108C7000884202D3204602F0DCFF70BD04488068C1
:108C800003494968884201D1012070470020FCE770
:108C9000A83F002070B500210120FFF77BFD0446AE
:108CA00000BF254625B100BF2846FEF7CDF800BF1E
:108CB00000BF70BD10B502461078084B1870012037
:108CC00007E0135C054C24786340044C2370431C7C
:108CD000D8B28842F5DB014810BD0000F230002018
:108CE00070B58AB004460D462E46202102A8FDF735
:108CF000DAFBF0B28DF80400300A8DF8050001208F
:108D00008DF808000D4804900594E188ADF81A101C
:108D10000221ADF81E100021ADF81C1001A9089128
:108D200001208DF8180001218DF81910628802A920
:108D3000606902F095FA0AB070BD000019A4020043
:108D400070B58AB004460D462E46202102A8FDF7D4
:108D5000AAFBF0B28DF80400300A8DF8050001205E
:108D60008DF808000D4804900594E188ADF81A10BC
:108D70000221ADF81E100021ADF81C1001A90891C8
:108D800001208DF8180001218DF81910628802A9C0
:108D9000606902F065FA0AB070BD0000117E020041
:108DA0002DE9F04786B00546686800F102094FF0EA
:108DB000000A287A00F00100E0B168688069059037
:108DC0006868808BADF8100002AA04A90920FDF79D
:108DD0008AFF064666B102AA04A90820FDF783FFB0
:108DE000064616B106B0BDE8F0874FF0010A01E073
:108DF0004FF0010A4FF00008287AC0F3800010B34A
:108E00006868806905906868808BADF810006A46D4
:108E100004A90720FDF767FF0646F6B16A4604A9D4
:108E20000520FDF760FF0646A6B16A4604A90320A7
:108E3000FDF759FF064656B16A4604A90220FDF720
:108E400052FF064606B10AE04FF0010807E04FF076
:108E5000010804E04FF0010801E04FF0010800278D
:108E60005AE007EB47102E4911F81000002851D0A6
:108E700007EB47112A4A02EB410101F136000722B4
:108E80004946FDF730FB70BB07EB4710244901EB67
:108E900040046868C07C84F83D000020A4F84000CD
:108EA000BAF1000F09D02021E01CFDF7FCFABDF853
:108EB0000820E01C0399FDF7DDFAB8F1000F24D07B
:108EC000BDF80000102820DCBDF8002004F12300CC
:108ED0000199FDF7CFFABDF80000102804D10198E0
:108EE0008089A08607E014E0BDF80000022802D1C6
:108EF00001980088A086A08E4FF65961884202D161
:108F00000120607001E0002060704FF6FF70E08784
:108F100068E700BF781CC7B20A2FA2DB00BF61E779
:108F20004C3300200146024850F8210070470000F1
:108F3000743C00200146014840567047A43C002084
:108F400070B58AB004460E46202101A8FDF7ABFAA1
:108F50000020099094F8C60200EB8001C1EB80105C
:108F600004EB400594F8C502B8B194F8C522521E2E
:108F7000D1B294F8C62202EB8203C3EB821204EB57
:108F8000420501EBC10305F10A0202EB430002892D
:108F9000521C92B2ADF8242002E0E888ADF824001B
:108FA0002889ADF8260003208DF804000998059063
:108FB000049405480390324601A90448006802F071
:108FC0004FF90AB070BD0000F19402005431002046
:108FD00010B5002001F002FB04464FF42571FDF7A7
:108FE00062FA10BD70B505460DB9094C01E0084C98
:108FF000083409E0204601F07FFD064606B904E08A
:1090000028467168884700BFF4E700BF70BD0000C4
:10901000683C002010B504462CB901200649487070
:109020000020FFF7DFFF012C04D1012002498870E6
:10903000FFF7D8FF10BD0000603C00202DE9F0478D
:10904000024613468C46D3E90245DCE90267B6EBDB
:10905000040877EB050002D30120BDE8F08700206B
:10906000FBE70246002007E0536833F810308B42DC
:1090700000D17047431C98B213888342F4DC00BFD0
:10908000F7E710B502460B4600210DE0506830F8B6
:1090900011004FF6FF74A04204D1506820F811303F
:1090A000002010BD481C81B210888842EEDC0420EC
:1090B000F7E70000F0B503460C4612B94FF0FF3059
:1090C00001E01068C0430146002012E01D5C6940C9
:1090D00008250BE001F0010616B14FF0FF3600E065
:1090E0000026064F3E4086EA51016D1E002DF1D14B
:1090F000401CA042EAD3C843F0BD00002083B8ED75
:109100002DE9FF4105460C4629492A4A891AC90812
:10911000042242EA01402B46224627A103F08CFAA2
:10912000002002900390ADF80840ADF80A4000908E
:1091300001906A4602A9284690DF0646002E32D0EA
:10914000304603F04FFF074619491A4A891AC908E1
:10915000012242EA01403B462A46234903F06CFAC9
:10916000BDF8000010B9BDF8020068B1BDF80230CA
:10917000BDF800200E490F4FC91BC908012747EA57
:1091800001401AA103F058FABDF8040058B1BDF827
:1091900004200749074BC91AC908012343EA0140C3
:1091A000224903F03DFA304604B0BDE8F0810000EA
:1091B000741503006C1503005570646174696E6763
:1091C0002064617461206C656E67746820746F2020
:1091D0002575206F6E20636F6E6E656374696F6EA8
:1091E00020307825782E0000040E03005468652096
:1091F0007265717565737465642054582F525820D8
:109200007061636B6574206C656E67746820697348
:1092100020746F6F206C6F6E672062792025752F28
:109220002575206F63746574732E0000500E030063
:1092300010B5044621460448FFF721F921460348AA
:10924000FEF750FB10BD000010370020F83600205C
:109250007CB50020009001900848009008480190DB
:109260006846FEF7A5F9044600BF254625B100BFB4
:109270002846FDF7E9FD00BF00BF7CBD319202002A
:10928000883000202DE9F04F89B004460F46914602
:109290004FF0000B20216846FDF705F994F8C6024F
:1092A00000EB8001C1EB801004EB400594F8C5028F
:1092B00000EBC00105F10A0000EB410A94F8C50279
:1092C000401C2979884207D108AB0022514620462C
:1092D00001F0D2FB834627E094F8C5621FE02879AD
:1092E000401EB04202D14FF0000806E0701C00EBB7
:1092F000C00105F10A0000EB410808AB42465146A7
:10930000204601F0B9FB10B14FF0010B0AE0C24654
:1093100094F8C502401C84F8C502701CC6B22879B6
:10932000B042DCDC00BF00BFBBF1000F05D1012063
:109330003870002009B0BDE8F08F0020387004209C
:109340008DF80000089804900394044802904A465F
:1093500069460348006801F083FFEBE7F1940200DF
:10936000543100203EB50C4800900C4801900C4848
:10937000029001200B49087069460A48FEF740FA3E
:10938000044600BF254625B100BF2846FDF75CFD19
:1093900000BF00BF3EBD0000BD760200A9930200E1
:1093A00088300020F836002010B5044600BF204663
:1093B000FDF74AFD00BF10BD0349096821F0100107
:1093C0001031014A11607047982A002030B59FB0D3
:1093D00004460D467C216846FDF765F8ADF802505D
:1093E00003208DF8000001940448006818B1684615
:1093F0000249096888471FB030BD00005031002085
:109400002DE9F04104460D46164694F8C60200EBDD
:109410008001C1EB801004EB4008404605F0ACFC35
:109420000746E7B3D4F8CC02062838D204F53470E6
:10943000D4F8CC1200EBC110468004F53471D4F896
:10944000CC2201EBC211081D76224146FDF712F82D
:1094500045B1002104F53470D4F8CC2200EBC210E1
:10946000017007E0022104F53470D4F8CC2200EB3F
:10947000C210017004F53470D4F8CC1200EBC110A6
:10948000C767D4F8CC02401CC4F8CC020549D4F814
:10949000CC020968884202D1204605F0EFF8BDE809
:1094A000F0810000583100202DE9F041A0B00446C1
:1094B0000D46164694F8C60200EB8001C1EB801001
:1094C00004EB4008404605F057FC074657B17C22A4
:1094D000064901A8FCF7CEFFADF80660029501A889
:1094E000B84700BF20B0BDE8F0810000D4070300FA
:1094F0002DE9F04105460C4616462746002087F820
:10950000C802324629463846FFF7CEFF3146384674
:10951000FFF75CFFBDE8F081F0B589B004460E4668
:109520004FF4BA612046FCF7BEFF202101A8FCF7EA
:10953000BAFF31462448006801F044FE054600BFEA
:10954000284608B109B0F0BD00BFA4F8CA620020E7
:10955000C4F8CC0284F8C70284F8C60284F8C502B5
:1095600094F8C60200EB8001C1EB801004EB4007C9
:1095700094F8C602154901EB8000006838603A880B
:109580001349144BC91AC908042343EA014033465E
:10959000114903F051F802208DF804000120ADF8C4
:1095A00014003968CDF8161004940C480390324624
:1095B00001A90548006801F053FE054615B90120D0
:1095C00084F8C8022846BDE754310020483C0020FA
:1095D0006C1503006C150300740D0300F194020078
:1095E00010B50021034801F095FC044684F31000F7
:1095F00010BD0000C443002070B505460C464FF472
:10960000803000FA04F1284600F0D8FA70BD70B539
:1096100005460C464FF4A07000EB840086B231463C
:10962000284600F0E5FA70BD2DE9F04704460D46E6
:1096300016461F464FF4803000FA05F84FF4A0702C
:1096400000EB85001FFA80F926F07F46414620682E
:1096500003F0EDFA4146206803F0E3FA494620683A
:1096600003F0D8FA32462946206803F0CAFA414688
:10967000206803F0D9FA1FB14146206803F0DAFAF6
:10968000BDE8F08710B50446206803F0BFFA10BDAE
:109690002DE9F04704460D4617466079324941F8F6
:1096A00020706079314901EBC000007968B108266B
:1096B0002F49304A891AC908022242EA01402EA1E4
:1096C00002F0A4FF3046BDE8F08729882068C0F882
:1096D000081500BF94F90420AB78104619460028FD
:1096E00008DB4FEA417C4FEA1C68DFF8B0C00CF899
:1096F00000800BE04FEA417C4FEA1C69DFF8A0C014
:1097000000F00F08A8F104080CF8089000BF00BF93
:1097100094F90410084600280DDB00BF00BF00F0DC
:109720001F0301229A4043099B0003F1E023C3F881
:10973000002100BF00BF00BF00BF012061790B4ABC
:1097400002EBC10108716079114641F830400026F2
:109750000749084A891AC908032242EA014011A1AF
:1097600002F054FF3046AEE7C0310020C431002083
:10977000D41503006C15030052544320696E7374B2
:10978000616E636520616C726561647920696E69E0
:109790007469616C697A65642E00000000E400E081
:1097A00018ED00E05254433A20696E697469616CA7
:1097B000697A65642E00000010B5014691F9040035
:1097C000002807DB00F01F0301229A40024B4409E6
:1097D00043F8242000BF10BD00E200E070B505464C
:1097E0000C4622460221284600F0F4F970BD10B55F
:1097F00004464FF48271204600F0FAF910BD10B50E
:1098000004460021206803F018FA10BD2DE9F84F36
:1098100004468846154699464FF4803000FA08FA07
:109820004FF4A07000EB88001FFA80FB25F07F4505
:109830005146204600F0C2F9206803F0E7F90646D9
:109840004146206803F0D7F900903246414620682F
:1098500003F0D7F95946206803F0DCF93146009847
:1098600006F0ACF9012806D1102003F08FFC594610
:10987000206803F0CFF9206803F0C8F906463146A6
:10988000284606F09BF907465146206803F0CCF9BC
:10989000012F0FD16A1C4146206803F0B2F9102055
:1098A00003F074FC206803F0B1F9B04225D00D201C
:1098B000BDE8F88F2A464146206803F0A2F92068E7
:1098C00003F0A4F90646681E314606F077F907460C
:1098D0006FF07F40A0EB0900B84201D20D20E7E70E
:1098E0005FB96A1C4146206803F08BF9206803F0D9
:1098F0008DF9B04201D00D20DAE701225146204611
:1099000000F068F90020D3E713480078062820D13A
:109910001148001D007800F00F00D0B90E48083043
:10992000007800F0F000302801D1012070470A488B
:109930000830007800F0F000402801D10120F5E760
:1099400005480830007800F0F000502801D10120CF
:10995000ECE70020EAE70000E00F00F01348007891
:10996000062820D11148001D007800F00F00D0B962
:109970000E480830007800F0F000302801D10120B6
:1099800070470A480830007800F0F000402801D104
:109990000120F5E705480830007800F0F000502875
:1099A00001D10120ECE70020EAE70000E00F00F021
:1099B00013480078062820D11148001D007800F0D7
:1099C0000F00D0B90E480830007800F0F0003028C1
:1099D00001D1012070470A480830007800F0F000FB
:1099E000402801D10120F5E705480830007800F053
:1099F000F000502801D10120ECE70020EAE7000048
:109A0000E00F00F00A48007806280ED10848001D33
:109A1000007800F00F0040B905480830007800F0E9
:109A2000F000302801D1012070470020FCE7000041
:109A3000E00F00F006480068062806D10448001D23
:109A40000068062801D1012070470020FCE70000D3
:109A50003001001013480078062820D11148001D5D
:109A6000007800F00F00D0B90E480830007800F000
:109A7000F000302801D1012070470A4808300078F2
:109A800000F0F000402801D10120F5E7054808303A
:109A9000007800F0F000502801D10120ECE7002010
:109AA000EAE70000E00F00F00A48007806280ED12F
:109AB0000848001D007800F00F0040B90548083044
:109AC000007800F0F000302801D10120704700201C
:109AD000FCE70000E00F00F013480078062820D1D2
:109AE0001148001D007800F00F00D0B90E48083072
:109AF000007800F0F000302801D1012070470A48BA
:109B00000830007800F0F000402801D10120F5E78E
:109B100005480830007800F0F000502801D10120FD
:109B2000ECE70020EAE70000E00F00F00A480078C8
:109B300006280ED10848001D007800F00F0040B93B
:109B400005480830007800F0F000302801D10120ED
:109B500070470020FCE70000E00F00F00A480078A2
:109B600006280ED10848001D007800F00F0040B90B
:109B700005480830007800F0F000302801D10120BD
:109B800070470020FCE70000E00F00F00A48007872
:109B900006280ED10848001D007800F00F0040B9DB
:109BA00005480830007800F0F000502801D101206D
:109BB00070470020FCE70000E00F00F070B504469D
:109BC0000D462946206803F02CF82946206803F04A
:109BD0002EF870BD70B504460E4615463146206815
:109BE00003F022F81DB13146206803F023F870BD60
:109BF00070B505460C462868015929B121462868E8
:109C000003F008F8012070BD0020FCE730B5A1B0DA
:109C1000FCF732FD0478802101A8FCF744FCFCF736
:109C200027FD00788DF804008DF80640C12C06D081
:109C3000C22C22D0C32C40D0CB2C60D14CE06A2067
:109C40008DF80500002315E0184600F0C7FC054616
:109C5000287868B1C3EBC300C01C01A901443D20B2
:109C6000D5F837200A60B5F83B208A80405D8871BE
:109C7000581CC3B20A2BE7DB42E0FCF701FD274981
:109C800002680A608088888008460168CDF807105D
:109C90008088ADF80B002248007800F001008DF8B4
:109CA0000D0008208DF805001C4800F0D3FC054687
:109CB000FF2D01D01B48057022E001208DF8050022
:109CC000FF20184908701648006820F4807000F5DD
:109CD00080701349086013E001208DF805001048DA
:109CE000006820F4806000F580600D490860084637
:109CF000006820F4807000F58070086000E000BF0C
:109D000000BF7F2101A8FEF7D5FF00788DF8830002
:109D100001A8FCF743FD21B030BD0000412A00201E
:109D2000982A0020402A002070B5A0B0FCF7A4FCBF
:109D3000057880216846FCF7B6FBFCF799FC0078B3
:109D40008DF800008DF80250D12D04D0D22D1BD0FB
:109D5000DC2D52D145E03048002101604160816036
:109D6000FCF78EFC2C4900680860002088602B48B6
:109D70002B4908604FF4807129480068FCF793FB79
:109D800001208DF8010039E0FCF784FC0078401ECA
:109D9000C4B2FCF775FC06461F494968204A1268A0
:109DA000881822463146FCF765FB1B4949681C4A66
:109DB00012688818184A08322146FFF77BF91649BD
:109DC0008860084640682044486008464068CDF8EE
:109DD000030008468068CDF8070009208DF80100CF
:109DE0000CE00D484068CDF803000B488068CDF8C2
:109DF000070009208DF8010000E000BF00BF7F21AF
:109E00006846FEF757FF00788DF87F006846FCF73C
:109E1000C5FC20B070BD0000403200204C32002054
:109E20003C2A002070B504460D462A4600212046F3
:109E300000F00EF8A068401CA06070BD01468A6862
:109E4000C868801A704701468A68C868801A7047D7
:109E500010B583680B44848823400468E35C137066
:109E600010BDC26883881A4003689954C268521CA6
:109E7000C260704770B505466868861C002415E00E
:109E800004EB44100B4911F8100068B104EB4411C5
:109E9000084A02EB410101F1360007223146FCF786
:109EA00022FB08B9012070BD601CC4B20A2CE7DB9C
:109EB0000020F8E74C3300202DE9F041A0B0002449
:109EC000F7480088C0F3C02038B1F548006820F496
:109ED0000060F349086005F0B7FCF1480078C0F372
:109EE000800040B1EE48006820F00400EC490860B2
:109EF000FF20EC490870EA480078C0F3401038B100
:109F0000E748006820F02000E549086006F0FEF907
:109F1000E3480078C0F3801008B105F09FFFE048E7
:109F20000078C0F3C00030B3DD48006820F00800BE
:109F3000DB49086080216846FCF7B5FA7F220121E1
:109F40006846FCF7A9FAD84890F880008DF801001F
:109F5000D548B0F8802001460DF10200FCF78AFADE
:109F60007F216846FEF7A6FE00788DF87F006846E0
:109F7000FCF714FC00BFCA480088C0F3402038B189
:109F8000C748006820F40070C5490860C7484CDF26
:109F9000C3480078C0F3C010002844D0C04800680F
:109FA00020F08000BE49086008460088C0F3802089
:109FB000C0B30846006820F4806008604FF47A75EA
:109FC00005B90EE000BF4FF47A7606B905E0B84F48
:109FD0004FEA86184046B84700BF681E051EF2D1FA
:109FE00000BFB120B349086000BF00BF00BF00BF81
:109FF00000BFBFF34F8F00BF00BF00BFAE48006877
:10A0000000F4E060AD490843001DAB49086000BFA3
:10A0100000BF00BFBFF34F8F00BF00BF00BF00BF36
:10A0200000BFFDE7FFE79E48007800F00100002830
:10A0300037D19C480078FF2823D09A4800780A2816
:10A040001FDA9848007800F0C9FA0546C5B12878AB
:10A05000B0B19B4890F8583000F1500200F15A011D
:10A0600005F136008CDF044654B19649964A891AA8
:10A07000C908012242EA0140224694A102F0D0FA26
:10A0800000BF87480078C0F30010002808D084483B
:10A09000006820F0100082490860E52005F0A2FC6D
:10A0A00096E180480078FF2822D100F0A1FA054609
:10A0B000EDB12878D8B1E88F132176DF0446082C5B
:10A0C00008D000BF264626B100BF3046FCF7BCFED4
:10A0D00000BF00BF72480088C0F3002038B170484C
:10A0E000006820F480706E490860FEF771FF6FE130
:10A0F0006B480078C0F300100028D1D06848006891
:10A1000020F010006649086000F072FA064600BFB1
:10A11000707800287CD077480078062879D006DC53
:10A12000062823D2DFE800F0102339667987092852
:10A1300070D004DC07286ED0082817D18FE0FE28E5
:10A140006AD0FF28F9D1E9E001206B4908700620A8
:10A150006A49087001204870022069490880084651
:10A16000028866496748FDF7EBFD0446D7E066487C
:10A170004068C0F1870501206049087048700846B2
:10A18000C0F8025006205E490880084602885B49F4
:10A190005C48FDF7D5FD0446C1E05C480088C0F18D
:10A1A0008700142804D259480088C0F1870000E0D5
:10A1B000142085B25648554A128881182A464F48BD
:10A1C000FCF758F95148008828445049088008464F
:10A1D0000088872805D301204E490870032045498F
:10A1E000087047480580028844494648FDF748FE04
:10A1F000044694E00320414908700120404908804A
:10A20000084602883D493F48FDF79AFD044686E02E
:10A21000A9E022E031E021E03DE004203749087068
:10A220000120374908800846028834493548FDF73F
:10A2300087FD044673E002202F49087006202F494D
:10A240000870022048702E490880084602882B4971
:10A250002C48FDF775FD044661E060E05FE00320F7
:10A2600026490870012026490880084602882349AB
:10A270002448FDF765FD044651E004201F4908709D
:10A2800001201F490880084602881C491D48FDF727
:10A2900057FD044643E020480068FCF79EFE3EE080
:10A2A000982A0020402A0020E03500209C2A002027
:10A2B000910703001C0500400CED00E00000FA05CA
:10A2C0003C370020E41503006C150300436F6E6EED
:10A2D000656374696F6E205265717565737420468D
:10A2E00061696C65642C20726561736F6E202564F2
:10A2F00000000000392A0020502A0020E436002007
:10A30000542A0020F836002034320020522A00203F
:10A31000C00603004E2A00207007030000BF00BFE4
:10A320002D492E4A891AC908042242EA01402C49C3
:10A330000A782CA102F074F92749284A891AC90819
:10A34000042242EA01402AA102F060F92249234A8C
:10A35000891AC908042242EA01402A490A882A497E
:10A3600002F0DEF81EE02948B0F8802001462848B7
:10A37000FEF7D0F804461849184A891AC908042279
:10A3800042EA01401AA102F041F92049B1F88020C7
:10A390001149124BC91AC908042343EA01401B4959
:10A3A00002F0BEF8082C0AD0132C08D000BF2546B6
:10A3B00025B100BF2846FCF747FD00BF00BF132CA6
:10A3C0003FF4A6AE13484088401C1249488000BFA5
:10A3D00020B0BDE8F0810000E41503006C15030017
:10A3E000392A0020537465703A202564000000006B
:10A3F000526561647920746F2073656E64206461B6
:10A4000074610000542A0020E436002062360020E7
:10A4100010370020482A00202DE9F04106460C465E
:10A42000174625460849094A891AC908042242EAFA
:10A4300001403A4606A102F0F3F8286910B130460F
:10A4400029698847BDE8F0818C1503006C1503006D
:10A4500041204741545420436C69656E74206572F5
:10A46000726F7220686173206F63637572726564C6
:10A47000206F6E20636F6E6E5F68616E646C653A0C
:10A4800020305825580000007047000070B50E4974
:10A490000E4800F0E7FD044600BF254625B100BF89
:10A4A0002846FCF7D1FC00BF00BFF721074800F0A9
:10A4B000CAFD044600BF254625B100BF2846FCF76B
:10A4C000C3FC00BF00BF70BD89A402002837002074
:10A4D00070B506460C4604F11005E888102801DD29
:10A4E000092070BDE988304602F004FA60606068B7
:10A4F00008B90420F5E7EA88A9680023606802F03B
:10A5000084FA0649064BC91AC908042343EA0140E4
:10A5100004A1626802F084F80020E2E77C150300E1
:10A520006C150300506F696E74657220746F206142
:10A530006C6C6F6361746564206D656D6F727920FA
:10A54000626C6F636B3A2025702E000070B5064672
:10A550000C4604F11005A8680088102801DD0920C8
:10A5600070BDA8680088811C304602F0C3F96060A5
:10A57000606808B90420F3E7A96800230222606834
:10A5800002F043FAAB681A88E9680223606802F0B7
:10A590003CFA0649064BC91AC908042343EA01409C
:10A5A00004A1626802F03CF80020D9E77C150300A2
:10A5B0006C150300506F696E74657220746F2061B2
:10A5C0006C6C6F6361746564206D656D6F7279206A
:10A5D000626C6F636B3A2025702E0000014601EB20
:10A5E0004110024A02EB4000704700004C3300204B
:10A5F00000210DE001EB4110074A02EB400080789A
:10A6000020B101EB411002EB40007047481CC1B281
:10A610000A29EFDB0020F8E74C33002070B505462F
:10A62000002413E02046FFF7D9FF007860B12046F0
:10A63000FFF7D4FF00F137060622691C3046FBF70E
:10A6400052FF08B9204670BD601CC4B20A2CE9DB79
:10A65000FF20F8E770B50546002413E02046FFF719
:10A66000BDFF007860B12046FFF7B8FF00F1370664
:10A67000062229463046FBF736FF08B9204670BD52
:10A68000601CC4B20A2CE9DBFF20F8E770B50B4868
:10A69000FEF7F8FF0A4B0CCB841843F1000509497B
:10A6A00003C9201A75EB010004D24FF08073E4183F
:10A6B00045F100052046294670BD0000803100208C
:10A6C000903100209831002010B501F09BFD08B9B1
:10A6D000FFF7F2FB10BD2DE9FC5F83460E46914665
:10A6E0001F46DDE90C45002E01DA704200E03046DD
:10A6F00082464FF0010803E09AFBF9FA08F10108DD
:10A70000CA45F9DA474500D9B84634B1002E03DB13
:10A7100005F00400042800D1641E05F0020000B119
:10A7200067B105F0010048B944B104E0641E20217E
:10A730005846FEF78DFA0CB1A045F7D3002E05DA86
:10A7400076422D215846FEF783FA07E005F0040013
:10A75000042803D12B215846FEF77AFA05F00200AF
:10A7600002280DD105F0010050B94FB944B104E001
:10A77000641E30215846FEF76BFA0CB1A045F7D3A2
:10A780003B464A4631465846CDE9004505F03AFF7A
:10A79000BDE8FC9F70B505461249286802F068FCC8
:10A7A000286802F003FD04462046002817DB00F06D
:10A7B0001F02012191400C4A430942F8231000BFB7
:10A7C00000BF00BFBFF34F8F00BF00BF00BF00BF7F
:10A7D00000BF00BFBFF36F8F00BF00BF00BF00BF4F
:10A7E00000BF70BD8402020080E100E070B5054644
:10A7F0001249286802F06DFC286802F0DFFC04466C
:10A800002046002817DB00F01F02012191400C4A6E
:10A81000430942F8231000BF00BF00BFBFF34F8FB2
:10A8200000BF00BF00BF00BF00BF00BFBFF36F8FFE
:10A8300000BF00BF00BF00BF00BF70BD10034200DB
:10A8400080E100E02DE9F04104460E464FF48E71A0
:10A85000206802F001FC4FF4A271206802F0FCFBBA
:10A860001A49206802F007FC206802F09FFC0546A8
:10A87000374628463946002804DB4A07130E144A97
:10A88000135408E04A074FEA126C124A00F00F0313
:10A890001B1F02F803C000BF00BF206802F086FC47
:10A8A0000546284600280DDB00BF00BF00F01F0250
:10A8B000012191404209920002F1E022C2F8001108
:10A8C00000BF00BF00BF00BFBDE8F08180000200F4
:10A8D00000E400E018ED00E02DE9F04104460E46EA
:10A8E0004FF48871206802F0E7FB4FF49071206804
:10A8F00002F0E2FB4FF49271206802F0DDFB4FF4AE
:10A90000A271206802F0D8FB4FF4AC71206802F00D
:10A91000D3FB1B49206802F0DFFB206802F04EFCED
:10A920000546374628463946002804DB4A07130EF9
:10A93000144A135408E04A074FEA126C124A00F016
:10A940000F031B1F02F803C000BF00BF206802F006
:10A9500035FC0546284600280DDB00BF00BF00F08F
:10A960001F02012191404209920002F1E022C2F847
:10A97000001100BF00BF00BF00BFBDE8F0810000B4
:10A980001003420000E400E018ED00E030B502469C
:10A9900000201378C3F38003D3B1137803F00303CB
:10A9A000012B02D0022B10D107E01388C3F38313CD
:10A9B0009B1C0C6823440B6008E00B68022514689C
:10A9C00005EB945423440B6000E000BF00BF01205E
:10A9D00030BD2DE9F04704460E469046002722E0A0
:10A9E000384602F00DFB0546384602F010FB814662
:10A9F0002046294642580AB1012200E0002282B1D5
:10AA00004846D4F80413014009B1012100E00021B7
:10AA100039B12946204602F0FFFA2846D6E900213E
:10AA20009047781CC7B24745DADBBDE8F08701469E
:10AA300000220AE0486830F812004FF6FF7398428F
:10AA400001D001207047501C82B208889042F1DC8E
:10AA50000020F7E710B502460B8992F8C60200EB1A
:10AA60008004C4EB801002EB40000089834201DACD
:10AA7000012010BD0020FCE770B50446E2B90D8945
:10AA800094F8C60200EB8006C6EB801004EB400091
:10AA90000089854201D1002070BD0889401C1880C2
:10AAA00094F8C60200EB8005C5EB801004EB400073
:10AAB000008958800120EFE70889401CD588A8420A
:10AAC00001D10020E8E70889401C1880D088401E8A
:10AAD00058800120E0E7014691F85A00C0F3C10018
:10AAE000012805D091F85A00C0F3C100032801D114
:10AAF000012070470020FCE70146086808B10268A1
:10AB00000A60704710B5044622460121002001F07A
:10AB100021FA002105E054F8210008B1012010BD00
:10AB2000491C0029F7D00020F9E7000010B50848BB
:10AB3000007850B1002405E0022C02D02046FDF739
:10AB4000B1FD641C002CF7D001E0FDF7FFFD10BD46
:10AB50000831002010B504460448007800F00100D8
:10AB600018B103480078FDF73BFE10BD043100200A
:10AB70000031002010B502F0CDFA20B902F0F0FA51
:10AB800000200149887010BD603C0020F721018041
:10AB900017214180002101714171FB2181711B212D
:10ABA000C171704770B54FF48041002001F0E4FDA1
:10ABB000044600BF254625B100BF2846FCF744F9EE
:10ABC00000BF00BF01F00AFB70BD70472DE9FF41D7
:10ABD00000272E4800F081F92C48001F00F07DF975
:10ABE0002B48806803902B48056803982840284923
:10ABF0000C3101EB800800BF03A94046FFF7C6FEF9
:10AC000030B10398284022490C3101EB800800E064
:10AC100000E0F1E700BF00240AE00398411C28404F
:10AC200003911B490C3151F820004DF82400641C9D
:10AC3000022CF2D3009800F0030001280DD0022866
:10AC400014D1BDF806700421009801EB9050401E0D
:10AC5000039901EB9000039009E0BDF8067000989D
:10AC6000C0F3831003990844039000E000BF00BFC5
:10AC70000648001F00F02AF9064616B10449039859
:10AC80008860384604B0BDE8F0810000C043002071
:10AC9000A83F0020E83100200024FFF783FF04F0E4
:10ACA000EDFFFDF7F7FFFEF7D3FAFDF7B0FCFFF776
:10ACB000EDFB02F0D9FEFEF755FB04F02FFC05F08A
:10ACC00069FBFCF7EDFA04220021022077DF04463D
:10ACD00000BF254625B100BF2846FCF7B5F800BFE8
:10ACE00000BF0849084A891AC908032242EA0140FC
:10ACF00006A101F08BFC04F083FC00BFFFF7E4FC2D
:10AD0000FCE70000E41503006C150300424C4520ED
:10AD1000554152542063656E7472616C2065786190
:10AD20006D706C6520737461727465642E00000030
:10AD30002DE9FF4F87B0044691461E46A2462546A0
:10AD4000BAF806009AF805104843001F0690BAF8B2
:10AD500006B0301DB0FBFBF00590301DB0FBFBF1E1
:10AD60000BFB11000490D9F800008119069881426C
:10AD700002D90698801B01E0D9F800000746C9F8FF
:10AD8000007003E02D680598401E05900598002886
:10AD9000F8D103900498ABEB0008B84501D93846C8
:10ADA00000E04046804623E003990898084402905A
:10ADB000281D049908440190149828B14246DDE901
:10ADC0000110FBF757FB04E04246DDE90101FBF708
:10ADD00051FB002004902D68A7EB0807039840441E
:10ADE0000390BB4501D9384600E05846804600BF75
:10ADF000002FD9D10BB0BDE8F08F000070B503462D
:10AE00000C469CB101F0DCFC054600220AE0084833
:10AE100000EB820108881E68B04202D11A6000204F
:10AE200070BD521CAA42F2D30520F9E70020F7E7D3
:10AE30000000000010B5044609B90E2010BD92FBB9
:10AE4000F3F003FB102008B10920F7E72160002090
:10AE50006060A060A281E38100BFEFE770B50446A7
:10AE60000D4629462046FBF7D7F918B12A882168F4
:10AE7000881870BD0020FCE770B505460C46208898
:10AE80006188884204D12846FBF708FA012070BD8A
:10AE90000020FCE770B504460D4629462046FBF726
:10AEA000E0F918B16A882168881870BD0020FCE7B5
:10AEB00070B505460C4620886188884204D1284632
:10AEC000FBF7C6F9012070BD0020FCE710B5044671
:10AED0000021204600F013F810BD10B504460121F2
:10AEE000204600F022F810BDF8B504460D466A462B
:10AEF00029462046FBF727FA06460098F8BDF8B524
:10AF000004460D466A4629462046FBF702FA0646E5
:10AF10003046F8BDF8B504460D466A462946204637
:10AF2000FBF7DEF906463046F8BDF8B504460D4697
:10AF30006A4629462046FBF7DFF906460098F8BD29
:10AF4000F8B504460D466A4629462046FBF708FA3E
:10AF500006460098F8BDF8B504460026002000908B
:10AF60006846FCF773F9206800686168884215D963
:10AF700020680068401E226810600178204600F0BA
:10AF800033F80646207A21680978401AC5B220684D
:10AF90000079A84201DA2068057100BF9DF8000021
:10AFA000FCF75AF93046F8BD0246D068081A138AF1
:10AFB000B0FBF3F0C0B27047F8B504460D462E461C
:10AFC000002000906846FCF741F931462046FFF723
:10AFD000EBFF21680A68511C2368196010709DF806
:10AFE0000000FCF739F9F8BD0246138AD06801FB6E
:10AFF0000300704710B5014600BF09B90E2010BD0F
:10B0000000BF087A0B79C01AC2B2D1E900301860CB
:10B0100005E008680368581C0C6820601A70101E50
:10B02000A2F10103DAB2F4D10B68187100BFE6E7B0
:10B0300030B502460B46D40802F0070201209040CA
:10B040001D5D284030BD024600BF0AB90E20704782
:10B0500000BF172901DBF72901DD0720F7E7518041
:10B060000020F4E770B504460E4600BF0CB90E2070
:10B0700070BD00BF2661F72020806080FB2020711A
:10B08000002505E0A11D01EBC500FFF77FFD6D1C4C
:10B09000002DF7D00020EBE72DE9F0470646884663
:10B0A0004546B488012C01DBBDE8F08730882428B0
:10B0B00020D006DC102809D011280CD0232823D159
:10B0C0001DE03A280CD055281ED10EE03146284606
:10B0D00002F0E4FD19E03146284603F01EF814E0C2
:10B0E0003146284603F0E2F80FE03146284603F0E7
:10B0F0001FF80AE03146284602F06EFE05E03146B0
:10B10000284602F011FF00E000BF00BFA81D00EBC1
:10B11000C400007970B3A81D30F834102046A5DFB4
:10B120000746C7B90021A81D00EBC4000171012129
:10B13000A81D00EBC4004171A91D31F8342011494C
:10B14000114BC91AC908042343EA014023460F4999
:10B1500001F072FA12E0112F10D0384601F042FFD0
:10B1600081460849084A891AC908012242EA014071
:10B170004A4600E003E006A101F052FA00BF00BF1A
:10B1800092E70000741503006C150300BC0D03006A
:10B1900073645F626C655F67617474635F65786335
:10B1A00068616E67655F6D74755F726571756573F3
:10B1B0007428292072657475726E65642025732E5B
:10B1C000000000002DE9F04104460F46002500BFB5
:10B1D00014B90E20BDE8F08100BF204603F056FDF3
:10B1E00039462046FDF73DFF06462088B0421CD177
:10B1F0000F49104A891AC908042242EA01403A4616
:10B200000DA101F00DFA2046FFF711FC18B92069D5
:10B2100001F0D5FB054639462046FDF732FF0546CD
:10B2200000BF284600B1D5E700BF2846D2E700009E
:10B230007C1503006C1503005265676973746572B1
:10B24000696E6720636F6E6E656374696F6E2068E8
:10B25000616E646C653A2030782530345800000007
:10B260002DE9F04705460C46904600273B493C4AED
:10B27000891AC908042242EA01403AA101F0C6F93C
:10B2800000BF15B90E20BDE8F08700BF00BF0CB9A4
:10B290000E20F8E700BF284603F0F8FC4146284698
:10B2A000FDF7DFFE06462078062802DA2888B0423D
:10B2B00001D10720E7E706EB8602A96801EB8200CF
:10B2C00001F002FC50B14146204603F0E3FD814607
:10B2D000B9F1000F01D03846D5E700BF20782A49E0
:10B2E00051F8200090B100BF286908B90E20CAE7C4
:10B2F00000BF2178244B53F821202146286990472C
:10B30000074600BF384600B1BDE700BF06EB860226
:10B31000A96801EB8200214601F0F9FB074697B1CD
:10B320002078194951F8200068B1606801F01FFBCE
:10B330000A490B4BC91AC908042343EA014013A167
:10B34000626801F06DF906EB8602A96801EB8200E4
:10B35000414603F019FB384695E700007C150300D1
:10B360006C150300416464696E67206974656D2023
:10B37000746F2074686520726571756573742071CF
:10B38000756575650000000068080300506F696E00
:10B3900074657220746F206672656564206D656DDA
:10B3A0006F727920626C6F636B3A2025702E0000FB
:10B3B000F8B504460F463D4604B105B9F8BD2088EE
:10B3C000112801D1A68810E02088302804DB2088CD
:10B3D0004F2801DCA68808E02088502804DB20885C
:10B3E0006F2801DCA68800E0E8E731462846FDF733
:10B3F00038FE00902888BDF80010884200D1DDE7B3
:10B40000208811280BD14FF6FF70BDF80020696825
:10B4100021F812006946E86801F079FB09E0BDF8FF
:10B42000002002EB8202A96801EB8200314603F0A2
:10B43000ABFA00BFC2E700002DE9F04786B0044632
:10B440000E46B71C04F15A0804F1500994F858A0AC
:10B4500094F84E0010B906B0BDE8F08700F0AEFADF
:10B46000142101A8FBF71FF853464A4641463846C7
:10B470008CDF05461049114A891AC908042242EA9C
:10B4800001400FA101F0C2F805208DF804000295DB
:10B4900009490A4A891AC908042242EA01402A468F
:10B4A0000AA101F0BDF825B1A06E10B101A8A16EEE
:10B4B000884700BFCFE70000841503006C15030028
:10B4C000436F6E6E656374696E670000436F6E6EE6
:10B4D000656374696F6E207374617475733A2025A7
:10B4E000640000004FF4C87256210A520621A0F8E9
:10B4F0005010182252210A52002254210A52704739
:10B5000090F85A1021F00401091D80F85A10A02269
:10B510005C210A5250225E210A52002260210A5206
:10B5200090F85A1021F0180180F85A1001225B217E
:10B530000A5470472DE9F04105460E46144600BFF7
:10B5400015B90E20BDE8F08100BF00BF0CB90E2078
:10B55000F8E700BF16B1032E0CD105E027463946A7
:10B56000284600F089F8EDE727463946284600F0DE
:10B5700027FAE7E70720E5E7014600BF09B90E20F3
:10B58000704700BF01F141030020187001F14B0228
:10B59000107000BFF4E72DE9F04106460C4617464F
:10B5A00000BF16B90E20BDE8F08100BF04F0020014
:10B5B00068B904F0010050B904F0040038B904F08F
:10B5C000100020B904F0080008B90720EBE7304666
:10B5D000FFF7D2FF8046354604F0010010B101208C
:10B5E00085F8410004F0040010B101214B204155C1
:10B5F00085F84C700020D6E770B504460D46164617
:10B6000000BF0CB90E2070BD00BFA6664E212046BB
:10B61000FAF749FFEDB1287984F84E00287B84F8C9
:10B620005800286830B10E2204F15A002968FAF750
:10B6300021FF02E02046FFF763FFA86828B1A86851
:10B6400001682165406860650CE02046FFF74AFF0D
:10B6500008E02046FFF754FF2046FFF743FF002095
:10B6600084F84E0004F16C00C4F88C001F21902077
:10B6700001530020C7E700002DE9F04704460F46BC
:10B6800004F140063846FAF719FF00F0FF08B8F158
:10B69000000F02D0B8F1200F02DD0C20BDE8F087CA
:10B6A0003078022801DB0420F8E7002509E004EBEC
:10B6B00045103946FAF709FF08B90020EEE7681C83
:10B6C000C5B2022DF3DB3846FAF7F8FE8146327830
:10B6D000511C317004EB42104A463946FAF7CAFE53
:10B6E0000649074A891AC908042242EA01403A4633
:10B6F00004A100F095FF0020D0E7000084150300AE
:10B700006C150300416464696E672066696C74653A
:10B7100072206F6E202573206E616D650000000041
:10B720002DE9F04F85B004460D4600260027142170
:10B730006846FAF7B8FE04F15A0004902046FFF775
:10B74000CAF988B102208DF8000001956846A16E03
:10B75000884704F18C0100208ADF29462046FFF744
:10B760006BFE05B0BDE8F08F94F84C804FF00009F7
:10B7700094F841A094F84BB0BAF1000F11D0701CAE
:10B78000C6B221462846FBF793FA50B1781CC7B2DF
:10B790009DF8080020F00100401C8DF808004FF0D3
:10B7A0000109BBF1000F11D0701CC6B2214628461A
:10B7B000FBF7B3FA50B1781CC7B29DF8080020F02F
:10B7C0000400001D8DF808004FF001090195B8F143
:10B7D000000F09D0B74207D100208DF8000029469C
:10B7E0002046FFF729FE11E0B8F1000F0AD1B9F1A8
:10B7F000000F07D000208DF8000029462046FFF7F3
:10B800001BFE03E003208DF800000195A06E10B12F
:10B810006846A16E884704F18C0100208ADF00BFD2
:10B820009FE72DE9F04104460D462E4604F1080736
:10B8300004F10408208810280DD01B2806D01D28EC
:10B840000ED139463046FFF76BFF0AE041463046DD
:10B8500000F024F805E04146304600F005F800E02D
:10B8600000BF00BFBDE8F08130B585B004460D468D
:10B8700014216846FAF717FE06208DF80000281DEF
:10B8800001902988ADF8081004F15A000490A06EC8
:10B8900010B16846A16E884705B030BD70B586B05E
:10B8A00004460D462E1D142101A8FAF7FCFD307840
:10B8B000012817D10C490D4A891AC908042242EA05
:10B8C00001400BA100F0A2FEA06E58B104208DF83B
:10B8D000040004F15A00059030788DF8080001A8A2
:10B8E000A16E884706B070BD841503006C15030077
:10B8F000424C455F4741505F5343414E5F54494D71
:10B90000454F55540000000030B585B0044600BFD7
:10B9100014B90E2005B030BD00BF14216846FAF7F7
:10B92000C2FD00F04BF82046FFF7D5F838B1A06E05
:10B9300028B101208DF800006846A16E884704F107
:10B940008C0104F15A008ADF0546082D0DD065B13F
:10B950000C490D4A891AC908012242EA01402A46C7
:10B960000AA100F05DFE2846D4E70649064A891A76
:10B97000C908042242EA01400DA100F047FE002060
:10B98000C8E70000841503006C15030073645F6250
:10B990006C655F6761705F7363616E5F7374617222
:10B9A000742072657475726E656420307825780035
:10B9B0005363616E6E696E67000000008BDF704735
:10B9C0002DE9F04107460C4607F1420807F14A0508
:10B9D0002878022802DB0420BDE8F081002608E078
:10B9E00038F826002188884201D10020F4E7701C35
:10B9F000C6B2022EF4DB2978481C287008EB8100BF
:10BA00002168016022880649064BC91AC908042327
:10BA100043EA014004A100F003FE0020DCE700003F
:10BA2000841503006C150300416464656420666935
:10BA30006C746572206F6E2055554944202578003E
:10BA400001464FF08040405808B101207047002067
:10BA5000FCE708B500224FF080410A5009580091D8
:10BA600000BF08BD0149086070470000080300409E
:10BA7000012291070A50704710B500240F48007842
:10BA800008B1852411E000200C49886048600861F5
:10BA9000C8600B4801F052FB044601F0E1F908B917
:10BAA00001F042FB01200549087001F033FB10B1A1
:10BAB000012002498870204610BD0000603C002033
:10BAC0001590020008B5002000906846FBF7BEFB09
:10BAD0000748C068401E0649C8600846C06808B9E3
