:020000040002F8
:1060000060680020C5630200CD630200CF63020018
:10601000D1630200D3630200D563020000000000D8
:10602000000000000000000000000000D763020034
:10603000D963020000000000DB630200DD630200A0
:106040009D660200DF6302008D6A0200DF630200CA
:10605000DF630200DF630200AD650200DF63020060
:10606000DF630200756A0200DF630200DF63020083
:10607000DF630200DF630200DF630200DF63020010
:10608000DF630200F1660200DF630200DF630200EB
:10609000DF630200DF63020095670200DF63020036
:1060A000DF630200DF630200DF630200DF630200E0
:1060B000DF630200DF630200000000000000000058
:1060C000DF630200DF630200DF630200DF630200C0
:1060D000DF630200DF630200DF63020000000000F4
:1060E00000000000000000000000000000000000B0
:1060F00000000000000000000000000000000000A0
:10610000000000000000000000000000000000008F
:10611000000000000000000000000000000000007F
:10612000000000000000000000000000000000006F
:10613000000000000000000000000000000000005F
:10614000000000000000000000000000000000004F
:10615000000000000000000000000000000000003F
:10616000000000000000000000000000000000002F
:10617000000000000000000000000000000000001F
:10618000000000000000000000000000000000000F
:1061900000000000000000000000000000000000FF
:1061A00000000000000000000000000000000000EF
:1061B00000000000000000000000000000000000DF
:1061C00000000000000000000000000000000000CF
:1061D00000000000000000000000000000000000BF
:1061E00000000000000000000000000000000000AF
:1061F000000000000000000000000000000000009F
:10620000DFF810D000F094F9004800477DB3020099
:10621000AFF300806068002030B450E8012F93B2E3
:10622000C48923448489A34228BF1B1B0489A34239
:1062300002BFBFF32F8F002007E0C3EA020340E84C
:106240000134002CE9D14FF001000A6030BC7047E6
:1062500050E8012FC2EA024240E801210029F7D1AB
:10626000704730B450E8022F1FFAA2F3C488A3424B
:1062700002BFBFF32F8F00200DE0C489234484891F
:10628000A34228BF1B1BC2EA034340E80234002C90
:10629000E8D14FF001000A6030BC704750E8022F8F
:1062A000C2EA224240E802210029F7D170470346A2
:1062B00053E8022FD988B2EB324F4FF0000017BFDE
:1062C00092B241EA014142EA014104E05A68B2EB6C
:1062D000324F08BF012043E80212002AE8D170477C
:1062E00030B4044654E8000F0D4644E80053002B38
:1062F000F8D1156030BC704730B4044654E8000F44
:1063000040EA010544E80053002BF7D1156030BC8A
:10631000704730B4044654E8000F00EA010544E831
:106320000053002BF7D1156030BC704730B40446E1
:1063300054E8000F80EA010544E80053002BF7D130
:10634000156030BC704730B4044654E8000F00EBD1
:10635000010544E80053002BF7D1156030BC7047AD
:1063600030B4044654E8000FA0EB010544E80053A4
:10637000002BF7D1156030BC704770B404464FF065
:10638000000054E8006F0D68AE4207BF44E80023E8
:10639000012044E800630E60002B1CBF0020F0E7E2
:1063A00070BC704730B4044654E8000F88422CBFDC
:1063B000451A054644E80053002BF5D1156030BC62
:1063C000704700000648804706480047FEE7FEE7A2
:1063D000FEE7FEE7FEE7FEE7FEE7FEE7FEE7FEE795
:1063E000DD670200016202002DE9F05F0546002032
:1063F00092469B4688460646814640241BE0284636
:1064000041464746224600F020F853465A46C01AF5
:10641000914110D311461846224600F07AF82D1A01
:1064200067EB01084F4622460120002100F071F879
:1064300017EB00094E41201EA4F10104DFDC4846A1
:1064400031462A464346BDE8F09F202A04DB203A25
:1064500021FA02F00021704721FA02F3D040C2F184
:1064600020029140084319467047000000487047D9
:106470003C1D030040EA01039B0703D009E008C963
:10648000121F08C0042AFAD203E011F8013B00F8F9
:10649000013B521EF9D27047D2B201E000F8012B45
:1064A000491EFBD270470022F6E710B513460A4694
:1064B00004461946FFF7F0FF204610BD421C10F8B5
:1064C000011B0029FBD1801A704710B5002200E0A3
:1064D000521C835C8C5CA34201D1002BF8D1D8B252
:1064E000E1B2401A10BD30B504460020034600E07A
:1064F0005B1C934203D2E05CCD5C401BF8D030BD06
:10650000034611F8012B00F8012B002AF9D1184697
:106510007047202A04DB203A00FA02F1002070477D
:106520009140C2F1200320FA03F3194390407047D1
:10653000064C074D06E0E06840F0010394E80700D0
:1065400098471034AC42F6D3FFF75EFEF026030006
:106550001027030070B58C1810F8015B15F00703C5
:1065600001D110F8013B2A1106D110F8012B03E0EC
:1065700010F8016B01F8016B5B1EF9D12B0705D4F4
:106580000023521E0DD401F8013BFAE710F8013B3D
:10659000CB1A921C03E013F8015B01F8015B521E59
:1065A000F9D5A142D8D3002070BD00002DE9F84FE5
:1065B0000026002000904FF480770125002410E091
:1065C000384606F0A9FB40B100BF254800682840C6
:1065D00018B1384606F092FB2E436D00381D87B285
:1065E000641C082CECD34FF4BE7006F095FB50B140
:1065F0004FF4BE7006F082FB46F000466A46012169
:10660000002006F027FBF0B210B3012500241DE0A6
:1066100005EA0600C0B100BF124850F82400C0F3DC
:106620000420814600BF0F4850F82400C0F3014009
:106630008246204602F0AAFC8046B8F1000F02D044
:1066400051464846C04700BF6D00641C082CDFD38C
:1066500006F0004010B1684608F0ACFFBDE8F88FC6
:10666000046300401065004000487047A8380020CF
:1066700000487047A838002000487047AA3800201A
:1066800000487047AB380020014800787047000090
:106690000931002000487047A938002010B54FF498
:1066A000807005F077FD80B14FF4807005F07BFDC0
:1066B000012005F081FD0D48407930B901200B49DA
:1066C000487108460168002088474FF4827005F041
:1066D00061FD50B14FF4827005F065FD022005F0B8
:1066E0006BFD024801680120884710BD8C310020F5
:1066F00010B5034A1068034A1168884710BD0000AE
:10670000E4310020E031002010B500F0C7F910BDE1
:106710002DE9F047074688461646C24607EB470173
:106720001B4800EBC109D9F8140020B1012811D091
:10673000022826D11EE0484600F0E8F90546B54299
:1067400001D2002405E0344632465146484600F066
:1067500024FA18E0484600F0D9F90546B54201D2BE
:10676000284600E03046044622465146484600F09E
:1067700014FA08E032465146484600F0D5F904467E
:1067800001E0002400BF00BF2046BDE8F087000004
:10679000F045002010B507F0FDF910BD10B5044616
:1067A00008480078C0F3801000B110BD0AF008FE60
:1067B000802221460448FFF75DFE0AF089F800BFF9
:1067C000F3E70000B02A00202839002001480249E0
:1067D000086070470090D0035832002010B503F0D5
:1067E00025F928B192480088C0F304209149086037
:1067F00003F070F910B190489049486703F092F99E
:1068000030B18B48E0380068C0F342308C490860F2
:1068100003F0B2F928B18B48006820F080708949F4
:10682000086003F0C1F948B10020874908604FF0C3
:106830008041C1F810018249091F086003F0DEF9A8
:1068400018B103207E496431086003F0EFF968B1A4
:1068500005207E49086001207C49783108600020CD
:106860007A49083108603F20091F086003F0F6F9F3
:10687000002855D06E48E0300068754908606C48C3
:10688000E4300068091D08606948E8300068091DA7
:1068900008606748EC300068091D08606448F03003
:1068A0000068091D08606248F4300068091D08602E
:1068B0005F48F83000686649203108605C48FC3069
:1068C0000068091D086063480068091D0860614888
:1068D000001D0068091D08605E4808300068091D39
:1068E00008605C480C300068091D08605948103089
:1068F0000068574940310860564814300068091D47
:106900000860544818300068091D086051481C3060
:106910000068091D08604F4820300068091D0860A4
:1069200003F05AF830B14248CC38006800F04F000C
:106930004949086003F0A4F840B14848006800F0F5
:10694000010018B16FF001004449086003F0DAF863
:1069500028B14348006840F48060414908603948E4
:106960007438006840F4700036497439086000BF1C
:1069700000BF00BFBFF34F8F00BF00BF00BF00BF0D
:1069800000BF00BFBFF36F8F00BF00BF00BF35481F
:10699000006800F0004028B93248001D006800F08F
:1069A0000040E8B301203049086000BF2F4800686C
:1069B0000028FBD015202B49086000BF2B48006839
:1069C0000028FBD015212748001D016000BF274883
:1069D00000680028FBD000202349086000BF23483E
:1069E00000680028FBD000BF00BF00BF00BF00BF91
:1069F000BFF34F8F00BF00BF00BF1248F0380068E0
:106A000000F4E0601A490843001D0E49F03908609F
:106A100000BF00BF00BFBFF34F8F00BF00BF00E04B
:106A200003E000BF00BF00BFFDE7FFF7CFFE10BDD2
:106A300024030010403501400DF0ADBA00C00740FE
:106A40003C050040FCED00E00C0100401056004009
:106A500020C5004024040010E40E00400004004063
:106A60003C1700400012001004E5014000E4014022
:106A70000000FA0510B504220249034804F011FB96
:106A800010BD00005C3E00200090004010B502499F
:106A90000868804710BD00009431002010B5124CEA
:106AA00002202061606111A0A0611349E1614FF4EF
:106AB000007121620021A1626162E1620BA0A06409
:106AC0000E49E164102121650021A1656165E16540
:106AD0000BA1E01DFFF714FD0AA12046FFF710FDF2
:106AE0002020A07110BD0000D84500205465726DB3
:106AF000696E616C00000000504600205048002084
:106B000052545400534547474552000010B50146C2
:106B10000A69CB689A4204D88C68641EE41AA018EB
:106B200001E0D41A601E10BD2DE9F04704468946E5
:106B300017464FF0000AE56800BFD4F81080A8455A
:106B400003D9A8EB0500461E04E0A5EB0800401C95
:106B5000A1680E1AA068401BB04201D9304601E07E
:106B6000A068401B0646BE4201D2304600E03846CF
:106B700006466168481932464946FFF77BFCB24435
:106B8000B144BF1B3544A068A84200D10025E56090
:106B9000002FD2D15046BDE8F0872DE9F0470446DA
:106BA00089461546E668A068871BAF4208D9616828
:106BB00088192A464946FFF75DFC7019E06010E02D
:106BC000B8466168881942464946FFF753FCA5EB71
:106BD000070809EB070142466068FFF74BFCC4F861
:106BE0000C80BDE8F08702E008C8121F08C1002A27
:106BF000FAD170477047002001E001C1121F002A3E
:106C0000FBD170470146202908DA012088400A4A52
:106C1000104008B1012070470020FCE7402909DA44
:106C2000A1F12000012202FA00F008B10120F2E7F0
:106C30000020F0E70120EEE7FC06FFBD00BFEFF308
:106C40001081084672B6704730B502465068831C02
:106C5000002125E001EB4110134C14F81000E8B9B5
:106C600001EB4114104D05EB440001240470002495
:106C700044705468E47C80F83D401C68C0F836409D
:106C80009C8844879C7980F83C404FF6FF74C48709
:106C9000064C2478641C054D2C7030BD481CC1B2D4
:106CA0000A29D7DB00BFF8E7AC3200205C2A0020BD
:106CB000014601F0030008B9012070470020FCE7FD
:106CC000024650680068401E084008B9012070471D
:106CD0000020FCE710B50346D868884206D888181B
:106CE000401E1C69A04201D8012010BD0020FCE715
:106CF0002DE9F04704460D462F4695F84080B4F83C
:106D00001C9000260BE007EB46124946A06900F0F4
:106D100097FB10B10120BDE8F087701CC6B2464554
:106D2000F1DB0020F7E7F0B505460B4600215C6873
:106D30000EE0665C481C275CAF4206D1881C2044EC
:106D40005060701E10800020F0BD701C014400BF18
:106D500018888842EDD80520F6E72DE9F05F064651
:106D60000C4604F1420A94F84C504A2010F8049062
:106D70004FF00008B6F81CB0002710E00AEB8702BD
:106D80005946B06900F0B1FB28B108F1010000F0EC
:106D9000FF0815B905E005B103E0781CC7B24F45FF
:106DA000ECDB00BF0DB1C84503D02DB9B8F1000F21
:106DB00002DD0120BDE8F09F0020FBE710B504468E
:106DC000022001F08BFC10BD10B572B600BF06F0BA
:106DD00093FB00BF00BF06F095F80028FBD100BF71
:106DE00000BF1E491E4A891AC908012242EA014011
:106DF0001CA106F08BFA00BF1D48006800F00100DE
:106E000000B100BE00BF1549154A891AC9080222FF
:106E100042EA014017A106F079FA00BF00BF00BFA7
:106E200000BF00BFBFF34F8F00BF00BF00BF1048BF
:106E3000E438006800F4E06012490843001D0C4982
:106E4000E439086000BF00BF00BFBFF34F8F00BF31
:106E500000BF00BF00BF00BFFDE70000A027030088
:106E600020270300466174616C206572726F7200A6
:106E7000F0ED00E053797374656D2072657365748D
:106E8000000000000000FA053EB504460020009016
:106E90000190029002946A46002144F20100FFF73B
:106EA00093FF3EBD0146C86888600020704770B5FA
:106EB00004460D46204603F0DDF928B12946204658
:106EC00003F0CCF9002070BD0520FCE7034609B9AA
:106ED0000E20704712B1501E104008B10920F8E78B
:106EE0001960501E988000209860D86000BFF0E7BD
:106EF00070B504460D46204603F0BCF9A1888842CF
:106F000005D82946204603F0C8F9002070BD0420AA
:106F1000FCE7000010B5024802F0E8FB10BD0000DD
:106F2000A031002030B503460C460AB9072030BD19
:106F300019684FF0FF358D60CD604A61012C01D199
:106F4000012000E0002008610020F0E738B5144877
:106F5000006800900823A82212491348006804F032
:106F600000FB04460CB1204638BD104A6946104863
:106F700002F0C2FB04460CB12046F5E701210C48A3
:106F800002F060FC01230B4A1946094802F080FB1D
:106F9000074802F068FC0120074908702046E3E733
:106FA000D01903008C3E0020C0190300EDFF020041
:106FB000A0310020FFFF7F00AC3100202DE9F84315
:106FC00006460D469046344600200090684600F084
:106FD0005DF94FF0FF33D4E90210594058400143A6
:106FE00008D103F09BFE401941F10001C4E9020100
:106FF000012700E000279DF8000000F04DF917B9C7
:107000000020BDE8F883C4F81880206900B125612C
:107010002146002009F0BCFEF3E7F8B504462546FA
:1070200000200090684600F031F94FF0FF33D5E9B9
:10703000021059405840014301D1002604E04FF0AE
:10704000FF31A960E96001269DF8000000F024F9F5
:107050000EB90020F8BD2946012009F099FEF9E794
:1070600010B5054A01210548FFF75CFF044A0021DD
:107070000448FFF757FF10BDDF1203001818030084
:107080006D1403001C18030010B50A4C20780A493F
:10709000085C18B1201D07F063FB07E02078064963
:1070A000085C18B904F10C0007F0E2F900BF0020F9
:1070B00010BD0000C43100208831002010B50A48FE
:1070C000FFF7F0FE044600BF204600B110BD00BF30
:1070D0000648FFF7E7FE044600BF204600B1F5E78B
:1070E00000BF0020F2E70000443F0020543F002092
:1070F0002DE9F04104460F48077821460E48FFF776
:10710000D6FE804697B100200A49087001220B493B
:107110000B4805F0DFF8054600BF2E4626B100BF3C
:107120003046FFF7B1FE00BF00BF00BF4046BDE8DC
:10713000F0810000DE310020443F0020DD310020DE
:10714000C43100202DE9F04188B004460E461746B0
:1071500098462B4807601EB9072008B0BDE8F081AB
:10716000B08882B227483168FFF7B0FE054600BFFD
:10717000284600B1F1E700BFB08982B22248B16869
:10718000FFF7A4FE054600BF284600B1E5E700BFB3
:1071900020221E496846FFF76DF960690690207C41
:1071A00008B1012000E000208DF814008DF81C804B
:1071B000607C08B10E2000E000208DF81500E0682A
:1071C0000290A06803902068019060680090104AC7
:1071D0006946104805F038F8054600BF284600B15A
:1071E000BBE700BF00200C4908702068401C28B194
:1071F00001220A49074805F06DF8AEE70020ACE728
:10720000D8310020443F0020543F0020D41903000F
:1072100019100300C4310020DE310020DD310020D0
:107220002DE9F041054629461448FFF761FE064660
:1072300006BB134C002720781249085C20B1201DA2
:1072400007F07EFA074608E020780E49085C20B96E
:1072500004F10C0007F0FAF8074600BF57B90A49D5
:107260000648FFF724FE28B901220749044805F023
:1072700053F806463046BDE8F0810000543F002038
:10728000C431002088310020DC31002010B50446D4
:10729000204609F0FFF910BD70B5044625460E489A
:1072A0008068B0B1ADB9FFF7C9FC06460A4800686E
:1072B0000A490860084840684FF0E021C1F804011D
:1072C0000020054988601EB900BF62B600BF00BF3C
:1072D00000BF00BF70BD0000643F002000E100E07F
:1072E00070B500224FF4804107480068FFF766FE42
:1072F000044600BF254625B100BF2846FFF7C4FD60
:1073000000BF00BF70BD0000E417030070B5054664
:107310000C462068401C28B1206805F0B5FC2068A8
:1073200005F066FC6068401C18B10021606805F03B
:1073300045FC2868A169C0F8241500BF617D227D45
:10734000286841EA0203C0F86C3500BFD4E9001296
:10735000286806F065FD207D012814D1A068401C36
:1073600018B10021A06805F029FCE068401C28B194
:10737000E06805F089FCE06805F03AFCD4E90221F8
:10738000286806F036FD70BD70B505460C462068CD
:10739000401C28B1206805F082FC206805F034FC10
:1073A0006068401C18B10021606805F014FC286872
:1073B000A169C0F8241500BF617D227D286841EADB
:1073C0000203C0F86C3500BFD4E90012286806F04B
:1073D0005FFD207D012814D1A068401C18B1002158
:1073E000A06805F0F8FBE068401C28B1E06805F0F3
:1073F00056FCE06805F008FCD4E90221286806F094
:1074000028FD70BD002114E00C48D0F810240123A1
:1074100008E000BFD0680079884201D1002303E072
:10742000D0680268002AF4D100BF0BB1084670474B
:10743000491C0A29E8DB4FF0FF30F8E7B84100208B
:107440002DE9F843064688461546002000900DB900
:10745000BDE8F88309236A464146304600F017F834
:107460000446BDF800003718BDF8000068B164B1EB
:107470002846FFF723F8A04207D12246394628467E
:10748000FFF731F808B90120E2E70020E0E7F0B5A6
:1074900004460D461E4604B10AB90020F0BD002185
:1074A00003E0605C401C084481B2481CA84206DA34
:1074B00010888842F5DC481C205CB042F1D1A9421A
:1074C00001DB0020EAE7881C87B2605C10B1605CD9
:1074D000401E00E0002083B213B1F818A84201DD7D
:1074E0000020DBE717801846D8E72DE9F04788B081
:1074F00004460E4617460020079010200690B2461C
:1075000002AA06A9384664DF814614B1B9F1000F1A
:1075100003D0002008B0BDE8F0879DF818000228CD
:1075200004D0042809D0102815D10DE003208DF8CF
:10753000040002208DF805000FE005208DF80400FE
:1075400004208DF8050008E007208DF804000620CF
:107550008DF8050001E00020DCE700BF002509E010
:1075600001A8435D07AA31462046FFF790FF8246F7
:10757000681CC5B2022D03DABDF81C000028EFD04C
:10758000BDF81C0008B90020C4E7BDF81C0004EBDE
:10759000000800250DE008EB05009DF8182002A961
:1075A000FEF7A1FF08B90120B4E79DF818002844B0
:1075B00085B25545EFDB0020ACE7000010B504466E
:1075C00000BF0CB90E2010BD00BF00BF06480078F8
:1075D000012801D00820F6E700BF044801682046D2
:1075E00008F078FBEFE700007C31002070310020CC
:1075F0000146002200BF09B90E20704700BF00BF3E
:10760000086808B90E20F8E700BF00BF486808B94D
:107610000E20F2E700BF0020064B18600120064B49
:107620001870064B08681860054B486818601046CB
:10763000E3E70000783100207C3100207031002029
:107640007431002070B504460D4600BF04B970BD0A
:1076500000BF00BF05B9FAE700BF00BF14480078BB
:10766000012800D0F3E700BF2E462088112815D04E
:10767000302804D0322807D0332814D109E0211D46
:10768000304607F0F5FD0FE0211D304607F0D8F831
:107690000AE0211D304607F055FB05E0211D30466C
:1076A00007F0F4FB00E000BF00BF00BFCFE7000021
:1076B0007C31002070B504460D4600BF0CB90E2089
:1076C00070BD00BF00BF0B480078012801D0082022
:1076D000F6E700BF0848006808B90820F0E794F80A
:1076E000C80208B11120EBE72946204601F048FF07
:1076F000E6E700007C310020783100202DE9F041E0
:1077000007460C46207820B101283BD0022851D1F1
:107710003DE02A492A4A891AC908032242EA01405F
:1077200028A105F0F3FD618804F10E02384600F04F
:1077300071F8054600BF2E4626B100BF3046FFF760
:10774000A3FB00BF00BF384600F052F9054600BF5A
:107750002E4626B100BF3046FFF796FB00BF00BFA4
:107760001649174A891AC908032242EA01401AA198
:1077700005F0CCFD2248006820F00100401C2049A3
:10778000086017E0A189A06800F048F912E00B49F1
:107790000B4A891AC908032242EA014019A105F0DF
:1077A000B5FD08F0C9FE1648006820F00100144934
:1077B000086000BF00BFBDE8F0810000A027030003
:1077C00020270300446973636F7665727920636FC5
:1077D0006D706C6574652E00436F6E6E65637465C5
:1077E0006420746F206465766963652077697468C6
:1077F0002044465520536572766963652E0000006B
:10780000B02A0020446973636F6E6E6563746564AB
:107810002E00000070B504460E46154600BF0CB998
:107820000E2070BD00BF66802DB16988E180288878
:10783000A080A98821813146606904F06DF8F0E7E5
:1078400070B586B004460D461B4B0FCB01AE0FC67C
:1078500000BF14B90E2006B070BD00BF00BF0DB947
:107860000E20F8E700BF00BFA86808B90E20F2E7B5
:1078700000BF214601A862DF064600BF304600B1C6
:10788000E9E700BF00BF01208DF816004FF65960F0
:10789000ADF8140000BF4FF6FF7060802868E0600C
:1078A000686820610020A08000212181A8686061B3
:1078B00005A8FFF783FECEE71019030070B586B068
:1078C00005460E46344604B10DB906B070BD608859
:1078D0004FF6FF71884203D06088A988884200D0A3
:1078E000F3E72888112806D0392816D129462046E2
:1078F00007F038FC12E0A888618888420CD1E06863
:1079000050B102208DF804004FF6FF70608001A98D
:107910002046E268904700BF00E000BF00BF00BF04
:10792000D3E70000F0B585B007460C461421684641
:10793000FEF7B9FD04F10E062078002849D1A08891
:107940004FF65961884244D1A079012841D10025E0
:1079500030E005EBC50036F81000012802D00228FF
:1079600017D10EE005EBC50006EB40000089ADF82D
:107970000E0005EBC50006EB40004189ADF8101084
:1079800016E005EBC50006EB40000189ADF81210CA
:107990000EE005EBC50136F811200F490F4BC91A4F
:1079A000C908032343EA01400DA105F0B9FC00BF5B
:1079B00000BF6D1C207AA842CBD8F86848B10020DF
:1079C0008DF800006088ADF8020069463846FA6814
:1079D000904705B0F0BD00004827030020270300B2
:1079E0004E6F7420666F756E64202564200D0A004A
:1079F00010B5044600BF0CB90E2010BD00BF608852
:107A00004FF6FF71884201D0E08808B90820F4E7FA
:107A10000121204601F0C8F9EFE7000070B50446E7
:107A20000D469E499E4A891AC908042242EA01402D
:107A30009CA105F06BFC9949994A891AC90804224E
:107A400042EA01402A46214605F0EAFB20786028F8
:107A50000AD09249924A891AC908012242EA014091
:107A600095A105F053FC70BD6078072873D2DFE85C
:107A700000F0720440411A727B00A078012803D103
:107A80000220954908700DE0A2788449844BC91AF8
:107A9000C908012343EA014090A105F041FCFF2001
:107AA0008D490870F6E0A078012813D19648007837
:107AB000012803D105208849087019E09248007810
:107AC000022803D1FE208449087011E0FF2082497A
:107AD00008700DE0A2787149714BC91AC9080123D9
:107AE00043EA01407DA105F01BFCFF207A490870A4
:107AF000D0E0CFE0A078012835D18448D4F8031035
:107B00004160D4F807100161002241688048006894
:107B100001F004FB7F4908607C48006909688842DD
:107B20001ED17948007801280AD17B48007818B125
:107B300004206949087016E002206749087012E0C5
:107B40007148007802280ED17448007820B10920CD
:107B50006149087007E092E007205F49087002E081
:107B6000FF205D49087095E0A078012875D167482D
:107B700054F8031F016061684160A168E41E01615F
:107B800001206749087060480078012838D1002238
:107B9000644801685E48006801F0C0FA5D49086009
:107BA0005A4840685F490968884205D157480069CA
:107BB0005849096888421FD05448002241685448F7
:107BC000006801F0ABFA534908605048406858B16A
:107BD0004E48406853490968884205D84B480069B7
:107BE0004C490968884203D001203B4908700EE0E7
:107BF0000220394908700AE003203749087006E07E
:107C000041480078022802D0FF20334908703F49DC
:107C10000A682249224BC91AC908032343EA0140D2
:107C200041A105F07DFB39494A681C491C4BC91A22
:107C3000C908032343EA014040A105F071FB334921
:107C40000A691649164BC91AC908032343EA0140B9
:107C50003EA105F065FB11E0FFE7A2780F49104B4C
:107C6000C91AC908012343EA01403CA105F058FBA9
:107C700000202B490870FF20174908700AE00749C7
:107C8000074A891AC908022242EA01403EA105F0CA
:107C90003DFB00BF00BF00BFE5E60000A0270300DA
:107CA00020270300526563656976696E6720646604
:107CB0007520646174612E00424C45204446552075
:107CC0004F5020434F4445204E4F5420524553506F
:107CD0004F4E534500000000392A0020424C4520F9
:107CE000444655206F7020636F6465206372656140
:107CF0007465206F626A65637420726573756C7455
:107D00003A20256400000000662A0020703200201E
:107D1000502A00204C2A0020642A0020652A0020D6
:107D2000382A0020402A00206D61782073697A6526
:107D3000203D202564200D0A000000006F66667358
:107D40006574203D202564200D0A000063726333B2
:107D500032203D202564200D0A000000424C4520C1
:107D6000444655206F7020636F64652073656C65B1
:107D70006374206F626A65637420726573756C74D6
:107D80003A202564000000005265636569766564E9
:107D900020756E737570706F72746564204F50201B
:107DA000636F64650000000070B588B004460E463D
:107DB000154600BF14B90E2008B070BD00BF2021C9
:107DC0006846FEF770FBF42D0BDD1C491C4A891A2E
:107DD000C908022242EA01401AA105F097FA0720D9
:107DE000EAE760884FF6FF7188420BD11349144AC5
:107DF000891AC908022242EA014017A105F086FA51
:107E00000820D9E701208DF800001A480290039459
:107E1000A188ADF81210ADF816500021ADF814107D
:107E2000069601208DF8100001218DF8111062884E
:107E30006946606903F0BEFDBEE700004827030005
:107E400020270300436F6E74656E7420746F6F207B
:107E50006C6F6E672E000000436F6E6E6563746911
:107E60006F6E2068616E646C6520696E76616C6906
:107E7000642E0000797E02002DE9F04106460C4692
:107E8000174625460849094A891AC908042242EAC0
:107E900001403A4606A105F043FA286910B1304680
:107EA00029698847BDE8F08148270300202703009F
:107EB00041204741545420436C69656E74206572BB
:107EC000726F7220686173206F636375727265648C
:107ED000206F6E20636F6E6E5F68616E646C653AD2
:107EE000203058255800000070B588B004460E4672
:107EF000154600BF14B90E2008B070BD00BF202188
:107F00006846FEF7D0FAF42D0BDD1C491C4A891A8D
:107F1000C908022242EA01401AA105F0F7F9072038
:107F2000EAE760884FF6FF7188420BD11349144A83
:107F3000891AC908022242EA014017A105F0E6F9B0
:107F40000820D9E701208DF800001A480290039418
:107F50002189ADF81210ADF816500021ADF81410BB
:107F6000069601208DF8100001218DF8111062880D
:107F70006946606903F01EFDBEE700004827030064
:107F800020270300436F6E74656E7420746F6F203A
:107F90006C6F6E672E000000436F6E6E65637469D0
:107FA0006F6E2068616E646C6520696E76616C69C5
:107FB000642E0000797E02002DE9F84F05468B46BD
:107FC0002E1D06F1040A28881F287DD008DC102801
:107FD0000DD0112863D0132877D01B2876D18EE0DE
:107FE000212874D03B2873D05628F7D1E5E081488A
:107FF000006820F00100401C7E490860072000F066
:10800000EDFB044600BF274627B100BF3846FEF708
:108010003BFF00BF00BF504602F048FE8046B8F16B
:10802000FF0F2DD0404602F021FE07463FB301204E
:10803000B870A888F887787880B1A98800226E483F
:10804000FFF7E8FB044600BFA146B9F1000F04D0DA
:1080500000BF4846FEF718FF00BF10E0A9880022C5
:10806000664800F0BBF9044600BFA146B9F1000F15
:1080700004D000BF4846FEF707FF00BF00BF00BFA7
:10808000A9885F48FFF716FB044600BF274627B1C3
:1080900000BF3846FEF7F8FE00BF00BFA6E0554817
:1080A000006820F0010053490860FF20554908701E
:1080B000504602F0FBFD0746FF2F10D0384602F075
:1080C000D5FD0021817004E037E026E08DE042E03C
:1080D0005BE0384602F0CAFD4FF6FF71C187337985
:1080E00032884949DFF824C1A1EB0C01C9084FF0DF
:1080F000030C4CEA014046A105F01EF976E0307908
:10810000022809D14049414A891AC908032242EA92
:1081100001404BA105F0FAF868E0A88800231A4650
:1081200085217FDF044600BF274627B100BF3846C0
:10813000FEF7AAFE00BF00BF58E03088311D75DF92
:10814000044600BF274627B100BF3846FEF79CFE15
:1081500000BF00BF4AE02C492C4A891AC9080422F2
:1081600042EA01403EA105F0D1F800200090A88825
:1081700069468FDF044600BF274627B100BF384657
:10818000FEF782FE00BF00BF30E01F491F4A891A78
:10819000C908042242EA014036A105F0B7F8A888D0
:1081A000132176DF044600BF274627B100BF3846BB
:1081B000FEF76AFE00BF00BF18E01349134A891A90
:1081C000C908042242EA014030A105F09FF8A888BE
:1081D000132176DF044600BF274627B100BF38468B
:1081E000FEF752FE00BF00BF00E000BF00BFBDE8C9
:1081F000F88F0000B02A002058360020703600208A
:10820000B82A0020552A0020A027030020270300B9
:10821000446973636F6E6E65637465642E20636F6B
:108220006E6E5F68616E646C653A20307825782CDC
:1082300020726561736F6E3A2030782578000000F7
:10824000436F6E6E656374696F6E205265717565FC
:1082500073742074696D6564206F75742E0000005E
:108260005048592075706461746520726571756538
:1082700073742E004741545420436C69656E74201A
:1082800054696D656F75742E0000000047415454A9
:10829000205365727665722054696D656F75742E12
:1082A000000000002DE9F04107460C46207820B17F
:1082B000012834D0022859D14BE02E492E4A891A80
:1082C000C908032242EA01402CA105F01FF8618889
:1082D00004F10E02384600F081F8054600BF2E4634
:1082E00026B100BF3046FEF7CFFD00BF00BF3846C5
:1082F00000F0ACF9054600BF2E4626B100BF30465F
:10830000FEF7C2FD00BF00BF1A491B4A891AC908FF
:10831000032242EA01401EA104F0F8FF26E080217A
:108320002748FEF7C0F8A2892548A168FEF7A2F801
:10833000A0892349A1F880002248006820F00800A5
:1083400008302049086020480088401C1E490880E9
:108350000CE00849084A891AC908032242EA014088
:108360001AA104F0D3FF08F0E7F800BF00BFBDE892
:10837000F0810000A02703002027030044697363F5
:108380006F7665727920636F6D706C6574652E0011
:10839000436F6E6E656374656420746F20646576E8
:1083A0006963652077697468204E6F726469632021
:1083B0005541525420536572766963652E00000062
:1083C00040350020B02A00205E2A002044697363F3
:1083D0006F6E6E65637465642E00000070B50446B0
:1083E0000E46154600BF0CB90E2070BD00BF66805A
:1083F0002DB16988E1802888A080A9882181314633
:10840000606903F089FAF0E770B586B004460D465E
:108410001A4B0FCB01AE0FC600BF14B90E2006B029
:1084200070BD00BF00BF0DB90E20F8E700BF00BF50
:10843000A86808B90E20F2E700BF214601A862DF54
:10844000064600BF304600B1E9E700BF20788DF84E
:1084500016000120ADF814004FF6FF706080286808
:10846000E060686820610020A08000212181A86868
:10847000606105A8FFF7A2F8D1E70000001903002A
:1084800070B586B005460E46344604B10DB906B047
:1084900070BD60884FF6FF71884203D06088A9885C
:1084A000884200D0F3E72888112806D0392816D151
:1084B0002946204606F020FE12E0A88861888842FE
:1084C0000CD1E06850B102208DF804004FF6FF7027
:1084D000608001A92046E268904700BF00E000BF2D
:1084E00000BF00BFD3E770B586B005460C46142127
:1084F00001A8FDF7D8FF04F10E06207800283AD134
:10850000A088012837D1A0792978884233D100206A
:1085100022E000EBC00136F81110022902D0032935
:1085200017D107E000EBC00106EB41010A89ADF865
:1085300016200FE000EBC00106EB41010989ADF800
:10854000121000EBC00106EB41014A89ADF814207E
:1085500000E000BF00BF401C217A8142D9D8E86802
:1085600048B16088ADF8060000208DF8040001A92C
:108570002846EA68904706B070BD000070B588B024
:1085800004460E46154600BF14B90E2008B070BD53
:1085900000BF20216846FDF786FFF42D0BDD1C4946
:1085A0001C4A891AC908022242EA01401AA104F0B1
:1085B000ADFE0720EAE760884FF6FF7188420BD1D5
:1085C0001349144A891AC908022242EA014017A134
:1085D00004F09CFE0820D9E701208DF800001A481D
:1085E000029003942189ADF81210ADF816500021C5
:1085F000ADF81410069602208DF8100001218DF8B8
:10860000111062886946606903F0D4F9BEE7000082
:108610004027030020270300436F6E74656E7420AB
:10862000746F6F206C6F6E672E000000436F6E6E6C
:10863000656374696F6E2068616E646C6520696E35
:1086400076616C69642E0000A9AA020010B5044688
:1086500000BF0CB90E2010BD00BF60884FF6FF713F
:10866000884201D0E08808B90820F4E701212046BB
:1086700000F06AFBEFE738B505F04AFA044600BFA0
:10868000254625B100BF2846FEF7FEFB00BF00BF10
:10869000002000906946012005F05EF9044600BF05
:1086A000254625B100BF2846FEF7EEFB00BF00BF00
:1086B000684605F0AFF9044600BF254625B100BF66
:1086C0002846FEF7E1FB00BF00BF38BD10B50446E9
:1086D00004F0010008B100F045F810BD10B50246E5
:1086E0000949885C00BF4FF0A0442146D1F8043509
:1086F000012484409C43C1F80845012484401C4067
:10870000C1F80C4500BF10BD4818030010B5044661
:108710000249085D012104F0CDFA10BD481803009C
:1087200010B504460249085D002104F0C3FA10BDEB
:108730004818030010B50146094B585C00BF4FF0C4
:10874000A044234600BFD3F80445C44004F001040C
:108750000CB1012000E00020024682F0010010BDB3
:10876000481803002DE9F041002004461AE01049A2
:10877000085D01210B4600221546164600BF4FF04A
:10878000A04C674641EA430C4CEA820C4CEA052CAB
:108790004CEA064807F5E06C4CF8208000BF00BFAB
:1087A000601C0446002CE2D000F004F8BDE8F08123
:1087B0004818030010B5002403E02046FFF7A6FF89
:1087C000641C002CF9D010BD10B5002403E0204635
:1087D000FFF7A6FF641C002CF9D010BD70B504464D
:1087E00000250548007800F0010018B1204600F08F
:1087F0002BF80546284670BD2431002070B504468C
:108800000E4600250B48046004F0010080B10120F1
:10881000FFF75CFF2DB9084A00210848FEF782FBEC
:1088200005462DB9064A01210648FEF77BFB0546A1
:10883000284670BD2431002039B202004C180300D4
:10884000BD6D0200501803002DE9F04704460026D4
:108850000025DA48007820B10020D849087002F0DD
:10886000D7FC182C7ED2DFE804F00C16174A7EB233
:10887000F6F4F3F2F1F0EFEEEDECEBEAE9E8E7E61F
:10888000E5E402F0C5FCCE480068FEF7C6FB0646EC
:10889000CC4804708DE100BF0020FFF74BFF58B1BA
:1088A0000020FFF733FF022C02D14FF4E16001E01A
:1088B0004FF47A60054609E00020FFF731FF022CF3
:1088C00001D1C82001E04FF4C8700546BD480470CE
:1088D0004FF40040A5FB00104FF47A73CF1840F11D
:1088E00000015A0000233846FDF77EFD8146002234
:1088F0004946B3480068FEF761FB064659E100208F
:10890000FFF718FF58B10020FFF700FF032C02D13A
:108910004FF4487001E04FF47A60054609E000200A
:10892000FFF7FEFE032C01D1C82001E04FF4C87010
:108930000546A44804704FF40040A5FB00104FF416
:108940007A728F1840F10001520000233846FDF77B
:108950004BFD81460022494699480068FEF72EFBF0
:10896000064626E124E10020FFF7E4FE58B100208E
:10897000FFF7CCFE042C02D14FF47A6001E04FF4F3
:108980007A6005460AE00020FFF7CAFE042C02D1F7
:108990004FF4C87001E04FF4C87005468948047070
:1089A0004FF40040A5FB00104FF47A73CF1840F14C
:1089B00000015A0000233846FDF716FD81460022CB
:1089C00049467F480068FEF7F9FA0646F1E00020C4
:1089D000FFF7B0FE50B10020FFF798FE052C01D143
:1089E000C82001E04FF47A60054609E00020FFF757
:1089F00097FE052C01D1C82001E04FF4C870054650
:108A0000704804704FF40040A5FB00204FF47A73C7
:108A1000D71840F100015A0000233846FDF7E4FC66
:108A200081460022494666480068FEF7C7FA0646B6
:108A3000BFE0B8E0B6E0AAE0A1E098E092E05FE035
:108A40005DE05BE059E057E051E042E033E024E0D4
:108A500015E00EE0FFE70020FFF740FE59480470E4
:108A6000002240F2666156480068FEF7A7FA064603
:108A70009FE00020FFF754FE5248047099E0012067
:108A80004E490870FFF72AFE002240F266614C480A
:108A90000068FEF793FA06468BE00120474908700C
:108AA000FFF71CFE00224FF4005145480068FEF716
:108AB00085FA06467DE0012040490870FFF70EFE6A
:108AC000002240F266613E480068FEF777FA0646EB
:108AD0006FE0012039490870FFF700FE00224FF4D3
:108AE000005137480068FEF769FA064661E0FFF773
:108AF0006BFE344804705CE000BF00BF00BF00BFE5
:108B000031480068FEF789FA0646C4F1110515B32D
:108B10000EBB012D18D9A8B2C82148434FF400411B
:108B200080FB01104FF47A728F1840F1000152005F
:108B300000233846FDF758FC81460022494622486A
:108B40000068FEF73BFA06460220FFF7E9FD012028
:108B50001E49087005E00220FFF7D8FD00201B49E0
:108B6000087026E002F054FB1648047021E002F081
:108B70004FFB0020FFF7D4FD1248047019E002F00B
:108B800047FB0120FFF7CCFD0E48047011E002F016
:108B90003FFB0020FFF7C4FD0120FFF7C1FD09489E
:108BA000047006E000BFFFF70FFE0648047000E007
:108BB00000BF00BF3046BDE8F08700002131002033
:108BC0004C180300203100205018030028310020E9
:108BD0002DE9FC4704460D461646A71C4FF0010838
:108BE0000020019001A8FEF751FB30484068286042
:108BF0002E4840682D498968411A2D480068401C5C
:108C0000A0EB010915E001212A4802F00BFD02F05A
:108C10004FFB82465146274802F004FD2348406836
:108C200022498968411A22480068401CA0EB0109CA
:108C300000BF4F45E7D8B8F1000F30D000210091B8
:108C400076B1009921F00301491C0091009921F0AF
:108C50000401091D0091009964F3891100910DE050
:108C6000009921F00301891C0091009921F0040171
:108C7000091D0091009964F39F5100910B494968C7
:108C80000B4A12681140094A0C3202EB810000992C
:108C900001600649496839440C3A516000BF9DF8AB
:108CA0000400FEF7F9FA4046BDE8FC87B841002011
:108CB00010320020D445002070B504460D460A2D20
:108CC00003D10D212046FFF7F7FFA168481CA060E3
:108CD00020684554D4E90110884202D3204603F0AD
:108CE00052FB70BD0448806803494968884201D13D
:108CF000012070470020FCE7B841002070B500213A
:108D00000120FFF77BFD044600BF254625B100BFCB
:108D10002846FEF7B9F800BF00BF70BD10B5024687
:108D20001078084B1870012007E0135C054C24787C
:108D30006340044C2370431CD8B28842F5DB0148E1
:108D400010BD00000A31002070B58AB004460D46FF
:108D50002E46202102A8FDF7A6FBF0B28DF80400F4
:108D6000300A8DF8050001208DF808000D480490A8
:108D70000594E188ADF81A100221ADF81E1000210B
:108D8000ADF81C1001A9089101208DF818000121EF
:108D90008DF81910628802A9606902F00BFE0AB012
:108DA00070BD0000A9AA020070B58AB004460D4645
:108DB0002E46202102A8FDF776FBF0B28DF80400C4
:108DC000300A8DF8050001208DF808000D48049048
:108DD0000594E188ADF81A100221ADF81E100021AB
:108DE000ADF81C1001A9089101208DF8180001218F
:108DF0008DF81910628802A9606902F0DBFD0AB0E3
:108E000070BD0000797E02002DE9F04786B005466E
:108E1000686800F102094FF0000A287A00F00100AA
:108E2000E0B16868806905906868808BADF81000D3
:108E300002AA04A90920FDF776FF064666B102AA38
:108E400004A90820FDF76FFF064616B106B0BDE87D
:108E5000F0874FF0010A01E04FF0010A4FF00008DF
:108E6000287AC0F3800010B368688069059068684C
:108E7000808BADF810006A4604A90720FDF753FF68
:108E80000646F6B16A4604A90520FDF74CFF0646E2
:108E9000A6B16A4604A90320FDF745FF064656B170
:108EA0006A4604A90220FDF73EFF064606B10AE025
:108EB0004FF0010807E04FF0010804E04FF001080F
:108EC00001E04FF0010800275AE007EB47102E4958
:108ED00011F81000002851D007EB47112A4A02EB85
:108EE000410101F1360007224946FDF7FCFA70BB4B
:108EF00007EB4710244901EB40046868C07C84F804
:108F00003D000020A4F84000BAF1000F09D0202154
:108F1000E01CFDF7C8FABDF80820E01C0399FDF736
:108F2000A9FAB8F1000F24D0BDF80000102820DC09
:108F3000BDF8002004F123000199FDF79BFABDF86C
:108F40000000102804D101988089A08607E014E071
:108F5000BDF80000022802D101980088A086A08EEA
:108F60004FF65961884202D10120607001E0002073
:108F700060704FF6FF70E08768E700BF781CC7B2EB
:108F80000A2FA2DB00BF61E7AC3200200146024895
:108F900050F8210070470000D43D002001460148F0
:108FA00040567047043E002070B58AB004460E4615
:108FB000202101A8FDF777FA0020099094F8C60255
:108FC00000EB8001C1EB801004EB400594F8C50272
:108FD000B8B194F8C522521ED1B294F8C62202EB61
:108FE0008203C3EB821204EB420501EBC10305F1DE
:108FF0000A0202EB43000289521C92B2ADF824200F
:1090000002E0E888ADF824002889ADF826000320A6
:109010008DF80400099805900494054803903246A1
:1090200001A90448006802F0C5FC0AB070BD000048
:10903000599502007431002010B5002001F016FE91
:1090400004464FF42571FDF72EFA10BD70B50546A4
:109050000DB9094C01E0084C083409E0204602F043
:10906000BDF8064606B904E028467168884700BF87
:10907000F4E700BF70BD0000C83D002010B50446F5
:109080002CB90120064948700020FFF7DFFF012CB2
:1090900004D1012002498870FFF7D8FF10BD0000FD
:1090A000C03D00202DE9F047024613468C46D3E927
:1090B0000245DCE90267B6EB040877EB050002D352
:1090C0000120BDE8F0870020FBE70246002007E012
:1090D000536833F810308B4200D17047431C98B26C
:1090E00013888342F4DC00BFF7E710B502460B4655
:1090F00000210DE0506830F811004FF6FF74A042D7
:1091000004D1506820F81130002010BD481C81B2F5
:1091100010888842EEDC0420F7E70000F0B5034633
:109120000C4612B94FF0FF3001E01068C043014611
:10913000002012E01D5C694008250BE001F00106EB
:1091400016B14FF0FF3600E00026064F3E4086EA9B
:1091500051016D1E002DF1D1401CA042EAD3C8433D
:10916000F0BD00002083B8ED2DE9FF4105460C4617
:1091700029492A4A891AC908042242EA01402B4691
:10918000224627A104F0D8F8002002900390ADF801
:109190000840ADF80A40009001906A4602A92846AE
:1091A00090DF0646002E32D0304604F0E1FD07463F
:1091B00019491A4A891AC908012242EA01403B4664
:1091C0002A46234904F0B8F8BDF8000010B9BDF8EC
:1091D000020068B1BDF80230BDF800200E490F4F03
:1091E000C91BC908012747EA01401AA104F0A4F8E5
:1091F000BDF8040058B1BDF804200749074BC91A4F
:10920000C908012343EA0140224904F089F83046A5
:1092100004B0BDE8F08100002827030020270300E8
:109220005570646174696E672064617461206C6557
:109230006E67746820746F202575206F6E20636FD1
:109240006E6E656374696F6E20307825782E00002D
:10925000581F0300546865207265717565737465E5
:10926000642054582F5258207061636B6574206CD1
:10927000656E67746820697320746F6F206C6F6E01
:10928000672062792025752F2575206F63746574BA
:10929000732E0000A41F030010B5044621460448A5
:1092A000FFF721F921460348FEF73CFB10BD000003
:1092B00070360020583600207CB5002000900190C8
:1092C00008480090084801906846FEF791F9044666
:1092D00000BF254625B100BF2846FDF7D5FD00BFDC
:1092E00000BF7CBD99920200A03000202DE9F04F14
:1092F00089B004460F4691464FF0000B2021684686
:10930000FDF7D1F894F8C60200EB8001C1EB8010A4
:1093100004EB400594F8C50200EBC00105F10A001A
:1093200000EB410A94F8C502401C2979884207D114
:1093300008AB00225146204601F010FF834627E08B
:1093400094F8C5621FE02879401EB04202D14FF068
:10935000000806E0701C00EBC00105F10A0000EBFC
:10936000410808AB42465146204601F0F7FE10B1D5
:109370004FF0010B0AE0C24694F8C502401C84F885
:10938000C502701CC6B22879B042DCDC00BF00BF49
:10939000BBF1000F05D101203870002009B0BDE8F5
:1093A000F08F0020387004208DF800000898049099
:1093B0000394044802904A4669460348006802F054
:1093C000F9FAEBE759950200743100203EB50C48DC
:1093D00000900C4801900C48029001200B49087045
:1093E00069460A48FEF72CFA044600BF254625B117
:1093F00000BF2846FDF748FD00BF00BF3EBD00008E
:10940000FD76020011940200A030002058360020A2
:1094100010B5044600BF2046FDF736FD00BF10BD65
:109420000349096821F010011031014A11607047A9
:10943000B02A002030B59FB004460D467C21684616
:10944000FDF731F8ADF8025003208DF800000194CB
:109450000448006818B168460249096888471FB087
:1094600030BD0000703100202DE9F04104460D466A
:10947000164694F8C60200EB8001C1EB801004EBA5
:109480004008404606F006FC0746E7B3D4F8CC0295
:10949000062838D204F53470D4F8CC1200EBC11091
:1094A000468004F53471D4F8CC2201EBC211081DBA
:1094B00076224146FCF7DEFF45B1002104F5347009
:1094C000D4F8CC2200EBC210017007E0022104F5B1
:1094D0003470D4F8CC2200EBC210017004F5347063
:1094E000D4F8CC1200EBC110C767D4F8CC02401CF2
:1094F000C4F8CC020549D4F8CC020968884202D1EC
:10950000204605F0C3FFBDE8F0810000783100205F
:109510002DE9F041A0B004460D46164694F8C60267
:1095200000EB8001C1EB801004EB4008404606F0E0
:10953000B1FB074657B17C22064901A8FCF79AFF08
:10954000ADF80660029501A8B84700BF20B0BDE89D
:10955000F0810000541803002DE9F04105460C4647
:1095600016462746002087F8C80232462946384664
:10957000FFF7CEFF31463846FFF75CFFBDE8F081CC
:10958000F0B589B004460E464FF4BA612046FCF7A8
:109590008AFF202101A8FCF786FF31462448006895
:1095A00002F0BAF9054600BF284608B109B0F0BD7F
:1095B00000BFA4F8CA620020C4F8CC0284F8C70235
:1095C00084F8C60284F8C50294F8C60200EB800154
:1095D000C1EB801004EB400794F8C602154901EB7B
:1095E0008000006838603A881349144BC91AC908CA
:1095F000042343EA01403346114903F09DFE022053
:109600008DF804000120ADF814003968CDF816106B
:1096100004940C480390324601A90548006802F002
:10962000C9F9054615B9012084F8C8022846BDE7E6
:1096300074310020A83D00202027030020270300CC
:10964000C81E03005995020010B50021034802F01E
:109650000AF8044684F3100010BD0000D445002031
:1096600070B505460C464FF4803000FA04F12846E8
:1096700000F040FB70BD70B505460C464FF4A0707D
:1096800000EB840086B23146284600F04DFB70BDE9
:109690002DE9F04704460D4616461F464FF480302C
:1096A00000FA05F84FF4A07000EB85001FFA80F96E
:1096B00026F07F464146206804F039F9414620688B
:1096C00004F02FF94946206804F024F9324629466F
:1096D000206804F016F94146206804F025F91FB10E
:1096E0004146206804F026F9BDE8F08710B504462D
:1096F000206804F00BF910BD2DE9F04704460D4633
:1097000017466079324941F820706079314901EBA0
:10971000C000007968B108262F49304A891AC90863
:10972000022242EA01402EA103F0F0FD3046BDE8DE
:10973000F08729882068C0F8081500BF94F9042034
:10974000AB7810461946002808DB4FEA417C4FEA07
:109750001C68DFF8B0C00CF800800BE04FEA417CD9
:109760004FEA1C69DFF8A0C000F00F08A8F1040858
:109770000CF8089000BF00BF94F9041008460028B8
:109780000DDB00BF00BF00F01F0301229A40430918
:109790009B0003F1E023C3F8002100BF00BF00BF1E
:1097A00000BF012061790B4A02EBC10108716079A9
:1097B000114641F8304000260749084A891AC9086D
:1097C000032242EA014011A103F0A0FD3046AEE7BA
:1097D000E0310020E4310020882703002027030027
:1097E00052544320696E7374616E636520616C72BC
:1097F0006561647920696E697469616C697A656410
:109800002E00000000E400E018ED00E05254433A5E
:1098100020696E697469616C697A65642E00000064
:1098200010B5014691F90400002807DB00F01F0382
:1098300001229A40024B440943F8242000BF10BD86
:1098400000E200E070B505460C462246022128469B
:1098500000F05CFA70BD10B504464FF482712046EA
:1098600000F062FA10BD10B504460021206804F033
:1098700064F810BD2DE9F84F044688461546994610
:109880004FF4803000FA08FA4FF4A07000EB880023
:109890001FFA80FB25F07F455146204600F02AFA4A
:1098A000206804F033F806464146206804F023F8A7
:1098B000009032464146206804F023F8594620685B
:1098C00004F028F83146009807F082F9012806D103
:1098D000102004F021FB5946206804F01BF8206892
:1098E00004F014F806463146284607F071F9074699
:1098F0005146206804F018F8012F0FD16A1C414628
:10990000206803F0FEFF102004F006FB206803F03F
:10991000FDFFB04225D00D20BDE8F88F2A46414614
:10992000206803F0EEFF206803F0F0FF0646681E93
:10993000314607F04DF907466FF07F40A0EB090074
:10994000B84201D20D20E7E75FB96A1C41462068A2
:1099500003F0D7FF206803F0D9FFB04201D00D20FB
:10996000DAE701225146204600F0D0F90020D3E783
:109970002DE9F84305460E461746984669461048B5
:10998000006801F002FE044614B90420BDE8F88323
:109990001C212046FCF787FD012020712560C4F8BA
:1099A000088008480068B6FBF0F0E060676169462F
:1099B0000348006801F013FE06F0CAF80020E5E74E
:1099C000601B0300541B030010B50446D4E90321B7
:1099D000501828DF10BD000013480078062820D159
:1099E0001148001D007800F00F00D0B90E48083073
:1099F000007800F0F000302801D1012070470A48BB
:109A00000830007800F0F000402801D10120F5E78F
:109A100005480830007800F0F000502801D10120FE
:109A2000ECE70020EAE70000E00F00F013480078C0
:109A3000062820D11148001D007800F00F00D0B991
:109A40000E480830007800F0F000302801D10120E5
:109A500070470A480830007800F0F000402801D133
:109A60000120F5E705480830007800F0F0005028A4
:109A700001D10120ECE70020EAE70000E00F00F050
:109A800013480078062820D11148001D007800F006
:109A90000F00D0B90E480830007800F0F0003028F0
:109AA00001D1012070470A480830007800F0F0002A
:109AB000402801D10120F5E705480830007800F082
:109AC000F000502801D10120ECE70020EAE7000077
:109AD000E00F00F00A48007806280ED10848001D63
:109AE000007800F00F0040B905480830007800F019
:109AF000F000302801D1012070470020FCE7000071
:109B0000E00F00F006480068062806D10448001D52
:109B10000068062801D1012070470020FCE7000002
:109B20003001001013480078062820D11148001D8C
:109B3000007800F00F00D0B90E480830007800F02F
:109B4000F000302801D1012070470A480830007821
:109B500000F0F000402801D10120F5E70548083069
:109B6000007800F0F000502801D10120ECE700203F
:109B7000EAE70000E00F00F00A48007806280ED15E
:109B80000848001D007800F00F0040B90548083073
:109B9000007800F0F000302801D10120704700204B
:109BA000FCE70000E00F00F013480078062820D101
:109BB0001148001D007800F00F00D0B90E480830A1
:109BC000007800F0F000302801D1012070470A48E9
:109BD0000830007800F0F000402801D10120F5E7BE
:109BE00005480830007800F0F000502801D101202D
:109BF000ECE70020EAE70000E00F00F00A480078F8
:109C000006280ED10848001D007800F00F0040B96A
:109C100005480830007800F0F000302801D101201C
:109C200070470020FCE70000E00F00F00A480078D1
:109C300006280ED10848001D007800F00F0040B93A
:109C400005480830007800F0F000302801D10120EC
:109C500070470020FCE70000E00F00F00A480078A1
:109C600006280ED10848001D007800F00F0040B90A
:109C700005480830007800F0F000502801D101209C
:109C800070470020FCE70000E00F00F030B587B01F
:109C900004460D462068806808B907B030BD182119
:109CA00001A8FCF700FC0295A0680690207910B18D
:109CB000012815D109E001208DF8040020690390E6
:109CC000E0680490606905900BE002208DF80400C4
:109CD0000749E0680968484303906069059000E01F
:109CE00000BF00BF2068816801A8884700BFD4E793
:109CF000541B030070B504460D462946206803F046
:109D000010FE2946206803F012FE70BD70B50446AF
:109D10000E4615463146206803F006FE1DB1314659
:109D2000206803F007FE70BD70B505460C46286834
:109D3000015929B12146286803F0ECFD012070BDCE
:109D40000020FCE770B5A0B0FCF796FC04788021F9
:109D50006846FCF7A8FBFCF78BFC00788DF8000048
:109D60008DF80240C22C28D004DCC02C60D0C12C5D
:109D700072D104E0C32C40D0CB2CF9D14CE06A2046
:109D80008DF80100002315E0184600F06FFF05462E
:109D9000287868B1C3EBC300C01C694601443D206C
:109DA000D5F837200A60B5F83B208A80405D88717D
:109DB000581CC3B20A2BE7DB01E1FCF761FC8649C2
:109DC00002680A608088888008460168CDF8031020
:109DD0008088ADF807008148007800F001008DF818
:109DE000090008208DF801007B4800F07BFF054644
:109DF000FF2D01D07A480570E1E001208DF80100C7
:109E0000FF20774908707548006820F4807000F5DD
:109E1000807072490860D2E001208DF801006F481F
:109E2000006820F4806000F580606C490860C6E03E
:109E30006CA000784A2809D16AA04078612805D131
:109E400068A080786E2801D101206BE065A00078C1
:109E5000462802D1022065E0B0E062A000784D28DB
:109E600009D160A04078612805D15EA08078722871
:109E700001D1032056E05BA00078412805D159A00C
:109E80004078702801D104204CE056A000784D287D
:109E900009D154A04078612805D152A08078792852
:109EA00001D105203EE04FA000784A2809D14DA0FD
:109EB0004078752805D14BA080786E2801D1062006
:109EC00030E048A000784A2809D146A0407875289B
:109ED00005D144A080786C2801D1072022E041A060
:109EE0000078412805D13FA04078752801D108208D
:109EF00018E03CA00078532801D1092012E039A0D5
:109F000000784F2801D100200CE036A000784E28C0
:109F100001D1012006E033A00078442801D10220BD
:109F200000E000202FA109784F2907D02DA1097842
:109F30004E2903D02BA10978442901D1012100E049
:109F400000210A2303FB0100030526A041793039D3
:109F500024A00079302803DB22A00079303800E00B
:109F600000200A2505FB001043EA00631DA0807A4B
:109F700030381CA1497A303915FB010043EA003022
:109F80001BA1497830391AA31B78303B15FB031508
:109F900017A10979303916A3DB78303B0A2616FB66
:109FA000031115FB01F140EA010204210DF1030048
:109FB000FCF772FA05208DF8010000E000BF00BF39
:109FC0007F216846FEF7AAFE00788DF87F0068467C
:109FD000FCF7E4FB20B070BD562A0020B02A002018
:109FE000552A00204F63742032392032303231003C
:109FF00031353A30303A32350000000070B5A2B049
:10A00000FCF73AFB0578802102A8FCF74CFAFCF734
:10A010002FFB00788DF808008DF80A50DF2D7AD0DC
:10A0200006DCD12D0BD0D22D26D0DC2D74D176E0DC
:10A03000F12D72D0F22D71D0FC2DF7D1E4E0142176
:10A040008048FCF730FAFCF71BFB7E49006808608B
:10A05000084600687C49086000207A49086100F0E1
:10A06000A1FC7A49086077490C31002000F0F8FB28
:10A0700001208DF80900D8E0FCF70CFB0078401EA9
:10A08000C4B2FCF7FDFA06466E4989686F4A126849
:10A09000881822463146FCF7EDF96A4989686B4A0F
:10A0A00012688818674A10322146FFF737F8654969
:10A0B000086108468068204488600846C0682044DB
:10A0C000C86008460068C968884204D95D4880684D
:10A0D000B0F5807F13D35B48C0685A498968B0FBEC
:10A0E000F1F0401E019001AB564A08325748016812
:10A0F000002000F08DFC00205249886000BF5148CC
:10A10000C068CDF80B004F480069CDF80F0009205A
:10A110008DF8090089E083E086E00CE028E04948FA
:10A12000C068CDF80B0047480069CDF80F00092042
:10A130008DF8090079E014214548FCF7B4F9FCF7E3
:10A140009FFA434900680860084600684149086072
:10A1500000203F49086100F025FC3F4908603C4968
:10A160000C31012000F07CFB01208DF809005CE03F
:10A17000FCF790FA0078401EC4B2FCF781FA06465C
:10A1800033498968344A1268881822463146FCF7F8
:10A1900071F92F498968304A126888182C4A1032A0
:10A1A0002146FEF7BBFF2A49086108468068204423
:10A1B00088600846C0682044C86008460068C968CE
:10A1C000884204D922488068B0F5807F10D32048A7
:10A1D000C068001B000A019001AB1D4A08321E48EE
:10A1E0000168012000F014FC00201949886000BFBC
:10A1F0001748C068CDF80B0015480069CDF80F006E
:10A2000009208DF8090010E01148C068CDF80B0056
:10A210000F480069CDF80F0009208DF8090004E00F
:10A2200006F078FB22B070BD00BF00BF7F2102A8FE
:10A23000FEF774FD00788DF8870002A8FCF7AEFAEF
:10A2400000BFEFE784320020402A00203C2A002093
:10A2500098320020482A0020442A002070B5044685
:10A260000D462A460021204600F00EF8A068401C4A
:10A27000A06070BD01468A68C868801A70470146B0
:10A280008A68C868801A704710B583680B44848850
:10A2900023400468E35C137010BDC26883881A40D1
:10A2A00003689954C268521CC260704770B5054675
:10A2B0006868861C002415E004EB44100B4911F873
:10A2C000100068B104EB4411084A02EB410101F1AE
:10A2D000360007223146FCF706F908B9012070BDA7
:10A2E000601CC4B20A2CE7DB0020F8E7AC32002087
:10A2F0002DE9F041A0B00024F8480088C0F3C02048
:10A3000038B1F648006820F40060F449086006F0AF
:10A3100075FAF2480078C0F3800040B1EF48006859
:10A3200020F00400ED490860FF20ED490870EB487B
:10A330000078C0F3401038B1E848006820F02000F1
:10A34000E649086006F0ECFFE4480078C0F38010AE
:10A3500008B106F08DFDE1480078C0F3C00030B3CD
:10A36000DE48006820F00800DC490860802168466B
:10A37000FCF799F87F2201216846FCF78DF8D9484F
:10A3800090F880008DF80100D648B0F88020014692
:10A390000DF10200FCF76EF87F216846FEF7BEFC67
:10A3A00000788DF87F006846FCF7F8F900BFCB48CD
:10A3B0000088C0F3402038B1C848006820F400701D
:10A3C000C6490860C8484CDFC4480078C0F3C010D4
:10A3D000002844D0C148006820F08000BF490860D0
:10A3E00008460088C0F38020C0B30846006820F407
:10A3F000806008604FF47A7505B90EE000BF4FF435
:10A400007A7606B905E0B94F4FEA86184046B84754
:10A4100000BF681E051EF2D100BFB120B44908601C
:10A4200000BF00BF00BF00BF00BFBFF34F8F00BF22
:10A4300000BF00BFAF48006800F4E060AE490843C9
:10A44000001DAC49086000BF00BF00BFBFF34F8FC5
:10A4500000BF00BF00BF00BF00BFFDE7FFE79F4890
:10A46000007800F00100002837D19D480078FF28CF
:10A4700023D09B4800780A281FDA9948007800F01A
:10A48000F5FB0546C5B12878B0B19C4890F8583026
:10A4900000F1500200F15A0105F136008CDF04464C
:10A4A00054B19749974A891AC908012242EA0140E2
:10A4B000224695A102F034FF00BF88480078C0F31F
:10A4C0000010002808D08548006820F0100083495B
:10A4D0000860E52006F082FA9DE181480078FF28B7
:10A4E00022D100F0CDFB0546EDB12878D8B1E88F38
:10A4F000132176DF0446082C08D000BF264626B17B
:10A5000000BF3046FCF7C0FC00BF00BF73480088A6
:10A51000C0F3002038B17148006820F480706F49A2
:10A520000860FEF789FD76E16C480078C0F3001002
:10A530000028D1D06948006820F010006749086001
:10A5400000F09EFB064600BF7078002874D0784863
:10A550000078062871D006DC062823D2DFE800F058
:10A5600010233A6F7F8D092868D004DC072874D047
:10A57000082817D195E0FE2870D0FF28F9D1F0E027
:10A5800001206C49087006206B4908700120487052
:10A5900002206A4908800846028867496848FDF732
:10A5A00003FC0446DEE067484068674909680D1A05
:10A5B00001206149087048700846C0F80250062022
:10A5C0005E490880084602885B495D48FDF7ECFB60
:10A5D0000446C7E05C4800685C490988401A1428B2
:10A5E00005D25948006859490988401A00E01420EA
:10A5F00085B257480068554A128881182A464E4845
:10A60000FBF738FF51480088284450490880084625
:10A6100000884D490968884205D301204D490870DA
:10A620000320434908704548058002884249444850
:10A63000FDF75AFC044695E0B8E030E03FE0032027
:10A640003D49087001203D490880084602883A4982
:10A650003B48FDF7A9FB044684E021E07CE00420B0
:10A66000354908700120354908800846028832497A
:10A670003348FDF799FB044674E002202D49087029
:10A6800006202D490870022048702C490880084691
:10A69000028829492A48FDF787FB044662E061E009
:10A6A00060E00320244908700120244908800846FE
:10A6B000028821492248FDF777FB044652E0042036
:10A6C0001D49087001201D490880084602881A4962
:10A6D0001B48FDF769FB044644E00000B02A002057
:10A6E000552A002040350020B42A0020111803000C
:10A6F0001C0500400CED00E00000FA059C3600202F
:10A70000A027030020270300436F6E6E6563746902
:10A710006F6E2052657175657374204661696C6552
:10A72000642C20726561736F6E2025640000000048
:10A73000392A0020662A0020443600206A2A002098
:10A740005836002070320020402A0020682A00205D
:10A75000502A0020642A002030480068FCF75DFC85
:10A7600000E000BF00BF2E492E4A891AC908042202
:10A7700042EA01402C490A782CA102F0D1FD284977
:10A78000284A891AC908042242EA01402AA102F093
:10A79000BDFD2349234A891AC908042242EA01401F
:10A7A0002A490A882A4902F03BFD1EE02948B0F8F0
:10A7B000802001462848FDF7E1FE04461849194A61
:10A7C000891AC908042242EA01401BA102F09EFD39
:10A7D0002049B1F880201249124BC91AC908042334
:10A7E00043EA01401B4902F01BFD082C0AD0132C40
:10A7F00008D000BF254625B100BF2846FCF744FB22
:10A8000000BF00BF132C3FF49FAE14484088401C8B
:10A810001249488000BF20B0BDE8F081E81703006E
:10A82000A027030020270300392A002053746570F5
:10A830003A20256400000000526561647920746F3D
:10A840002073656E64206461746100006A2A0020D0
:10A8500044360020C2350020703600205E2A0020D9
:10A8600070B504460D46286800031449086000F0DE
:10A8700099F806464FF48071FBF715FE14B1012CD0
:10A8800016D109E00D48006800F58021002301225F
:10A890000B4801F07FFE0BE009480069A0F582201B
:10A8A000020B00234FF48221054801F073FE00BF24
:10A8B00000BF034806F01EFF70BD000014310020E9
:10A8C0005C32002070B50446606850B11749184AE0
:10A8D000891AC908032242EA0140164902F016FD0E
:10A8E00070BD2078012802D002281AD10CE00F494F
:10A8F0000F4D491BC908032545EA01400EA1A36875
:10A90000226902F019FD0DE00849094D491BC908EB
:10A91000032545EA014015A1A368226902F00CFD58
:10A9200000E000BF00BF00BFDAE70000A02703007F
:10A9300020270300401D03002D2D3E204576656E27
:10A94000742072656365697665643A2077726F7406
:10A9500065202564206279746573206174206164C8
:10A96000647265737320307825782E002D2D3E207B
:10A970004576656E742072656365697665643A2014
:10A980006572617365642025642070616765206667
:10A99000726F6D20616464726573732030782578FE
:10A9A0002E00000000487047A83B002070B50E49FB
:10A9B0000E4A891AC908032242EA01400CA102F09A
:10A9C000A5FC114E00223146104801F09BFE0446C2
:10A9D00000BF254625B100BF2846FCF755FA00BF49
:10A9E00000BF00F09BFD70BDA027030020270300DF
:10A9F0006673746F7261676520696E697420737421
:10AA000061727465642E0000641B03005C320020D8
:10AA10002DE9F84304460F4615461E464FF0000840
:10AA2000306800021C4908601C4928680860084614
:10AA3000394602681A48FBF71DFD1848006805F002
:10AA4000CAFA814614B1012C1AD10CE00020009002
:10AA50001148006800F580214B46114A114801F069
:10AA60003BFF80460CE0002000900B48006800F59A
:10AA700082214B460A4A0B4801F02EFF804600BF58
:10AA800000BF084806F036FEB8F1000F02D00020E3
:10AA9000BDE8F8830120FBE71431002018310020C5
:10AAA000A83C00205C3200202DE9F04106460C460F
:10AAB000174625460849094A891AC908042242EA64
:10AAC00001403A4606A102F02BFC286910B130463D
:10AAD00029698847BDE8F08140270300202703004B
:10AAE00041204741545420436C69656E742065725F
:10AAF000726F7220686173206F6363757272656430
:10AB0000206F6E20636F6E6E5F68616E646C653A75
:10AB100020305825580000007047000070B50E49DD
:10AB20000E4800F048FE044600BF254625B100BF90
:10AB30002846FCF7A9F900BF00BFF721074800F03D
:10AB40002BFE044600BF254625B100BF2846FCF772
:10AB50009BF900BF00BF70BD19AB02008836002012
:10AB600070B506460C4604F11005E888102801DD92
:10AB7000092070BDE988304602F03CFD60606068E5
:10AB800008B90420F5E7EA88A9680023606802F0A4
:10AB9000BCFD0649064BC91AC908042343EA014013
:10ABA00004A1626802F0BCFB0020E2E7302703004A
:10ABB00020270300506F696E74657220746F2061E6
:10ABC0006C6C6F6361746564206D656D6F72792064
:10ABD000626C6F636B3A2025702E000070B50646DC
:10ABE0000C4604F11005A8680088102801DD092032
:10ABF00070BDA8680088811C304602F0FBFC6060D4
:10AC0000606808B90420F3E7A9680023022260689D
:10AC100002F07BFDAB681A88E9680223606802F0E5
:10AC200074FD0649064BC91AC908042343EA0140CA
:10AC300004A1626802F074FB0020D9E7302703000A
:10AC400020270300506F696E74657220746F206155
:10AC50006C6C6F6361746564206D656D6F727920D3
:10AC6000626C6F636B3A2025702E0000014601EB89
:10AC70004110024A02EB400070470000AC32002055
:10AC800000210DE001EB4110074A02EB4000807803
:10AC900020B101EB411002EB40007047481CC1B2EB
:10ACA0000A29EFDB0020F8E7AC32002070B505463A
:10ACB000002413E02046FFF7D9FF007860B120465A
:10ACC000FFF7D4FF00F137060622691C3046FBF778
:10ACD0000AFC08B9204670BD601CC4B20A2CE9DB2E
:10ACE000FF20F8E770B50546002413E02046FFF783
:10ACF000BDFF007860B12046FFF7B8FF00F13706CE
:10AD0000062229463046FBF7EEFB08B9204670BD07
:10AD1000601CC4B20A2CE9DBFF20F8E770B50B48D1
:10AD2000FEF7E4FC0A4B0CCB841843F100050949FB
:10AD300003C9201A75EB010004D24FF08073E418A8
:10AD400045F100052046294670BD0000A0310020D5
:10AD5000B0310020B831002010B502F0D3F808B9A6
:10AD6000FFF7C6FA10BD000070B504460D4609484D
:10AD70006060094800F04FFC50B902F023FF06491B
:10AD800008741C238C2205490548006800F0E9FB83
:10AD9000002070BD541B03000C400020703F0020B9
:10ADA000601B03002DE9FC5F83460E4691461F465B
:10ADB000DDE90C45002E01DA704200E030468246A3
:10ADC0004FF0010803E09AFBF9FA08F10108CA45BF
:10ADD000F9DA474500D9B84634B1002E03DB05F057
:10ADE0000400042800D1641E05F0020000B167B120
:10ADF00005F0010048B944B104E0641E2021584622
:10AE0000FDF75AFF0CB1A045F7D3002E05DA7642C4
:10AE10002D215846FDF750FF07E005F004000428F7
:10AE200003D12B215846FDF747FF05F00200022809
:10AE30000DD105F0010050B94FB944B104E0641ED2
:10AE400030215846FDF738FF0CB1A045F7D33B46FB
:10AE50004A4631465846CDE9004506F0EFFBBDE8CD
:10AE6000FC9F000070B505461249286802F0C6FF35
:10AE7000286803F061F804462046002817DB00F03C
:10AE80001F02012191400C4A430942F8231000BFE0
:10AE900000BF00BFBFF34F8F00BF00BF00BF00BFA8
:10AEA00000BF00BFBFF36F8F00BF00BF00BF00BF78
:10AEB00000BF70BD8402020080E100E070B505466D
:10AEC0001249286802F0CBFF286803F03DF80446D9
:10AED0002046002817DB00F01F02012191400C4A98
:10AEE000430942F8231000BF00BF00BFBFF34F8FDC
:10AEF00000BF00BF00BF00BF00BF00BFBFF36F8F28
:10AF000000BF00BF00BF00BF00BF70BD1003420004
:10AF100080E100E02DE9F04104460E464FF48E71C9
:10AF2000206802F05FFF4FF4A271206802F05AFF20
:10AF30001A49206802F065FF206802F0FDFF05460F
:10AF4000374628463946002804DB4A07130E144AC0
:10AF5000135408E04A074FEA126C124A00F00F033C
:10AF60001B1F02F803C000BF00BF206802F0E4FF0F
:10AF70000546284600280DDB00BF00BF00F01F0279
:10AF8000012191404209920002F1E022C2F8001131
:10AF900000BF00BF00BF00BFBDE8F081800002001D
:10AFA00000E400E018ED00E02DE9F04104460E4613
:10AFB0004FF48871206802F045FF4FF490712068CB
:10AFC00002F040FF4FF49271206802F03BFF4FF413
:10AFD000A271206802F036FF4FF4AC71206802F0D5
:10AFE00031FF1B49206802F03DFF206802F0ACFFF2
:10AFF0000546374628463946002804DB4A07130E23
:10B00000144A135408E04A074FEA126C124A00F03F
:10B010000F031B1F02F803C000BF00BF206802F02F
:10B0200093FF0546284600280DDB00BF00BF00F057
:10B030001F02012191404209920002F1E022C2F870
:10B04000001100BF00BF00BF00BFBDE8F0810000DD
:10B050001003420000E400E018ED00E030B50246C5
:10B0600000201378C3F38003D3B1137803F00303F4
:10B07000012B02D0022B10D107E01388C3F38313F6
:10B080009B1C0C6823440B6008E00B6802251468C5
:10B0900005EB945423440B6000E000BF00BF012087
:10B0A00030BD2DE9F04704460E469046002722E0C9
:10B0B000384602F06BFE0546384602F06EFE8146C9
:10B0C0002046294642580AB1012200E0002282B1FE
:10B0D0004846D4F80413014009B1012100E00021E1
:10B0E00039B12946204602F05DFE2846D6E9002106
:10B0F0009047781CC7B24745DADBBDE8F0870146C8
:10B1000000220AE0486830F812004FF6FF739842B8
:10B1100001D001207047501C82B208889042F1DCB7
:10B120000020F7E701460348007A08B10120704784
:10B130000020FCE70C40002010B502460B8992F875
:10B14000C60200EB8004C4EB801002EB40000089D3
:10B15000834201DA012010BD0020FCE770B50446EF
:10B16000E2B90D8994F8C60200EB8006C6EB8010A8
:10B1700004EB40000089854201D1002070BD0889A0
:10B18000401C188094F8C60200EB8005C5EB8010C7
:10B1900004EB4000008958800120EFE70889401C3B
:10B1A000D588A84201D10020E8E70889401C188012
:10B1B000D088401E58800120E0E7014691F85A00EF
:10B1C000C0F3C100012805D091F85A00C0F3C100B6
:10B1D000032801D1012070470020FCE701460868E0
:10B1E00008B102680A60704710B504462246012182
:10B1F000002001F02FFD002105E054F8210008B1E6
:10B20000012010BD491C0029F7D00020F9E70000FB
:10B2100010B50848007850B1002405E0022C02D097
:10B220002046FDF773FA641C002CF7D001E0FDF70F
:10B23000C1FA10BD2831002010B50446044800783A
:10B2400000F0010018B103480078FDF7FDFA10BDC9
:10B25000243100202031002010B502F021FE20B959
:10B2600002F044FE00200149887010BDC03D00205E
:10B27000F721018017214180002101714171FB21DB
:10B2800081711B21C171704770B54FF4804100205E
:10B2900002F0F2F8044600BF254625B100BF28465B
:10B2A000FBF7F2FD00BF00BF01F018FE70BD704754
:10B2B0002DE9FF4100272E4800F0A6F92C48001F79
:10B2C00000F0A2F92B48806803902B48056803988A
:10B2D000284028490C3101EB800800BF03A94046F3
:10B2E000FFF7BCFE30B10398284022490C3101EB36
:10B2F000800800E000E0F1E700BF00240AE00398C6
:10B30000411C284003911B490C3151F820004DF895
:10B310002400641C022CF2D3009800F003000128E2
:10B320000DD0022814D1BDF806700421009801EB5D
:10B330009050401E039901EB9000039009E0BDF886
:10B3400006700098C0F3831003990844039000E04E
:10B3500000BF00BF0648001F00F04FF9064616B1B7
:10B36000044903988860384604B0BDE8F0810000C5
:10B37000D0450020B8410020103200200024FFF703
:10B3800083FF05F085FCFDF7B9FCFDF795FFFDF7A0
:10B3900072F9FFF7C3FB03F02DFAFEF717F805F07B
:10B3A00059F806F001F8FBF79BFFFFF7FFFA0422BC
:10B3B0000021022077DF044600BF254625B100BFEB
:10B3C0002846FBF761FD00BF00BF0849084A891AFB
:10B3D000C908032242EA014006A101F097FF05F0E7
:10B3E000ABF800BFFFF7B8FCFCE70000A0270300A4
:10B3F00020270300424C4520554152542063656E7E
:10B400007472616C206578616D706C652073746115
:10B41000727465642E0000002DE9FF4F87B004466A
:10B4200091461E46A2462546BAF806009AF805102F
:10B430004843001F0690BAF806B0301DB0FBFBF081
:10B440000590301DB0FBFBF10BFB11000490D9F807
:10B45000000081190698814202D90698801B01E0FC
:10B46000D9F800000746C9F8007003E02D68059878
:10B47000401E059005980028F8D103900498ABEB86
:10B480000008B84501D9384600E04046804623E030
:10B490000399089808440290281D049908440190D3
:10B4A000149828B14246DDE90110FAF7E3FF04E001
:10B4B0004246DDE90101FAF7DDFF002004902D6826
:10B4C000A7EB0807039840440390BB4501D93846D1
:10B4D00000E05846804600BF002FD9D10BB0BDE830
:10B4E000F08F000070B503460C469CB101F0E8FFF8
:10B4F000054600220AE0084800EB820108881E6821
:10B50000B04202D11A60002070BD521CAA42F2D390
:10B510000520F9E70020F7E70000000040F6F8708A
:10B520000068401C18B94FF01020406902E040F656
:10B53000F870006803464FF0805001694269581C5A
:10B5400008B11846704702FB01F0FBE770B50446EE
:10B550002046FAF7ACFE05460DB1002070BD112063
:10B56000FCE710B5044609B90E2010BD92FBF3F0BC
:10B5700003FB102008B10920F7E72160002060607C
:10B58000A060A281E38100BFEFE770B504460D46DD
:10B5900029462046FAF740FE18B12A882168881803
:10B5A00070BD0020FCE770B505460C462088618818
:10B5B000884204D12846FAF771FE012070BD0020B0
:10B5C000FCE770B504460D4629462046FAF749FEC9
:10B5D00018B16A882168881870BD0020FCE770B532
:10B5E00005460C4620886188884204D12846FAF72F
:10B5F0002FFE012070BD0020FCE710B5044600219D
:10B60000204600F01AF810BD10B50446012120466E
:10B6100000F034F810BD10B504460121204600F0BA
:10B6200017F810BDF8B504460D466A46294620466F
:10B63000FAF789FE06460098F8BDF8B504460D46AF
:10B640006A4629462046FAF764FE06463046F8BDAB
:10B65000F8B504460D466A4629462046FAF74CFEE0
:10B6600006463046F8BDF8B504460D466A462946FA
:10B670002046FAF735FE06463046F8BDF8B50446D2
:10B680000D466A4629462046FAF736FE06460098D9
:10B69000F8BDF8B504460D466A4629462046FAF735
:10B6A0005FFE06460098F8BDF8B504460026002067
:10B6B00000906846FBF7EAFD2068006861688842F0
:10B6C00015D920680068401E226810600178204665
:10B6D00000F033F80646207A21680978401AC5B28E
:10B6E00020680079A84201DA2068057100BF9DF842
:10B6F0000000FBF7D1FD3046F8BD0246D068081ABD
:10B70000138AB0FBF3F0C0B27047F8B504460D469B
:10B710002E46002000906846FBF7B8FD31462046D3
:10B72000FFF7EBFF21680A68511C2368196010704D
:10B730009DF80000FBF7B0FDF8BD0246138AD06803
:10B7400001FB0300704710B5014600BF09B90E2088
:10B7500010BD00BF087A0B79C01AC2B2D1E900301F
:10B76000186005E008680368581C0C6820601A70AF
:10B77000101EA2F10103DAB2F4D10B68187100BFF8
:10B78000E6E730B502460B46D40802F00702012076
:10B7900090401D5D284030BD024600BF0AB90E2012
:10B7A000704700BF172901DBF72901DD0720F7E704
:10B7B00051800020F4E770B504460E4600BF0CB976
:10B7C0000E2070BD00BF2661F72020806080FB2026
:10B7D0002071002505E0A11D01EBC500FFF748FD24
:10B7E0006D1C002DF7D00020EBE700002DE9F0479D
:10B7F000064688464546B488012C01DBBDE8F08743
:10B800003088242820D006DC102809D011280CD03C
:10B81000232823D11DE03A280CD055281ED10EE054
:10B820003146284603F000F919E03146284603F076
:10B830003AFB14E03146284603F0FEFB0FE03146A8
:10B84000284603F03BFB0AE03146284603F08AF91C
:10B8500005E03146284603F02DFA00E000BF00BFA6
:10B86000A81D00EBC400007970B3A81D30F8341097
:10B870002046A5DF0746C7B90021A81D00EBC4007C
:10B8800001710121A81D00EBC4004171A91D31F80F
:10B8900034201149114BC91AC908042343EA014055
:10B8A00023460F4901F048FD12E0112F10D0384611
:10B8B00002F05EFA81460849084A891AC90801223D
:10B8C00042EA01404A4600E003E006A101F028FDFB
:10B8D00000BF00BF92E700002827030020270300D5
:10B8E000101F030073645F626C655F67617474634B
:10B8F0005F65786368616E67655F6D74755F7265BB
:10B90000717565737428292072657475726E65642B
:10B910002025732E000000002DE9F04104460F465B
:10B92000002500BF14B90E20BDE8F08100BF2046FD
:10B9300004F02CF939462046FDF7C7FB064620885F
:10B94000B0421CD10F49104A891AC908042242EAA0
:10B9500001403A460DA101F0E3FC2046FFF7CFFB82
:10B9600018B9206901F0ABFE054639462046FDF7BF
:10B97000BCFB054600BF284600B1D5E700BF2846FE
:10B98000D2E70000302703002027030052656769D3
:10B9900073746572696E6720636F6E6E6563746938
:10B9A0006F6E2068616E646C653A203078253034A3
:10B9B000580000002DE9F04705460C469046002748
:10B9C0003B493C4A891AC908042242EA01403AA18B
:10B9D00001F09CFC00BF15B90E20BDE8F08700BF48
:10B9E00000BF0CB90E20F8E700BF284604F0CEF8DF
:10B9F00041462846FDF769FB06462078062802DA0C
:10BA00002888B04201D10720E7E706EB8602A96843
:10BA100001EB820001F0D8FE50B14146204604F00F
:10BA2000C7F98146B9F1000F01D03846D5E700BF0C
:10BA300020782A4951F8200090B100BF286908B940
:10BA40000E20CAE700BF2178244B53F8212021465D
:10BA500028699047074600BF384600B1BDE700BFE0
:10BA600006EB8602A96801EB8200214601F0CFFEB9
:10BA7000074697B12078194951F8200068B16068ED
:10BA800001F0F5FD0A490B4BC91AC908042343EA22
:10BA9000014013A1626801F043FC06EB8602A9682D
:10BAA00001EB8200414603F099FE384695E700001D
:10BAB0003027030020270300416464696E67206912
:10BAC00074656D20746F207468652072657175658A
:10BAD000737420717565756500000000E818030037
