:020000040002F8
:1060000060680020C5630200CD630200CF63020018
:10601000D1630200D3630200D563020000000000D8
:10602000000000000000000000000000D763020034
:10603000D963020000000000DB630200DD630200A0
:106040009D660200DF6302008D6A0200DF630200CA
:10605000DF630200DF630200AD650200DF63020060
:10606000DF630200756A0200DF630200DF63020083
:10607000DF630200DF630200DF630200DF63020010
:10608000DF630200F1660200DF630200DF630200EB
:10609000DF630200DF63020095670200DF63020036
:1060A000DF630200DF630200DF630200DF630200E0
:1060B000DF630200DF630200000000000000000058
:1060C000DF630200DF630200DF630200DF630200C0
:1060D000DF630200DF630200DF63020000000000F4
:1060E00000000000000000000000000000000000B0
:1060F00000000000000000000000000000000000A0
:10610000000000000000000000000000000000008F
:10611000000000000000000000000000000000007F
:10612000000000000000000000000000000000006F
:10613000000000000000000000000000000000005F
:10614000000000000000000000000000000000004F
:10615000000000000000000000000000000000003F
:10616000000000000000000000000000000000002F
:10617000000000000000000000000000000000001F
:10618000000000000000000000000000000000000F
:1061900000000000000000000000000000000000FF
:1061A00000000000000000000000000000000000EF
:1061B00000000000000000000000000000000000DF
:1061C00000000000000000000000000000000000CF
:1061D00000000000000000000000000000000000BF
:1061E00000000000000000000000000000000000AF
:1061F000000000000000000000000000000000009F
:10620000DFF810D000F094F90048004775BB020099
:10621000AFF300806068002030B450E8012F93B2E3
:10622000C48923448489A34228BF1B1B0489A34239
:1062300002BFBFF32F8F002007E0C3EA020340E84C
:106240000134002CE9D14FF001000A6030BC7047E6
:1062500050E8012FC2EA024240E801210029F7D1AB
:10626000704730B450E8022F1FFAA2F3C488A3424B
:1062700002BFBFF32F8F00200DE0C489234484891F
:10628000A34228BF1B1BC2EA034340E80234002C90
:10629000E8D14FF001000A6030BC704750E8022F8F
:1062A000C2EA224240E802210029F7D170470346A2
:1062B00053E8022FD988B2EB324F4FF0000017BFDE
:1062C00092B241EA014142EA014104E05A68B2EB6C
:1062D000324F08BF012043E80212002AE8D170477C
:1062E00030B4044654E8000F0D4644E80053002B38
:1062F000F8D1156030BC704730B4044654E8000F44
:1063000040EA010544E80053002BF7D1156030BC8A
:10631000704730B4044654E8000F00EA010544E831
:106320000053002BF7D1156030BC704730B40446E1
:1063300054E8000F80EA010544E80053002BF7D130
:10634000156030BC704730B4044654E8000F00EBD1
:10635000010544E80053002BF7D1156030BC7047AD
:1063600030B4044654E8000FA0EB010544E80053A4
:10637000002BF7D1156030BC704770B404464FF065
:10638000000054E8006F0D68AE4207BF44E80023E8
:10639000012044E800630E60002B1CBF0020F0E7E2
:1063A00070BC704730B4044654E8000F88422CBFDC
:1063B000451A054644E80053002BF5D1156030BC62
:1063C000704700000648804706480047FEE7FEE7A2
:1063D000FEE7FEE7FEE7FEE7FEE7FEE7FEE7FEE795
:1063E000DD670200016202002DE9F05F0546002032
:1063F00092469B4688460646814640241BE0284636
:1064000041464746224600F020F853465A46C01AF5
:10641000914110D311461846224600F07AF82D1A01
:1064200067EB01084F4622460120002100F071F879
:1064300017EB00094E41201EA4F10104DFDC4846A1
:1064400031462A464346BDE8F09F202A04DB203A25
:1064500021FA02F00021704721FA02F3D040C2F184
:1064600020029140084319467047000000487047D9
:106470005C27030040EA01039B0703D009E008C939
:10648000121F08C0042AFAD203E011F8013B00F8F9
:10649000013B521EF9D27047D2B201E000F8012B45
:1064A000491EFBD270470022F6E710B513460A4694
:1064B00004461946FFF7F0FF204610BD421C10F8B5
:1064C000011B0029FBD1801A704710B5002200E0A3
:1064D000521C835C8C5CA34201D1002BF8D1D8B252
:1064E000E1B2401A10BD30B504460020034600E07A
:1064F0005B1C934203D2E05CCD5C401BF8D030BD06
:10650000034611F8012B00F8012B002AF9D1184697
:106510007047202A04DB203A00FA02F1002070477D
:106520009140C2F1200320FA03F3194390407047D1
:10653000064C074D06E0E06840F0010394E80700D0
:1065400098471034AC42F6D3FFF75EFE10310300DB
:106550003031030070B58C1810F8015B15F007039B
:1065600001D110F8013B2A1106D110F8012B03E0EC
:1065700010F8016B01F8016B5B1EF9D12B0705D4F4
:106580000023521E0DD401F8013BFAE710F8013B3D
:10659000CB1A921C03E013F8015B01F8015B521E59
:1065A000F9D5A142D8D3002070BD00002DE9F84FE5
:1065B0000026002000904FF480770125002410E091
:1065C000384607F09FF840B100BF254800682840D2
:1065D00018B1384607F088F82E436D00381D87B291
:1065E000641C082CECD34FF4BE7007F08BF850B14C
:1065F0004FF4BE7007F078F846F000466A46012175
:10660000002007F01DF8F0B210B3012500241DE0B2
:1066100005EA0600C0B100BF124850F82400C0F3DC
:106620000420814600BF0F4850F82400C0F3014009
:106630008246204602F03AFE8046B8F1000F02D0B2
:1066400051464846C04700BF6D00641C082CDFD38C
:1066500006F0004010B1684609F0A2FCBDE8F88FD2
:10666000046300401065004000487047A8380020CF
:1066700000487047A838002000487047AA3800201A
:1066800000487047AB380020014800787047000090
:106690000931002000487047A938002010B54FF498
:1066A000807006F097F980B14FF4807006F09BF986
:1066B000012006F0A1F90D48407930B901200B49BD
:1066C000487108460168002088474FF4827006F040
:1066D00081F950B14FF4827006F085F9022006F07E
:1066E0008BF9024801680120884710BD8C310020D9
:1066F00010B5034A1068034A1168884710BD0000AE
:10670000E4310020E031002010B500F0C7F910BDE1
:106710002DE9F047074688461646C24607EB470173
:106720001B4800EBC109D9F8140020B1012811D091
:10673000022826D11EE0484600F0E8F90546B54299
:1067400001D2002405E0344632465146484600F066
:1067500024FA18E0484600F0D9F90546B54201D2BE
:10676000284600E03046044622465146484600F09E
:1067700014FA08E032465146484600F0D5F904467E
:1067800001E0002400BF00BF2046BDE8F087000004
:10679000F045002010B507F0F3FE10BD10B504461B
:1067A00008480078C0F3801000B110BD0BF018FB52
:1067B000802221460448FFF75DFE0AF089FD00BFF4
:1067C000F3E70000B42A00202839002001480249DC
:1067D000086070470090D0035832002010B503F0D5
:1067E000E5FA28B192480088C0F304209149086076
:1067F00003F030FB10B190489049486703F052FB1A
:1068000030B18B48E0380068C0F342308C490860F2
:1068100003F072FB28B18B48006820F08070894932
:10682000086003F081FB48B10020874908604FF001
:106830008041C1F810018249091F086003F09EFBE6
:1068400018B103207E496431086003F0AFFB68B1E2
:1068500005207E49086001207C49783108600020CD
:106860007A49083108603F20091F086003F0B6FB31
:10687000002855D06E48E0300068754908606C48C3
:10688000E4300068091D08606948E8300068091DA7
:1068900008606748EC300068091D08606448F03003
:1068A0000068091D08606248F4300068091D08602E
:1068B0005F48F83000686649203108605C48FC3069
:1068C0000068091D086063480068091D0860614888
:1068D000001D0068091D08605E4808300068091D39
:1068E00008605C480C300068091D08605948103089
:1068F0000068574940310860564814300068091D47
:106900000860544818300068091D086051481C3060
:106910000068091D08604F4820300068091D0860A4
:1069200003F01AFA30B14248CC38006800F04F004A
:106930004949086003F064FA40B14848006800F033
:10694000010018B16FF001004449086003F09AFAA1
:1069500028B14348006840F48060414908603948E4
:106960007438006840F4700036497439086000BF1C
:1069700000BF00BFBFF34F8F00BF00BF00BF00BF0D
:1069800000BF00BFBFF36F8F00BF00BF00BF35481F
:10699000006800F0004028B93248001D006800F08F
:1069A0000040E8B301203049086000BF2F4800686C
:1069B0000028FBD015202B49086000BF2B48006839
:1069C0000028FBD015212748001D016000BF274883
:1069D00000680028FBD000202349086000BF23483E
:1069E00000680028FBD000BF00BF00BF00BF00BF91
:1069F000BFF34F8F00BF00BF00BF1248F0380068E0
:106A000000F4E0601A490843001D0E49F03908609F
:106A100000BF00BF00BFBFF34F8F00BF00BF00E04B
:106A200003E000BF00BF00BFFDE7FFF7CFFE10BDD2
:106A300024030010403501400DF0ADBA00C00740FE
:106A40003C050040FCED00E00C0100401056004009
:106A500020C5004024040010E40E00400004004063
:106A60003C1700400012001004E5014000E4014022
:106A70000000FA0510B504220249034804F00DFF96
:106A800010BD00005C3E00200090004010B502499F
:106A90000868804710BD00009431002010B5124CEA
:106AA00002202061606111A0A0611349E1614FF4EF
:106AB000007121620021A1626162E1620BA0A06409
:106AC0000E49E164102121650021A1656165E16540
:106AD0000BA1E01DFFF714FD0AA12046FFF710FDF2
:106AE0002020A07110BD0000D84500205465726DB3
:106AF000696E616C00000000504600205048002084
:106B000052545400534547474552000010B50146C2
:106B10000A69CB689A4204D88C68641EE41AA018EB
:106B200001E0D41A601E10BD2DE9F04704468946E5
:106B300017464FF0000AE56800BFD4F81080A8455A
:106B400003D9A8EB0500461E04E0A5EB0800401C95
:106B5000A1680E1AA068401BB04201D9304601E07E
:106B6000A068401B0646BE4201D2304600E03846CF
:106B700006466168481932464946FFF77BFCB24435
:106B8000B144BF1B3544A068A84200D10025E56090
:106B9000002FD2D15046BDE8F0872DE9F0470446DA
:106BA00089461546E668A068871BAF4208D9616828
:106BB00088192A464946FFF75DFC7019E06010E02D
:106BC000B8466168881942464946FFF753FCA5EB71
:106BD000070809EB070142466068FFF74BFCC4F861
:106BE0000C80BDE8F08702E008C8121F08C1002A27
:106BF000FAD170477047002001E001C1121F002A3E
:106C0000FBD170470146202908DA012088400A4A52
:106C1000104008B1012070470020FCE7402909DA44
:106C2000A1F12000012202FA00F008B10120F2E7F0
:106C30000020F0E70120EEE7FC06FFBD00BFEFF308
:106C40001081084672B6704730B502465068831C02
:106C5000002125E001EB4110134C14F81000E8B9B5
:106C600001EB4114104D05EB440001240470002495
:106C700044705468E47C80F83D401C68C0F836409D
:106C80009C8844879C7980F83C404FF6FF74C48709
:106C9000064C2478641C054D2C7030BD481CC1B2D4
:106CA0000A29D7DB00BFF8E7AC3200205C2A0020BD
:106CB000014601F0030008B9012070470020FCE7FD
:106CC000024650680068401E084008B9012070471D
:106CD0000020FCE710B50346D868884206D888181B
:106CE000401E1C69A04201D8012010BD0020FCE715
:106CF0002DE9F04704460D462F4695F84080B4F83C
:106D00001C9000260BE007EB46124946A06900F0F4
:106D100097FB10B10120BDE8F087701CC6B2464554
:106D2000F1DB0020F7E7F0B505460B4600215C6873
:106D30000EE0665C481C275CAF4206D1881C2044EC
:106D40005060701E10800020F0BD701C014400BF18
:106D500018888842EDD80520F6E72DE9F05F064651
:106D60000C4604F1420A94F84C504A2010F8049062
:106D70004FF00008B6F81CB0002710E00AEB8702BD
:106D80005946B06900F0B1FB28B108F1010000F0EC
:106D9000FF0815B905E005B103E0781CC7B24F45FF
:106DA000ECDB00BF0DB1C84503D02DB9B8F1000F21
:106DB00002DD0120BDE8F09F0020FBE710B504468E
:106DC000022001F01BFE10BD10B572B600BF07F027
:106DD00089F800BF00BF06F08BFD0028FBD100BF83
:106DE00000BF1E491E4A891AC908012242EA014011
:106DF0001CA106F081FF00BF1D48006800F00100E3
:106E000000B100BE00BF1549154A891AC9080222FF
:106E100042EA014017A106F06FFF00BF00BF00BFAC
:106E200000BF00BFBFF34F8F00BF00BF00BF1048BF
:106E3000E438006800F4E06012490843001D0C4982
:106E4000E439086000BF00BF00BFBFF34F8F00BF31
:106E500000BF00BF00BF00BFFDE70000C03103005E
:106E600040310300466174616C206572726F72007C
:106E7000F0ED00E053797374656D2072657365748D
:106E8000000000000000FA053EB504460020009016
:106E90000190029002946A46002144F20100FFF73B
:106EA00093FF3EBD0146C86888600020704770B5FA
:106EB00004460D46204603F0AFFB28B12946204684
:106EC00003F09EFB002070BD0520FCE7034609B9D6
:106ED0000E20704712B1501E104008B10920F8E78B
:106EE0001960501E988000209860D86000BFF0E7BD
:106EF00070B504460D46204603F08EFBA1888842FB
:106F000005D82946204603F09AFB002070BD0420D6
:106F1000FCE7000010B5024802F0A8FD10BD00001B
:106F2000A031002030B503460C460AB9072030BD19
:106F300019684FF0FF358D60CD604A61012C01D199
:106F4000012000E0002008610020F0E738B5144877
:106F5000006800900823A82212491348006804F032
:106F600020FF04460CB1204638BD104A694610483F
:106F700002F082FD04460CB12046F5E701210C48E1
:106F800002F020FE01230B4A1946094802F040FD99
:106F9000074802F028FE0120074908702046E3E771
:106FA000F02303008C3E0020E0230300D9090300F6
:106FB000A0310020FFFF7F00AC3100202DE9F84315
:106FC00006460D469046344600200090684600F084
:106FD0005DF94FF0FF33D4E90210594058400143A6
:106FE00008D104F097FA401941F10001C4E9020107
:106FF000012700E000279DF8000000F04DF917B9C7
:107000000020BDE8F883C4F81880206900B125612C
:10701000214600200AF0CCFBF3E7F8B504462546EC
:1070200000200090684600F031F94FF0FF33D5E9B9
:10703000021059405840014301D1002604E04FF0AE
:10704000FF31A960E96001269DF8000000F024F9F5
:107050000EB90020F8BD294601200AF0A9FBF9E786
:1070600010B5054A01210548FFF75CFF044A0021DD
:107070000448FFF757FF10BDFF1C03003822030030
:107080008D1E03003C22030010B50A4C20780A49EB
:10709000085C18B1201D08F059F807E0207806496F
:1070A000085C18B904F10C0007F0D8FE00BF0020FE
:1070B00010BD0000C43100208831002010B50A48FE
:1070C000FFF7F0FE044600BF204600B110BD00BF30
:1070D0000648FFF7E7FE044600BF204600B1F5E78B
:1070E00000BF0020F2E70000443F0020543F002092
:1070F0002DE9F04104460F48077821460E48FFF776
:10710000D6FE804697B100200A49087001220B493B
:107110000B4805F0FFFC054600BF2E4626B100BF18
:107120003046FFF7B1FE00BF00BF00BF4046BDE8DC
:10713000F0810000DE310020443F0020DD310020DE
:10714000C43100202DE9F04188B004460E461746B0
:1071500098462B4807601EB9072008B0BDE8F081AB
:10716000B08882B227483168FFF7B0FE054600BFFD
:10717000284600B1F1E700BFB08982B22248B16869
:10718000FFF7A4FE054600BF284600B1E5E700BFB3
:1071900020221E496846FFF76DF960690690207C41
:1071A00008B1012000E000208DF814008DF81C804B
:1071B000607C08B10E2000E000208DF81500E0682A
:1071C0000290A06803902068019060680090104AC7
:1071D0006946104805F058FC054600BF284600B136
:1071E000BBE700BF00200C4908702068401C28B194
:1071F00001220A49074805F08DFCAEE70020ACE704
:10720000D8310020443F0020543F0020F4230300E5
:10721000391A0300C4310020DE310020DD310020A6
:107220002DE9F041054629461448FFF761FE064660
:1072300006BB134C002720781249085C20B1201DA2
:1072400007F074FF074608E020780E49085C20B973
:1072500004F10C0007F0F0FD074600BF57B90A49DA
:107260000648FFF724FE28B901220749044805F023
:1072700073FC06463046BDE8F0810000543F002014
:10728000C431002088310020DC31002010B50446D4
:10729000204609F0F5FE10BD70B5044625460E489F
:1072A0008068B0B1ADB9FFF7C9FC06460A4800686E
:1072B0000A490860084840684FF0E021C1F804011D
:1072C0000020054988601EB900BF62B600BF00BF3C
:1072D00000BF00BF70BD0000643F002000E100E07F
:1072E00070B500224FF4804107480068FFF766FE42
:1072F000044600BF254625B100BF2846FFF7C4FD60
:1073000000BF00BF70BD00000422030070B5054639
:107310000C462068401C28B1206806F0ABF92068B4
:1073200006F05CF96068401C18B10021606806F046
:107330003BF92868A169C0F8241500BF617D227D52
:10734000286841EA0203C0F86C3500BFD4E9001296
:10735000286807F05BFA207D012814D1A068401C42
:1073600018B10021A06806F01FF9E068401C28B1A0
:10737000E06806F07FF9E06806F030F9D4E9022110
:10738000286807F02CFA70BD70B505460C462068D9
:10739000401C28B1206806F078F9206806F02AF928
:1073A0006068401C18B10021606806F00AF928687E
:1073B000A169C0F8241500BF617D227D286841EADB
:1073C0000203C0F86C3500BFD4E90012286807F04A
:1073D00055FA207D012814D1A068401C18B1002165
:1073E000A06806F0EEF8E068401C28B1E06806F0FE
:1073F0004CF9E06806F0FEF8D4E90221286807F0AD
:107400001EFA70BD002114E00C48D0F810240123AE
:1074100008E000BFD0680079884201D1002303E072
:10742000D0680268002AF4D100BF0BB1084670474B
:10743000491C0A29E8DB4FF0FF30F8E7B84100208B
:107440002DE9F843064688461546002000900DB900
:10745000BDE8F88309236A464146304600F017F834
:107460000446BDF800003718BDF8000068B164B1EB
:107470002846FFF723F8A04207D12246394628467E
:10748000FFF731F808B90120E2E70020E0E7F0B5A6
:1074900004460D461E4604B10AB90020F0BD002185
:1074A00003E0605C401C084481B2481CA84206DA34
:1074B00010888842F5DC481C205CB042F1D1A9421A
:1074C00001DB0020EAE7881C87B2605C10B1605CD9
:1074D000401E00E0002083B213B1F818A84201DD7D
:1074E0000020DBE717801846D8E72DE9F04788B081
:1074F00004460E4617460020079010200690B2461C
:1075000002AA06A9384664DF814614B1B9F1000F1A
:1075100003D0002008B0BDE8F0879DF818000228CD
:1075200004D0042809D0102815D10DE003208DF8CF
:10753000040002208DF805000FE005208DF80400FE
:1075400004208DF8050008E007208DF804000620CF
:107550008DF8050001E00020DCE700BF002509E010
:1075600001A8435D07AA31462046FFF790FF8246F7
:10757000681CC5B2022D03DABDF81C000028EFD04C
:10758000BDF81C0008B90020C4E7BDF81C0004EBDE
:10759000000800250DE008EB05009DF8182002A961
:1075A000FEF7A1FF08B90120B4E79DF818002844B0
:1075B00085B25545EFDB0020ACE7000010B504466E
:1075C00000BF0CB90E2010BD00BF00BF06480078F8
:1075D000012801D00820F6E700BF044801682046D2
:1075E00009F06EF8EFE700007C31002070310020D8
:1075F0000146002200BF09B90E20704700BF00BF3E
:10760000086808B90E20F8E700BF00BF486808B94D
:107610000E20F2E700BF0020064B18600120064B49
:107620001870064B08681860054B486818601046CB
:10763000E3E70000783100207C3100207031002029
:107640007431002070B504460D4600BF04B970BD0A
:1076500000BF00BF05B9FAE700BF00BF14480078BB
:10766000012800D0F3E700BF2E462088112815D04E
:10767000302804D0322807D0332814D109E0211D46
:10768000304608F0EBFA0FE0211D304607F0CEFD42
:107690000AE0211D304608F04BF805E0211D304678
:1076A00008F0EAF800E000BF00BF00BFCFE700002D
:1076B0007C31002070B504460D4600BF0CB90E2089
:1076C00070BD00BF00BF0B480078012801D0082022
:1076D000F6E700BF0848006808B90820F0E794F80A
:1076E000C80208B11120EBE72946204602F002F952
:1076F000E6E700007C310020783100202DE9F041E0
:1077000007460C46207820B101283BD0022851D1F1
:107710003DE02A492A4A891AC908032242EA01405F
:1077200028A106F0E9FA618804F10E02384600F05B
:1077300071F8054600BF2E4626B100BF3046FFF760
:10774000A3FB00BF00BF384600F052F9054600BF5A
:107750002E4626B100BF3046FFF796FB00BF00BFA4
:107760001649174A891AC908032242EA01401AA198
:1077700006F0C2FA2248006820F00100401C2049AF
:10778000086017E0A189A06800F048F912E00B49F1
:107790000B4A891AC908032242EA014019A106F0DE
:1077A000ABFA09F0BFFB1648006820F0010014494D
:1077B000086000BF00BFBDE8F0810000C0310300D9
:1077C00040310300446973636F7665727920636F9B
:1077D0006D706C6574652E00436F6E6E65637465C5
:1077E0006420746F206465766963652077697468C6
:1077F0002044465520536572766963652E0000006B
:10780000B42A0020446973636F6E6E6563746564A7
:107810002E00000070B504460E46154600BF0CB998
:107820000E2070BD00BF66802DB16988E180288878
:10783000A080A98821813146606904F08DFCF0E7C1
:1078400070B586B004460D461B4B0FCB01AE0FC67C
:1078500000BF14B90E2006B070BD00BF00BF0DB947
:107860000E20F8E700BF00BFA86808B90E20F2E7B5
:1078700000BF214601A862DF064600BF304600B1C6
:10788000E9E700BF00BF01208DF816004FF65960F0
:10789000ADF8140000BF4FF6FF7060802868E0600C
:1078A000686820610020A08000212181A8686061B3
:1078B00005A8FFF783FECEE73023030070B586B03E
:1078C00005460E46344604B10DB906B070BD608859
:1078D0004FF6FF71884203D06088A988884200D0A3
:1078E000F3E72888112806D0392816D129462046E2
:1078F00008F02EF912E0A888618888420CD1E0686F
:1079000050B102208DF804004FF6FF70608001A98D
:107910002046E268904700BF00E000BF00BF00BF04
:10792000D3E70000F0B585B007460C461421684641
:10793000FEF7B9FD04F10E062078002849D1A08891
:107940004FF65961884244D1A079012841D10025E0
:1079500030E005EBC50036F81000012802D00228FF
:1079600017D10EE005EBC50006EB40000089ADF82D
:107970000E0005EBC50006EB40004189ADF8101084
:1079800016E005EBC50006EB40000189ADF81210CA
:107990000EE005EBC50136F811200F490F4BC91A4F
:1079A000C908032343EA01400DA106F0AFF900BF67
:1079B00000BF6D1C207AA842CBD8F86848B10020DF
:1079C0008DF800006088ADF8020069463846FA6814
:1079D000904705B0F0BD000068310300403103005E
:1079E0004E6F7420666F756E64202564200D0A004A
:1079F00010B5044600BF0CB90E2010BD00BF608852
:107A00004FF6FF71884201D0E08808B90820F4E7FA
:107A10000121204601F058FBEFE7000070B5044655
:107A20000E46FA49FA4A891AC908042242EA014074
:107A3000F8A106F061F9F549F54A891AC908042246
:107A400042EA01403246214606F0E0F820786028FC
:107A50000AD0EE49EE4A891AC908012242EA0140D9
:107A6000F1A106F049F970BD6078072872D2DFE80D
:107A700000F07104898A3B71F200A078012802D0DD
:107A8000032820D10FE0F0480078012803D102201C
:107A9000EE49087006E0EC480078022802D1072081
:107AA000EA4908701EE0E8480078012803D1002068
:107AB000E649087006E0E4480078022802D1052073
:107AC000E24908700EE0A278D049D14BC91AC90822
:107AD000012343EA0140DEA106F018F9FF20DB494B
:107AE000087000BF00BF6CE2A07801283BD1D648E7
:107AF0000078012803D10520D449087041E0D2481C
:107B0000007802282BD1DD480068401CDB49086062
:107B1000BE49BF4A891AC908042242EA0140D8492D
:107B20000B68D6490A68D7A106F0FCF8D44800686B
:107B300018B90020C549087043E2D0480068D04910
:107B40000968884207D10120D6490870FE20BF4944
:107B5000087016E02AE20620BC49087011E0FF20F8
:107B6000BA4908700DE0A278A849A94BC91AC908FA
:107B7000012343EA0140B6A106F0C8F8FF20B3494B
:107B800008701EE21DE2A078012862D1C648D4F830
:107B900003104160D4F80710016102465168AA4AF7
:107BA0001278012A02D1C14A126801E0C04A126863
:107BB0001046002201F060FC0546BB480169A9425D
:107BC00016D1A148007801280AD1BA48007818B126
:107BD00004209E4908703BE002209C49087037E071
:107BE00099480078022833D10920984908702FE07D
:107BF00095480078012803D100209449087006E0D8
:107C000091480078022802D10520904908707F49E8
:107C10007F4A891AC908032242EA0140A6A106F058
:107C20006BF87A497A4A891AC908032242EA014064
:107C30002A46A5A106F06AF89B490A697349744B64
:107C4000C91AC908032343EA01409FA106F05EF860
:107C500000BFB6E1FFE7A07801287DD1924854F833
:107C6000031F016061684160A168E41E0161012099
:107C70009A4908707448007801283BD100208D494A
:107C800008708948406896490968884205D1864845
:107C9000006993490969884225D0834800224168D8
:107CA0008248006801F0E8FB05467F48406848B11B
:107CB0007D4840688A490968884203D87A48006943
:107CC000A84208D0002078494860864908800120F1
:107CD0005E49087006E07448808882490880022066
:107CE0005A4908702BE10120724908700420574955
:107CF000087024E15448007802287DD16A4A11684E
:107D0000794A106801F05AFE5D4908600020654913
:107D100008706548406874490968884205D162481E
:107D2000006971490969884267D05F48002241684B
:107D30005F48006801F0A0FB05465B48406848B119
:107D40005948406868490968884203D8564800691C
:107D5000A8421CD0002000E016E1484908605248C3
:107D600000686149C860002088604F4948605D49EB
:107D700008800620354908702449254A891AC9080F
:107D8000032242EA014059A105F0B6FFC5E046488A
:107D9000808854490880444800685349C8600846B0
:107DA000C0685049098888420ED24F48C0684D4982
:107DB0000988B1FBF0F14C48C0684A4A128801FBBF
:107DC00010204949886006E04748C068454909884D
:107DD000401A454988603448406833490968B0FB17
:107DE000F1F0264908600846006870B13E48806896
:107DF00058B90820154901E09EE08FE008701F483F
:107E00000068401E1D4908607DE079E0C031030034
:107E100040310300526563656976696E6720646668
:107E20007520646174612E00424C45204446552003
:107E30004F5020434F4445204E4F542052455350FD
:107E40004F4E534500000000642A0020392A0020CC
:107E5000424C4520444655206F7020636F64652076
:107E6000637265617465206F626A65637420726510
:107E700073756C743A202564000000004C2A0020C1
:107E8000502A002044617461206F626A6563742027
:107E90002825642F256429206578656375746564D9
:107EA00000000000482A0020703200203C2A0020F8
:107EB000442A0020402A0020435243333220697371
:107EC000204241442020000063726333325F6361CB
:107ED0006C63203D2030782578000000382A00208F
:107EE00084320020662A00209832002043726561A7
:107EF0007465206E6577206F626A656374000000A8
:107F00000720314908703149314A891AC9080322CA
:107F100042EA01402FA105F0EFFE10E009202A49B6
:107F200008702A492A4A891AC908032242EA0140EC
:107F30002FA105F0E1FE02E0FF202349087032493D
:107F40000A682249224BC91AC908032343EA01409F
:107F50002EA105F0DBFE2C494A681C491C4BC91AAE
:107F6000C908032343EA01402DA105F0CFFE2649AD
:107F70000A691649164BC91AC908032343EA014086
:107F80002BA105F0C3FE10E0A2781049104BC91ACE
:107F9000C908012343EA014029A105F0B7FE0020EA
:107FA00032490870FF20084908700AE00749084A6A
:107FB000891AC908022242EA01402DA105F09CFE5F
:107FC00000BF00BF00BF4EE5392A0020C0310300CA
:107FD00040310300436F6E74696E75652074726181
:107FE0006E73666572206F626A65637400000000DC
:107FF0004F766572207472616E73666572206F626F
:108000006A65637400000000703200206D617820A2
:1080100073697A65203D202564200D0A0000000068
:108020006F6666736574203D202564200D0A00008C
:108030006372633332203D2030782578200D0A00AA
:10804000424C4520444655206F7020636F64652084
:1080500073656C656374206F626A65637420726512
:1080600073756C743A20256400000000382A0020E3
:10807000526563656976656420756E737570706F9F
:1080800072746564204F5020636F646500000000C7
:1080900070B588B004460E46154600BF14B90E20D0
:1080A00008B070BD00BF20216846FEF7FCF9F42D32
:1080B0000BDD1C491C4A891AC908022242EA014008
:1080C0001AA105F019FE0720EAE760884FF6FF7154
:1080D00088420BD11349144A891AC908022242EA7C
:1080E000014017A105F008FE0820D9E701208DF80E
:1080F00000001A4802900394A188ADF81210ADF860
:1081000016500021ADF81410069601208DF81000CD
:1081100001218DF8111062886946606904F06AF8DF
:10812000BEE700006831030040310300436F6E7406
:10813000656E7420746F6F206C6F6E672E00000088
:10814000436F6E6E656374696F6E2068616E646CF8
:108150006520696E76616C69642E000061810200A1
:108160002DE9F04106460C46174625460849094ABE
:10817000891AC908042242EA01403A4606A105F0DC
:10818000C5FD286910B1304629698847BDE8F081EE
:1081900068310300403103004120474154542043DB
:1081A0006C69656E74206572726F722068617320ED
:1081B0006F63637572726564206F6E20636F6E6E9D
:1081C0005F68616E646C653A203058255800000085
:1081D00070B588B004460E46154600BF14B90E208F
:1081E00008B070BD00BF20216846FEF75CF9F42D91
:1081F0000BDD1C491C4A891AC908022242EA0140C7
:108200001AA105F079FD0720EAE760884FF6FF71B3
:1082100088420BD11349144A891AC908022242EA3A
:10822000014017A105F068FD0820D9E701208DF86D
:1082300000001A48029003942189ADF81210ADF89D
:1082400016500021ADF81410069601208DF810008C
:1082500001218DF8111062886946606903F0CAFF38
:10826000BEE700006831030040310300436F6E74C5
:10827000656E7420746F6F206C6F6E672E00000047
:10828000436F6E6E656374696F6E2068616E646CB7
:108290006520696E76616C69642E00006181020060
:1082A0002DE9F84F05468B462E1D06F1040A288855
:1082B0001F287DD008DC10280DD011287ED013286F
:1082C00078D01B2877D1A7E0212875D03B2874D01F
:1082D0005628F7D1FEE08D48006820F00100401CD0
:1082E0008A490860072000F009FC044600BF2746C1
:1082F00027B100BF3846FEF7C7FD00BF00BF50469C
:1083000003F0D0F88046B8F1FF0F42D0404603F0AA
:10831000A9F8074657B30120B870A888F88778787D
:1083200028B3A98800227A48FFF774FA044600BFF0
:10833000A146B9F1000F04D000BF4846FEF7A4FDE6
:1083400000BF00BF05207349087000BF002240F243
:10835000666171480068FEF731FE8146B9F1000F91
:1083600004D000BF4846FEF78FFD00BF10E0A9888B
:1083700000226A4800F0C2F9044600BFA146B9F1E4
:10838000000F04D000BF4846FEF77EFD00BF00BFCF
:1083900000BFA9886248FFF78DF9044600BF274651
:1083A00027B100BF3846FEF76FFD00BF00BFAAE04F
:1083B00050E003E03EE0A5E05AE073E05648006874
:1083C000FEF72BFE5148006820F001004F4908607D
:1083D000FF2054490870504603F064F80746FF2F09
:1083E0000AD0384603F03EF800218170384603F089
:1083F00039F84FF6FF71C187337932884A49DFF87F
:108400002CC1A1EB0C01C9084FF0030C4CEA014050
:1084100047A105F087FC76E03079022809D142496E
:10842000424A891AC908032242EA01404CA105F0D8
:1084300063FC68E0A88800231A4685217FDF044694
:1084400000BF274627B100BF3846FEF71DFD00BF1D
:1084500000BF58E03088311D75DF044600BF274655
:1084600027B100BF3846FEF70FFD00BF00BF4AE04E
:108470002D492E4A891AC908042242EA014040A126
:1084800005F03AFC00200090A88869468FDF04467A
:1084900000BF274627B100BF3846FEF7F5FC00BFF6
:1084A00000BF30E02049214A891AC908042242EA63
:1084B000014038A105F020FCA888132176DF04468E
:1084C00000BF274627B100BF3846FEF7DDFC00BFDE
:1084D00000BF18E01449154A891AC908042242EA63
:1084E000014032A105F008FCA888132176DF04467C
:1084F00000BF274627B100BF3846FEF7C5FC00BFC6
:1085000000BF00E000BF00BFBDE8F88FB42A002024
:1085100058360020B02A00200822030070360020C0
:10852000BC2A0020552A0020C0310300403103003E
:10853000446973636F6E6E65637465642E20636F48
:108540006E6E5F68616E646C653A20307825782CB9
:1085500020726561736F6E3A2030782578000000D4
:10856000436F6E6E656374696F6E205265717565D9
:1085700073742074696D6564206F75742E0000003B
:108580005048592075706461746520726571756515
:1085900073742E004741545420436C69656E7420F7
:1085A00054696D656F75742E000000004741545486
:1085B000205365727665722054696D656F75742EEF
:1085C000000000002DE9F04107460C46207820B15C
:1085D000012834D0022859D14BE02E492E4A891A5D
:1085E000C908032242EA01402CA105F085FB6188FD
:1085F00004F10E02384600F081F8054600BF2E4611
:1086000026B100BF3046FEF73FFC00BF00BF384632
:1086100000F0ACF9054600BF2E4626B100BF30463B
:10862000FEF732FC00BF00BF1A491B4A891AC9086D
:10863000032242EA01401EA105F05EFB26E08021F4
:108640002748FDF730FFA2892548A168FDF712FFF2
:10865000A0892349A1F880002248006820F0080082
:1086600008302049086020480088401C1E490880C6
:108670000CE00849084A891AC908032242EA014065
:108680001AA105F039FB08F04DFC00BF00BFBDE8A2
:10869000F0810000C031030040310300446973637E
:1086A0006F7665727920636F6D706C6574652E00EE
:1086B000436F6E6E656374656420746F20646576C5
:1086C0006963652077697468204E6F7264696320FE
:1086D0005541525420536572766963652E0000003F
:1086E00040350020B42A00205E2A002044697363CC
:1086F0006F6E6E65637465642E00000070B504468D
:108700000E46154600BF0CB90E2070BD00BF668036
:108710002DB16988E1802888A080A988218131460F
:10872000606903F019FDF0E770B586B004460D46A8
:108730001A4B0FCB01AE0FC600BF14B90E2006B006
:1087400070BD00BF00BF0DB90E20F8E700BF00BF2D
:10875000A86808B90E20F2E700BF214601A862DF31
:10876000064600BF304600B1E9E700BF20788DF82B
:1087700016000120ADF814004FF6FF7060802868E5
:10878000E060686820610020A08000212181A86845
:10879000606105A8FEF712FFD1E700002023030067
:1087A00070B586B005460E46344604B10DB906B024
:1087B00070BD60884FF6FF71884203D06088A98839
:1087C000884200D0F3E72888112806D0392816D12E
:1087D0002946204607F086F912E0A8886188884279
:1087E0000CD1E06850B102208DF804004FF6FF7004
:1087F000608001A92046E268904700BF00E000BF0A
:1088000000BF00BFD3E770B586B005460C46142103
:1088100001A8FDF748FE04F10E06207800283AD1A1
:10882000A088012837D1A0792978884233D1002047
:1088300022E000EBC00136F81110022902D0032912
:1088400017D107E000EBC00106EB41010A89ADF842
:1088500016200FE000EBC00106EB41010989ADF8DD
:10886000121000EBC00106EB41014A89ADF814205B
:1088700000E000BF00BF401C217A8142D9D8E868DF
:1088800048B16088ADF8060000208DF8040001A909
:108890002846EA68904706B070BD000070B588B001
:1088A00004460E46154600BF14B90E2008B070BD30
:1088B00000BF20216846FDF7F6FDF42D0BDD1C49B5
:1088C0001C4A891AC908022242EA01401AA105F08D
:1088D00013FA0720EAE760884FF6FF7188420BD150
:1088E0001349144A891AC908022242EA014017A111
:1088F00005F002FA0820D9E701208DF800001A4897
:10890000029003942189ADF81210ADF816500021A1
:10891000ADF81410069602208DF8100001218DF894
:10892000111062886946606903F064FCBEE70000CC
:108930006031030040310300436F6E74656E742034
:10894000746F6F206C6F6E672E000000436F6E6E49
:10895000656374696F6E2068616E646C6520696E12
:1089600076616C69642E0000BDB1020010B504464A
:1089700000BF0CB90E2010BD00BF60884FF6FF711C
:10898000884201D0E08808B90820F4E70121204698
:1089900000F06AFBEFE738B505F0B0FD044600BF14
:1089A000254625B100BF2846FEF76EFA00BF00BF7E
:1089B000002000906946012005F0C4FC044600BF79
:1089C000254625B100BF2846FEF75EFA00BF00BF6E
:1089D000684605F015FD044600BF254625B100BFD9
:1089E0002846FEF751FA00BF00BF38BD10B5044657
:1089F00004F0010008B100F045F810BD10B50246C2
:108A00000949885C00BF4FF0A0442146D1F80435E5
:108A1000012484409C43C1F80845012484401C4043
:108A2000C1F80C4500BF10BD6822030010B5044614
:108A30000249085D012104F033FE10BD68220300E5
:108A400010B504460249085D002104F029FE10BD5E
:108A50006822030010B50146094B585C00BF4FF077
:108A6000A044234600BFD3F80445C44004F00104E9
:108A70000CB1012000E00020024682F0010010BD90
:108A8000682203002DE9F041002004461AE0104955
:108A9000085D01210B4600221546164600BF4FF027
:108AA000A04C674641EA430C4CEA820C4CEA052C88
:108AB0004CEA064807F5E06C4CF8208000BF00BF88
:108AC000601C0446002CE2D000F004F8BDE8F08100
:108AD0006822030010B5002403E02046FFF7A6FF3C
:108AE000641C002CF9D010BD10B5002403E0204612
:108AF000FFF7A6FF641C002CF9D010BD70B504462A
:108B000000250548007800F0010018B1204600F06B
:108B10002BF80546284670BD2431002070B5044668
:108B20000E4600250B48046004F0010080B10120CE
:108B3000FFF75CFF2DB9084A00210848FEF7F2F95B
:108B400005462DB9064A01210648FEF7EBF9054610
:108B5000284670BD2431002031BA02006C22030087
:108B6000BD6D0200702203002DE9F0470446002687
:108B70000025DA48007820B10020D849087002F0BA
:108B800043FF182C7ED2DFE804F00C16174A7EB2A1
:108B9000F6F4F3F2F1F0EFEEEDECEBEAE9E8E7E6FC
:108BA000E5E402F031FFCE480068FEF736FA0646EB
:108BB000CC4804708DE100BF0020FFF74BFF58B197
:108BC0000020FFF733FF022C02D14FF4E16001E0F7
:108BD0004FF47A60054609E00020FFF731FF022CD0
:108BE00001D1C82001E04FF4C8700546BD480470AB
:108BF0004FF40040A5FB00104FF47A73CF1840F1FA
:108C000000015A0000233846FDF7EEFB81460022A2
:108C10004946B3480068FEF7D1F9064659E10020FD
:108C2000FFF718FF58B10020FFF700FF032C02D117
:108C30004FF4487001E04FF47A60054609E00020E7
:108C4000FFF7FEFE032C01D1C82001E04FF4C870ED
:108C50000546A44804704FF40040A5FB00104FF4F3
:108C60007A728F1840F10001520000233846FDF758
:108C7000BBFB81460022494699480068FEF79EF9F1
:108C8000064626E124E10020FFF7E4FE58B100206B
:108C9000FFF7CCFE042C02D14FF47A6001E04FF4D0
:108CA0007A6005460AE00020FFF7CAFE042C02D1D4
:108CB0004FF4C87001E04FF4C8700546894804704D
:108CC0004FF40040A5FB00104FF47A73CF1840F129
:108CD00000015A0000233846FDF786FB814600223A
:108CE00049467F480068FEF769F90646F1E0002032
:108CF000FFF7B0FE50B10020FFF798FE052C01D120
:108D0000C82001E04FF47A60054609E00020FFF733
:108D100097FE052C01D1C82001E04FF4C87005462C
:108D2000704804704FF40040A5FB00204FF47A73A4
:108D3000D71840F100015A0000233846FDF754FBD4
:108D400081460022494666480068FEF737F9064624
:108D5000BFE0B8E0B6E0AAE0A1E098E092E05FE012
:108D60005DE05BE059E057E051E042E033E024E0B1
:108D700015E00EE0FFE70020FFF740FE59480470C1
:108D8000002240F2666156480068FEF717F9064671
:108D90009FE00020FFF754FE5248047099E0012044
:108DA0004E490870FFF72AFE002240F266614C48E7
:108DB0000068FEF703F906468BE00120474908707A
:108DC000FFF71CFE00224FF4005145480068FEF7F3
:108DD000F5F806467DE0012040490870FFF70EFED9
:108DE000002240F266613E480068FEF7E7F806465A
:108DF0006FE0012039490870FFF700FE00224FF4B0
:108E0000005137480068FEF7D9F8064661E0FFF7E1
:108E10006BFE344804705CE000BF00BF00BF00BFC1
:108E200031480068FEF7F9F80646C4F1110515B39C
:108E30000EBB012D18D9A8B2C82148434FF40041F8
:108E400080FB01104FF47A728F1840F1000152003C
:108E500000233846FDF7C8FA8146002249462248D9
:108E60000068FEF7ABF806460220FFF7E9FD012097
:108E70001E49087005E00220FFF7D8FD00201B49BD
:108E8000087026E002F0C0FD1648047021E002F0F0
:108E9000BBFD0020FFF7D4FD1248047019E002F07A
:108EA000B3FD0120FFF7CCFD0E48047011E002F085
:108EB000ABFD0020FFF7C4FD0120FFF7C1FD09480D
:108EC000047006E000BFFFF70FFE0648047000E0E4
:108ED00000BF00BF3046BDE8F08700002131002010
:108EE0006C22030020310020702203002831002072
:108EF0002DE9FC4704460D461646A71C4FF0010815
:108F00000020019001A8FEF7C1F9304840682860B0
:108F10002E4840682D498968411A2D480068401C38
:108F2000A0EB010915E001212A4802F09BFF02F0A5
:108F3000BBFD82465146274802F094FF2348406813
:108F400022498968411A22480068401CA0EB0109A7
:108F500000BF4F45E7D8B8F1000F30D00021009195
:108F600076B1009921F00301491C0091009921F08C
:108F70000401091D0091009964F3891100910DE02D
:108F8000009921F00301891C0091009921F004014E
:108F9000091D0091009964F39F5100910B494968A4
:108FA0000B4A12681140094A0C3202EB8100009909
:108FB00001600649496839440C3A516000BF9DF888
:108FC0000400FEF769F94046BDE8FC87B84100207F
:108FD00010320020D445002070B504460D460A2DFD
:108FE00003D10D212046FFF7F7FFA168481CA060C0
:108FF00020684554D4E90110884202D3204603F08A
:10900000E2FD70BD0448806803494968884201D187
:10901000012070470020FCE7B841002070B5002116
:109020000120FFF77BFD044600BF254625B100BFA8
:109030002846FDF729FF00BF00BF70BD10B50246EE
:109040001078084B1870012007E0135C054C247859
:109050006340044C2370431CD8B28842F5DB0148BE
:1090600010BD00000A31002070B58AB004460D46DC
:109070002E46202102A8FDF716FAF0B28DF8040062
:10908000300A8DF8050001208DF808000D48049085
:109090000594E188ADF81A100221ADF81E100021E8
:1090A000ADF81C1001A9089101208DF818000121CC
:1090B0008DF81910628802A9606903F09BF80AB064
:1090C00070BD0000BDB1020070B58AB004460D4607
:1090D0002E46202102A8FDF7E6F9F0B28DF8040033
:1090E000300A8DF8050001208DF808000D48049025
:1090F0000594E188ADF81A100221ADF81E10002188
:10910000ADF81C1001A9089101208DF8180001216B
:109110008DF81910628802A9606903F06BF80AB033
:1091200070BD0000618102002DE9F04786B0054660
:10913000686800F102094FF0000A287A00F0010087
:10914000E0B16868806905906868808BADF81000B0
:1091500002AA04A90920FDF7E6FD064666B102AAA7
:1091600004A90820FDF7DFFD064616B106B0BDE8EC
:10917000F0874FF0010A01E04FF0010A4FF00008BC
:10918000287AC0F3800010B3686880690590686829
:10919000808BADF810006A4604A90720FDF7C3FDD7
:1091A0000646F6B16A4604A90520FDF7BCFD064651
:1091B000A6B16A4604A90320FDF7B5FD064656B1DF
:1091C0006A4604A90220FDF7AEFD064606B10AE094
:1091D0004FF0010807E04FF0010804E04FF00108EC
:1091E00001E04FF0010800275AE007EB47102E4935
:1091F00011F81000002851D007EB47112A4A02EB62
:10920000410101F1360007224946FDF76CF970BBB8
:1092100007EB4710244901EB40046868C07C84F8E0
:109220003D000020A4F84000BAF1000F09D0202131
:10923000E01CFDF738F9BDF80820E01C0399FDF7A4
:1092400019F9B8F1000F24D0BDF80000102820DC77
:10925000BDF8002004F123000199FDF70BF9BDF8DA
:109260000000102804D101988089A08607E014E04E
:10927000BDF80000022802D101980088A086A08EC7
:109280004FF65961884202D10120607001E0002050
:1092900060704FF6FF70E08768E700BF781CC7B2C8
:1092A0000A2FA2DB00BF61E7AC3200200146024872
:1092B00050F8210070470000D43D002001460148CD
:1092C00040567047043E002070B58AB004460E46F2
:1092D000202101A8FDF7E7F80020099094F8C602C4
:1092E00000EB8001C1EB801004EB400594F8C5024F
:1092F000B8B194F8C522521ED1B294F8C62202EB3E
:109300008203C3EB821204EB420501EBC10305F1BA
:109310000A0202EB43000289521C92B2ADF82420EB
:1093200002E0E888ADF824002889ADF82600032083
:109330008DF804000998059004940548039032467E
:1093400001A90448006802F055FF0AB070BD000092
:10935000CD9802007431002010B5002002F082F890
:1093600004464FF42571FDF79EF80020014908706E
:1093700010BD00005C2A002070B505460DB9094CEF
:1093800001E0084C083409E0204602F023FB0646C1
:1093900006B904E028467168884700BFF4E700BFBB
:1093A00070BD0000C83D002010B504462CB9012056
:1093B000064948700020FFF7DFFF012C04D101208F
:1093C00002498870FFF7D8FF10BD0000C03D0020A3
:1093D0002DE9F047024613468C46D3E90245DCE905
:1093E0000267B6EB040877EB050002D30120BDE865
:1093F000F0870020FBE70246002007E0536833F8BF
:1094000010308B4200D17047431C98B213888342BE
:10941000F4DC00BFF7E710B502460B4600210DE073
:10942000506830F811004FF6FF74A04204D1506824
:1094300020F81130002010BD481C81B210888842ED
:10944000EEDC0420F7E70EB500220292D0F83730A8
:109450000093B0F83B20ADF8042090F83D208DF843
:10946000062042788DF80720009A0A60019A4A6027
:10947000029A8A600EBD0000F0B503460C4612B990
:109480004FF0FF3001E01068C0430146002012E0B9
:109490001D5C694008250BE001F0010616B14FF094
:1094A000FF3600E00026064F3E4086EA51016D1E61
:1094B000002DF1D1401CA042EAD3C843F0BD00000A
:1094C0002083B8ED2DE9FF4105460C4629492A4A7B
:1094D000891AC908042242EA01402B46224627A1E4
:1094E00004F020FC002002900390ADF80840ADF895
:1094F0000A40009001906A4602A9284690DF06467D
:10950000002E32D0304605F029F9074619491A4A8B
:10951000891AC908012242EA01403B462A462349EA
:1095200004F000FCBDF8000010B9BDF8020068B1FD
:10953000BDF80230BDF800200E490F4FC91BC90805
:10954000012747EA01401AA104F0ECFBBDF8040032
:1095500058B1BDF804200749074BC91AC9080123AF
:1095600043EA0140224904F0D1FB304604B0BDE893
:10957000F081000048310300403103005570646100
:1095800074696E672064617461206C656E677468CD
:1095900020746F202575206F6E20636F6E6E65637B
:1095A00074696F6E20307825782E000078290300CA
:1095B00054686520726571756573746564205458CC
:1095C0002F5258207061636B6574206C656E6774F0
:1095D0006820697320746F6F206C6F6E67206279EA
:1095E0002025752F2575206F63746574732E000018
:1095F000C429030010B5044621460448FFF703F9C7
:1096000021460348FEF78EF910BD00007036002099
:10961000583600207CB5002000900190084800904A
:10962000084801906846FDF7E3FF044600BF254661
:1096300025B100BF2846FDF727FC00BF00BF7CBD59
:10964000F5950200A43000202DE9F04F89B00446C2
:109650000F4691464FF0000B20216846FCF723FF90
:1096600094F8C60200EB8001C1EB801004EB4005CA
:1096700094F8C50200EBC00105F10A0000EB410AB5
:1096800094F8C502401C2979884207D108AB002212
:109690005146204602F05EF9834627E094F8C56201
:1096A0001FE02879401EB04202D14FF0000806E0CA
:1096B000701C00EBC00105F10A0000EB410808AB8B
:1096C00042465146204602F045F910B14FF0010BD9
:1096D0000AE0C24694F8C502401C84F8C502701C1A
:1096E000C6B22879B042DCDC00BF00BFBBF1000F7E
:1096F00005D101203870002009B0BDE8F08F0020AE
:10970000387004208DF800000898049003940448F1
:1097100002904A4669460348006802F06BFDEBE799
:10972000CD980200743100203EB50C4800900C48E2
:1097300001900C48029001200B49087069460A48C4
:10974000FEF77EF8044600BF254625B100BF284637
:10975000FDF79AFB00BF00BF3EBD0000FD76020092
:109760006D970200A43000205836002010B5044642
:1097700000BF2046FDF788FB00BF10BD08490978EF
:1097800039B90849096821F010011031054A116002
:1097900004E003490978491E014A1170704700002E
:1097A000B02A0020B42A002030B59FB004460D46F0
:1097B0007C216846FCF777FEADF8025003208DF857
:1097C000000001940448006818B16846024909681D
:1097D00088471FB030BD0000703100202DE9F041F6
:1097E00004460D46164694F8C60200EB8001C1EB14
:1097F000801004EB4008404606F042FF0746E7B3FE
:10980000D4F8CC02062838D204F53470D4F8CC123F
:1098100000EBC110468004F53471D4F8CC2201EB82
:10982000C211081D76224146FCF724FE45B10021F5
:1098300004F53470D4F8CC2200EBC210017007E0BC
:10984000022104F53470D4F8CC2200EBC210017070
:1098500004F53470D4F8CC1200EBC110C767D4F80B
:10986000CC02401CC4F8CC020549D4F8CC020968EB
:10987000884202D1204606F0FFFABDE8F0810000E0
:10988000783100202DE9F041A0B004460D4616467F
:1098900094F8C60200EB8001C1EB801004EB400895
:1098A000404606F0EDFE074657B17C22064901A866
:1098B000FCF7E0FDADF80660029501A8B84700BFCF
:1098C00020B0BDE8F0810000742203002DE9F041D2
:1098D00005460C4616462746002087F8C802324641
:1098E00029463846FFF7CEFF31463846FFF75CFF82
:1098F000BDE8F081F0B589B004460E464FF4BA6178
:109900002046FCF7D0FD202101A8FCF7CCFD314614
:109910002448006802F020FC054600BF284608B134
:1099200009B0F0BD00BFA4F8CA620020C4F8CC02A0
:1099300084F8C70284F8C60284F8C50294F8C60207
:1099400000EB8001C1EB801004EB400794F8C602E5
:10995000154901EB8000006838603A881349144BC0
:10996000C91AC908042343EA01403346114904F0E7
:10997000D9F902208DF804000120ADF814003968EF
:10998000CDF8161004940C480390324601A90548FE
:10999000006802F02FFC054615B9012084F8C802C2
:1099A0002846BDE774310020A83D00204031030067
:1099B00040310300E8280300CD9802000246501E03
:1099C000B0FBF1F0401C704710B50021034802F0D5
:1099D0006AFA044684F3100010BD0000D44500204C
:1099E00070B505460C464FF4803000FA04F1284665
:1099F00000F040FB70BD70B505460C464FF4A070FA
:109A000000EB840086B23146284600F04DFB70BD65
:109A10002DE9F04704460D4616461F464FF48030A8
:109A200000FA05F84FF4A07000EB85001FFA80F9EA
:109A300026F07F464146206804F06FFC41462068CE
:109A400004F065FC4946206804F05AFC3246294679
:109A5000206804F04CFC4146206804F05BFC1FB118
:109A60004146206804F05CFCBDE8F08710B5044670
:109A7000206804F041FC10BD2DE9F04704460D4676
:109A800017466079324941F820706079314901EB1D
:109A9000C000007968B108262F49304A891AC908E0
:109AA000022242EA01402EA104F026F93046BDE828
:109AB000F08729882068C0F8081500BF94F90420B1
:109AC000AB7810461946002808DB4FEA417C4FEA84
:109AD0001C68DFF8B0C00CF800800BE04FEA417C56
:109AE0004FEA1C69DFF8A0C000F00F08A8F10408D5
:109AF0000CF8089000BF00BF94F904100846002835
:109B00000DDB00BF00BF00F01F0301229A40430994
:109B10009B0003F1E023C3F8002100BF00BF00BF9A
:109B200000BF012061790B4A02EBC1010871607925
:109B3000114641F8304000260749084A891AC908E9
:109B4000032242EA014011A104F0D6F83046AEE704
:109B5000E0310020E4310020A8310300403103004F
:109B600052544320696E7374616E636520616C7238
:109B70006561647920696E697469616C697A65648C
:109B80002E00000000E400E018ED00E05254433ADB
:109B900020696E697469616C697A65642E000000E1
:109BA00010B5014691F90400002807DB00F01F03FF
:109BB00001229A40024B440943F8242000BF10BD03
:109BC00000E200E070B505460C4622460221284618
:109BD00000F05CFA70BD10B504464FF48271204667
:109BE00000F062FA10BD10B504460021206804F0B0
:109BF0009AFB10BD2DE9F84F044688461546994654
:109C00004FF4803000FA08FA4FF4A07000EB88009F
:109C10001FFA80FB25F07F455146204600F02AFAC6
:109C2000206804F069FB06464146206804F059FBB1
:109C3000009032464146206804F059FB594620689E
:109C400004F05EFB3146009807F0D2FC012806D1F3
:109C5000102004F057FE5946206804F051FB20689C
:109C600004F04AFB06463146284607F0C1FC074689
:109C70005146206804F04EFB012F0FD16A1C41466B
:109C8000206804F034FB102004F03CFE206804F04F
:109C900033FBB04225D00D20BDE8F88F2A4641465F
:109CA000206804F024FB206804F026FB0646681EAA
:109CB000314607F09DFC07466FF07F40A0EB09009E
:109CC000B84201D20D20E7E75FB96A1C414620681F
:109CD00004F00DFB206804F00FFBB04201D00D2012
:109CE000DAE701225146204600F0D0F90020D3E700
:109CF0002DE9F84305460E46174698466946104832
:109D0000006802F062F8044614B90420BDE8F88344
:109D10001C212046FCF7C7FB012020712560C4F8F8
:109D2000088008480068B6FBF0F0E06067616946AB
:109D30000348006802F073F806F000FC0020E5E735
:109D4000802503007425030010B50446D4E90321DF
:109D5000501828DF10BD000013480078062820D1D5
:109D60001148001D007800F00F00D0B90E480830EF
:109D7000007800F0F000302801D1012070470A4837
:109D80000830007800F0F000402801D10120F5E70C
:109D900005480830007800F0F000502801D101207B
:109DA000ECE70020EAE70000E00F00F0134800783D
:109DB000062820D11148001D007800F00F00D0B90E
:109DC0000E480830007800F0F000302801D1012062
:109DD00070470A480830007800F0F000402801D1B0
:109DE0000120F5E705480830007800F0F000502821
:109DF00001D10120ECE70020EAE70000E00F00F0CD
:109E000013480078062820D11148001D007800F082
:109E10000F00D0B90E480830007800F0F00030286C
:109E200001D1012070470A480830007800F0F000A6
:109E3000402801D10120F5E705480830007800F0FE
:109E4000F000502801D10120ECE70020EAE70000F3
:109E5000E00F00F00A48007806280ED10848001DDF
:109E6000007800F00F0040B905480830007800F095
:109E7000F000302801D1012070470020FCE70000ED
:109E8000E00F00F006480068062806D10448001DCF
:109E90000068062801D1012070470020FCE700007F
:109EA0003001001013480078062820D11148001D09
:109EB000007800F00F00D0B90E480830007800F0AC
:109EC000F000302801D1012070470A48083000789E
:109ED00000F0F000402801D10120F5E705480830E6
:109EE000007800F0F000502801D10120ECE70020BC
:109EF000EAE70000E00F00F00A48007806280ED1DB
:109F00000848001D007800F00F0040B905480830EF
:109F1000007800F0F000302801D1012070470020C7
:109F2000FCE70000E00F00F013480078062820D17D
:109F30001148001D007800F00F00D0B90E4808301D
:109F4000007800F0F000302801D1012070470A4865
:109F50000830007800F0F000402801D10120F5E73A
:109F600005480830007800F0F000502801D10120A9
:109F7000ECE70020EAE70000E00F00F00A48007874
:109F800006280ED10848001D007800F00F0040B9E7
:109F900005480830007800F0F000302801D1012099
:109FA00070470020FCE70000E00F00F00A4800784E
:109FB00006280ED10848001D007800F00F0040B9B7
:109FC00005480830007800F0F000302801D1012069
:109FD00070470020FCE70000E00F00F00A4800781E
:109FE00006280ED10848001D007800F00F0040B987
:109FF00005480830007800F0F000502801D1012019
:10A0000070470020FCE70000E00F00F030B587B09B
:10A0100004460D462068806808B907B030BD182195
:10A0200001A8FCF740FA0295A0680690207910B1CB
:10A03000012815D109E001208DF804002069039062
:10A04000E0680490606905900BE002208DF8040040
:10A050000749E0680968484303906069059000E09B
:10A0600000BF00BF2068816801A8884700BFD4E70F
:10A070007425030070B504460D462946206804F097
:10A0800046F92946206804F048F970BD70B50446C9
:10A090000E4615463146206804F03CF91DB13146A4
:10A0A000206804F03DF970BD70B505460C4628687F
:10A0B000015929B12146286804F022F9012070BD18
:10A0C0000020FCE770B5A0B0FCF7D6FA0578802137
:10A0D0006846FCF7E8F9FCF7CBFA00788DF8000049
:10A0E0008DF80250C22D24D004DCC02D5CD0C12DCF
:10A0F0007CD104E0C32D3CD0CB2DF9D148E06A20BF
:10A100008DF80100002411E0204601F0ABF906466D
:10A11000307848B104EB4400032202EB80006A4629
:10A1200081183046FFF78FF9601CC4B20A2CEBDBB4
:10A1300001E1FCF7A5FA864902680A6080888880F8
:10A1400008460168CDF803108088ADF80700814803
:10A15000007800F001008DF8090008208DF801005A
:10A160007B4801F0BBF90446FF2C01D07A4804700B
:10A17000E1E001208DF80100FF2077490870754863
:10A18000006820F4807000F5807072490860D2E0A9
:10A1900001208DF801006F48006820F4806000F510
:10A1A00080606C490860C6E06CA000784A2809D13C
:10A1B0006AA04078612805D168A080786E2801D116
:10A1C00001206BE065A00078462801D1022065E0FF
:10A1D00062A000784D280AD160A04078612806D19D
:10A1E0005EA08078722802D1032057E0A2E05BA035
:10A1F0000078412805D159A04078702801D1042069
:10A200004CE056A000784D2809D154A04078612830
:10A2100005D152A08078792801D105203EE04FA0D9
:10A2200000784A2809D14DA04078752805D14BA067
:10A2300080786E2801D1062030E048A000784A28B6
:10A2400009D146A04078752805D144A080786C28B3
:10A2500001D1072022E041A00078412805D13FA08C
:10A260004078752801D1082018E03CA000785328D8
:10A2700001D1092012E039A000784F2801D1002037
:10A280000CE036A000784E2801D1012006E033A072
:10A290000078442801D1022000E000202FA1097895
:10A2A0004F2907D02DA109784E2903D02BA1097879
:10A2B000442901D1012100E000210A2303FB010010
:10A2C000030526A04179303924A00079302803DB2A
:10A2D00022A00079303800E000200A2404FB00109E
:10A2E00043EA00631DA0807A30381CA1497A3039D6
:10A2F00014FB010043EA00301BA1497830391AA34E
:10A300001B78303B14FB031417A10979303916A3CD
:10A31000DB78303B0A2616FB031114FB01F140EAFF
:10A32000010204210DF10300FCF7B6F805208DF8B9
:10A33000010000E000BF00BF7F216846FEF77EFEFF
:10A3400000788DF87F006846FCF728FA20B070BDD1
:10A35000562A0020B42A0020552A00204E6F76206D
:10A36000313220323032310031333A35363A3535F8
:10A370000000000070B5ACB0FCF77EF905788021D4
:10A380000CA8FCF790F8FCF773F900788DF8300012
:10A390008DF83250DF2D7AD006DCD12D0BD0D22DA6
:10A3A00026D0DC2D74D176E0F12D72D0F22D71D053
:10A3B000FC2DF7D1F7E014218C48FCF774F8FCF77A
:10A3C0005FF98A49006808600020086100F00CFE0F
:10A3D0008749086085490C31002000F051FD834910
:10A3E0000C31022000F04CFD01208DF83100F0E02E
:10A3F000FCF750F90078401EC4B2FCF741F906465C
:10A400007A4989687A4A1268881822463146FCF7E8
:10A4100031F876498968764A12688818734A10328A
:10A420002146FFF729F871490861084680682044F1
:10A4300088600846C0682044C86008460068C9684B
:10A44000884204D969488068B0F5807F13D3674893
:10A45000C06866498968B0FBF1F0401E0B900BABF9
:10A46000624A083262480168002000F049FE00207C
:10A470005E49886000BF5D48C068CDF833005B4826
:10A480000069CDF8370009208DF83100A1E096E091
:10A490009EE00CE023E05548C068CDF833005348F7
:10A4A0000069CDF8370009208DF8310091E01421C2
:10A4B0005048FBF7F8FFFCF7E3F84E4900680860E6
:10A4C0000020086100F090FD4B49086049490C31BB
:10A4D000012000F0D5FC01208DF8310079E0FCF777
:10A4E000D9F80078401EC4B2FCF7CAF806464149C4
:10A4F0008968414A1268881822463146FBF7BAFF3C
:10A500003C4989683C4A126888183A4A1032214608
:10A51000FEF7B2FF3749086108468068204488602A
:10A520000846C0682044C86008460068C968884278
:10A5300004D930488068B0F5807F28D32D48C068A2
:10A54000001B000A0B900BAB2A4A08322A4801680C
:10A55000012000F0D5FD00202649886008460068EB
:10A56000C968884212D82820009014221F4901A8E7
:10A57000FBF780FF14221F4906A8FBF77BFF00238F
:10A580006A4601A9022000F0BBFD00BF00BF1948C8
:10A59000C068CDF8330017480069CDF837000920AE
:10A5A0008DF8310015E01348C068CDF8330011482C
:10A5B0000069CDF8370009208DF8310009E00F4817
:10A5C000007800F0010008B106F0A4FE2CB070BDC8
:10A5D00000BF00BF7F210CA8FEF730FD00788DF88A
:10A5E000AF000CA8FCF7DAF800BFEFE784320020D8
:10A5F0003C2A002098320020442A0020B42A00205F
:10A6000070B504460D462A460021204600F00EF89B
:10A61000A068401CA06070BD01468A68C868801AA6
:10A62000704701468A68C868801A704710B5836809
:10A630000B44848823400468E35C137010BDC26837
:10A6400083881A4003689954C268521CC2607047DC
:10A6500070B505466868861C002415E004EB4410BC
:10A660000B4911F8100068B104EB4411084A02EBE1
:10A67000410101F1360007223146FBF734FF08B9EA
:10A68000012070BD601CC4B20A2CE7DB0020F8E793
:10A69000AC3200202DE9F041A0B00024FE48008833
:10A6A000C0F3C02038B1FC48006820F40060FA49CB
:10A6B000086006F099FDF8480078C0F3800040B1CA
:10A6C000F548006820F00400F3490860FF20F349D2
:10A6D0000870F1480078C0F3401038B1EE480068C7
:10A6E00020F02000EC49086007F02AFBEA480078D7
:10A6F000C0F3801008B107F0CBF8E7480078C0F34A
:10A70000C00030B3E448006820F00800E249086067
:10A7100080216846FBF7C7FE7F2201216846FBF7D0
:10A72000BBFEDF4890F880008DF80100DC48B0F8EF
:10A73000802001460DF10200FBF79CFE7F21684658
:10A74000FEF77CFC00788DF87F006846FCF726F861
:10A7500000BFD1480088C0F3402038B1CE4800681F
:10A7600020F40070CC490860CE484CDFCA4800781D
:10A77000C0F3C010002844D0C748006820F0800013
:10A78000C549086008460088C0F38020C0B3084669
:10A79000006820F4806008604FF47A7505B90EE017
:10A7A00000BF4FF47A7606B905E0BF4F4FEA86182E
:10A7B0004046B84700BF681E051EF2D100BFB12059
:10A7C000BA49086000BF00BF00BF00BF00BFBFF3B1
:10A7D0004F8F00BF00BF00BFB548006800F4E060C5
:10A7E000B4490843001DB249086000BF00BF00BF64
:10A7F000BFF34F8F00BF00BF00BF00BF00BFFDE72A
:10A80000FFE7A548007800F0010058BBA348007896
:10A81000FF2817D0A14800780A2813DA9F4800784B
:10A8200000F020FE054665B1287850B1A24890F8A6
:10A83000583000F1500200F15A0105F136008CDF6A
:10A84000044600BF94480078C0F30010002808D0E8
:10A850009148006820F010008F490860E52006F05C
:10A86000CDFDADE28D480078FF2822D100F004FE36
:10A870000546EDB12878D8B1E88F132176DF04467C
:10A88000082C08D000BF264626B100BF3046FCF792
:10A89000FBFA00BF00BF80480088C0F3002038B139
:10A8A0007D48006820F480707B490860FEF754FD05
:10A8B00086E279480078C0F300100028D1D07648AD
:10A8C000006820F010007449086000F0D5FD0646CD
:10A8D000707858B179497A4A891AC908042242EA3B
:10A8E000014078490A7878A103F010FA00BF707827
:10A8F00000287DD07348007806287AD006DC062828
:10A9000030D2DFE800F012304A909EAFA02871D01C
:10A9100006DC07286FD008286ED0092822D1BBE1B9
:10A92000FE286AD0FF28F9D1EBE1002069490870C0
:10A93000012069490870002068498860C86000F0FB
:10A9400089FB674908600620664908700120487045
:10A950000220654908800846028862496348FDF77D
:10A9600097FB0446E6E10420614908705B480068F3
:10A9700060494968451A01205A49087048700846DC
:10A98000C0F80250062058490880084602885549F8
:10A990005648FDF77DFB0446CCE150480068564917
:10A9A0000988401A142805D24C4800685249098881
:10A9B000401A00E014200546494800684E4A1288B3
:10A9C00081182A464748FBF755FD4B480088284424
:10A9D00049490880414800680988884205D8012013
:10A9E000464908700320374908703C48006805E074
:10A9F000A1E189E061E1CDE040E173E1404909680E
:10AA000001443D48008864225043B0FBF1F03149D5
:10AA1000087035490D800846028832493348FDF7F1
:10AA2000D7FB044686E103202E49087001202E49F9
:10AA30000880084602882B492C48FDF729FB04466C
:10AA400078E101202A490870042026490870012075
:10AA5000254908800846028822492448FDF718FB4A
:10AA6000044667E102201C490870002024498860E0
:10AA7000C86000F0B5FA234908600620194908703B
:10AA8000022048701849088008460288154917486E
:10AA9000FDF7FEFA04464DE1B42A0020552A0020B5
:10AAA00040350020B82A0020312203001C05004058
:10AAB0000CED00E00000FA059C360020C0310300D8
:10AAC00040310300392A0020537465703A20256410
:10AAD00000000000542A0020642A00208432002054
:10AAE0003C2A002044360020682A002058360020E6
:10AAF000B02A002070320020662A0020402A002060
:10AB000098320020442A00200420AF490870AF4842
:10AB10000068AF490988401AAE490968884205D2E1
:10AB2000AA480068AA490988401A01E0A9480068B3
:10AB30000546A6480068A6490988401AA54909683B
:10AB4000884209D2A449A54A891AC908032242EABF
:10AB50000140A3A103F0D0F89F49A04A891AC9086F
:10AB6000032242EA01402A46A2A103F0CFF80120C5
:10AB7000A8490870022048700846C0F80250062014
:10AB8000A549088008460288A249A448FDF780FA32
:10AB90000446CFE08D4800688D490988401A142882
:10ABA00005D28A4800688A490988401A00E01420C2
:10ABB00005468648C06885498968401AA84204D27B
:10ABC0008248C06881498968451A95480068804A6A
:10ABD000128881182A468F48FBF74CFC7C48008875
:10ABE00028447B49088079488068284477498860F0
:10ABF0000B687949794A891AC908042242EA014056
:10AC000073490A8887A103F08DF87049CB688A6878
:10AC10007149724FC91BC908042747EA014086A140
:10AC200003F080F86948006869490988884205D9B5
:10AC3000664880686549C968884205D30020634931
:10AC40008860082081490870814800685F49096868
:10AC500001447F4800685E4A1288104464225043D1
:10AC6000B0FBF1F07B4908706B490D800846028803
:10AC700068496A48FDF7ACFA04465BE00320654981
:10AC800008700120644908800846028861496348C9
:10AC9000FDF7FEF904464DE001204B490870042001
:10ACA0005C49087001205C490880084602885949BF
:10ACB0005A48FDF7EDF904463CE00220554908707A
:10ACC0000A201F900846BDF87C10A0F80110032050
:10ACD00051490880084602884E495048FDF7D8F986
:10ACE000044627E05C480068FCF797F9642059495E
:10ACF000087000205549087014213648FBF7D3FB33
:10AD000018E055480068FCF788F9FF20534908709F
:10AD1000FBF7AEFC05467F220121FBF7BDFBFBF7ED
:10AD2000ABFC054670220121FBF7B6FBE52006F0DF
:10AD300065FB00BF07E04A48B0F88020014649485B
:10AD4000FDF7ACFD0446132C3FF4D1AD7078D0B1C3
:10AD50003E480078FE282DDA1F49204A891AC90882
:10AD6000042242EA014040A102F0C6FF1A491B4AF0
:10AD7000891AC908042242EA014027490A8825495C
:10AD800002F044FF16E01449144A891AC908042243
:10AD900042EA014034A102F0AFFF3149B1F880200E
:10ADA0000D490E4BC91AC908042343EA01402C4936
:10ADB00002F02CFF31484088401C3049488000BFD9
:10ADC00020B0BDE8F0810000B02A002098320020B9
:10ADD000662A002070320020C03103004031030099
:10ADE0004C617374206F626A65637420637265617D
:10ADF0007465640043726561746520636F6D6D6195
:10AE00006E642C2073697A65203D202564200D0A2C
:10AE10000000000044360020682A00205836002038
:10AE2000442A002046756C6C3A2030782578202F13
:10AE30002030782578000000506167653A2030782E
:10AE40002578202F2030782578000000392A00202E
:10AE500084320020542A002008220300552A0020B2
:10AE6000C235002070360020526561647920746F0D
:10AE70002073656E64206461746100005E2A0020A6
:10AE800070B505460C461CB900201B49086003E05C
:10AE9000206800031849086000F0A6F806464FF441
:10AEA0008071FBF700FB25B1012D0CD0022D1ED1C6
:10AEB00015E01148006800F58021002301220F48A9
:10AEC00001F088FF13E00D480069A0F58220020B15
:10AED00000234FF48221094801F07CFF07E00023A2
:10AEE00001224FF47C31054801F074FF00BF00BF20
:10AEF000024807F00FF970BD143100205C320020C9
:10AF000070B50446606850B11749184A891AC908D3
:10AF1000032242EA0140164902F0EEFE70BD20789D
:10AF2000012802D002281AD10CE00F490F4D491B0D
:10AF3000C908032545EA01400EA1A368226902F071
:10AF4000F1FE0DE00849094D491BC908032545EAF2
:10AF5000014015A1A368226902F0E4FE00E000BFF1
:10AF600000BF00BFDAE70000C0310300403103003A
:10AF7000602703002D2D3E204576656E7420726596
:10AF80006365697665643A2077726F74652025641D
:10AF900020627974657320617420616464726573E2
:10AFA0007320307825782E002D2D3E204576656E55
:10AFB000742072656365697665643A2065726173B1
:10AFC000656420256420706167652066726F6D205E
:10AFD0006164647265737320307825782E000000F8
:10AFE0004FF482210846704700487047A83B002074
:10AFF00070B50E490E4A891AC908032242EA014077
:10B000000CA102F079FE114E00223146104801F0E9
:10B0100099FF044600BF254625B100BF2846FBF72F
:10B0200033FF00BF00BF00F099FE70BDC0310300C8
:10B03000403103006673746F7261676520696E69E1
:10B040007420737461727465642E0000842503009B
:10B050005C3200204FF48021084670472DE9F04112
:10B0600005460E4617461C464FF000081CB9002046
:10B070002049086002E01F49206808601E493868BE
:10B08000086008460068B0F5807F02D94FF48070F0
:10B09000086025B1012D0ED0022D22D117E01548F0
:10B0A000006800F58021144832460368134801F017
:10B0B000C9FF804615E00F48006800F582210E4860
:10B0C000324603680D4801F0BDFF804609E00A489A
:10B0D00032464FF47C310368084801F0B3FF8046E4
:10B0E00000BF00BFB8F1000F02D00020BDE8F08122
:10B0F0000120FBE714310020183100205C320020D1
:10B100002DE9F8430646884617461C464FF00009CD
:10B110001CB900202549086003E02068000223498B
:10B12000086023493868086008464146026821489B
:10B13000FBF7A0F91E48006805F043FC054626B160
:10B14000012E0FD0022E25D119E0002000901748C3
:10B15000006800F580212B46164A174802F0B2F825
:10B16000814617E0002000901048006800F5822119
:10B170002B46104A104802F0A5F881460AE000204C
:10B180002B460C4A4FF47C3100900B4802F09AF8A1
:10B19000814600BF00BF084806F0BCFFB9F1000FB0
:10B1A00002D00020BDE8F8830120FBE71431002025
:10B1B00018310020A83C00205C3200202DE9F0412D
:10B1C00006460C46174625460849094A891AC90801
:10B1D000042242EA01403A4606A102F097FD28699E
:10B1E00010B1304629698847BDE8F081603103001D
:10B1F0004031030041204741545420436C69656E3F
:10B2000074206572726F7220686173206F6363755A
:10B2100072726564206F6E20636F6E6E5F68616E20
:10B22000646C653A203058255800000070B504461B
:10B230000D46288840F67721884219D11349144ACF
:10B24000891AC908032242EA014012A102F054FD02
:10B25000A888C01E86B20D490D4A891AC908032262
:10B2600042EA01403346324611A102F05BFD00BFC5
:10B27000238862880549064E891BC908042646EAC8
:10B28000014015A102F04EFD70BD0000C031030069
:10B2900040310300415454204D5455206578636873
:10B2A000616E676520636F6D706C657465642E00F8
:10B2B000426C65204E5553206D6178206461746145
:10B2C000206C656E6774682073657420746F20301D
:10B2D0007825582825642900415454204D54552080
:10B2E00065786368616E676520636F6D706C657407
:10B2F00065642E2063656E7472616C2030782578E9
:10B30000207065726970686572616C20307825788C
:10B310000000000070B50E490E4800F06CFE0446B7
:10B3200000BF254625B100BF2846FBF7ADFD00BF95
:10B3300000BFF721074800F04FFE044600BF254636
:10B3400025B100BF2846FBF79FFD00BF00BF70BDC1
:10B350002DB202008836002070B506460C4604F176
:10B360001005E888102801DD092070BDE988304605
:10B3700002F036FE6060606808B90420F5E7EA88EC
:10B38000A9680023606802F0B6FE0649064BC91A98
:10B39000C908042343EA014004A1626802F0B6FC34
:10B3A0000020E2E75031030040310300506F696E26
:10B3B00074657220746F20616C6C6F636174656476
:10B3C000206D656D6F727920626C6F636B3A20251A
:10B3D000702E000070B506460C4604F11005A868F2
:10B3E0000088102801DD092070BDA8680088811C34
:10B3F000304602F0F5FD6060606808B90420F3E7AC
:10B40000A96800230222606802F075FEAB681A8802
:10B41000E9680223606802F06EFE0649064BC91A0D
:10B42000C908042343EA014004A1626802F06EFCEB
:10B430000020D9E75031030040310300506F696E9E
:10B4400074657220746F20616C6C6F6361746564E5
:10B45000206D656D6F727920626C6F636B3A202589
:10B46000702E0000014601EB4110024A02EB400041
:10B4700070470000AC32002000210DE001EB4110CC
:10B48000074A02EB4000807820B101EB411002EB4B
:10B4900040007047481CC1B20A29EFDB0020F8E7E2
:10B4A000AC32002070B50546002413E02046FFF7BB
:10B4B000D9FF007860B12046FFF7D4FF00F13706CE
:10B4C0000622691C3046FBF70EF808B9204670BD0D
:10B4D000601CC4B20A2CE9DBFF20F8E770B5054612
:10B4E000002413E02046FFF7BDFF007860B120463E
:10B4F000FFF7B8FF00F13706062229463046FAF773
:10B50000F2FF08B9204670BD601CC4B20A2CE9DB0A
:10B51000FF20F8E770B50B48FEF7A8FA0A4B0CCBF2
:10B52000841843F10005094903C9201A75EB01008D
:10B5300004D24FF08073E41845F1000520462946F7
:10B5400070BD0000A0310020B0310020B8310020D3
:10B5500010B502F0CDF908B9FFF79CF810BD000056
:10B5600070B504460D4609486060094800F073FC58
:10B5700050B903F01DF8064908741C238C220549B4
:10B580000548006800F00DFC002070BD7425030024
:10B590000C400020703F0020802503002DE9FC5F57
:10B5A00083460E4691461F46DDE90C45002E01DA22
:10B5B000704200E0304682464FF0010803E09AFBFB
:10B5C000F9FA08F10108CA45F9DA474500D9B84641
:10B5D00034B1002E03DB05F00400042800D1641E02
:10B5E00005F0020000B167B105F0010048B944B1AF
:10B5F00004E0641E20215846FDF7EEFC0CB1A04586
:10B60000F7D3002E05DA76422D215846FDF7E4FCEB
:10B6100007E005F00400042803D12B215846FDF76C
:10B62000DBFC05F0020002280DD105F0010050B945
:10B630004FB944B104E0641E30215846FDF7CCFCFC
:10B640000CB1A045F7D33B464A4631465846CDE9B2
:10B65000004506F003FDBDE8FC9F000070B50546FF
:10B660001249286803F0C0F8286803F05BF9044623
:10B670002046002817DB00F01F02012191400C4AF0
:10B68000430942F8231000BF00BF00BFBFF34F8F34
:10B6900000BF00BF00BF00BF00BF00BFBFF36F8F80
:10B6A00000BF00BF00BF00BF00BF70BD840202002A
:10B6B00080E100E070B505461249286803F0C5F83E
:10B6C000286803F037F904462046002817DB00F00D
:10B6D0001F02012191400C4A430942F8231000BF88
:10B6E00000BF00BFBFF34F8F00BF00BF00BF00BF50
:10B6F00000BF00BFBFF36F8F00BF00BF00BF00BF20
:10B7000000BF70BD1003420080E100E02DE9F04170
:10B7100004460E464FF48E71206803F059F84FF43A
:10B72000A271206803F054F81A49206803F05FF80A
:10B73000206803F0F7F805463746284639460028C2
:10B7400004DB4A07130E144A135408E04A074FEA71
:10B75000126C124A00F00F031B1F02F803C000BF57
:10B7600000BF206803F0DEF80546284600280DDB00
:10B7700000BF00BF00F01F0201219140420992006A
:10B7800002F1E022C2F8001100BF00BF00BF00BFFD
:10B79000BDE8F0818000020000E400E018ED00E068
:10B7A0002DE9F04104460E464FF48871206803F0FD
:10B7B0003FF84FF49071206803F03AF84FF492711B
:10B7C000206803F035F84FF4A271206803F030F8D8
:10B7D0004FF4AC71206803F02BF81B49206803F08C
:10B7E00037F8206803F0A6F805463746284639465C
:10B7F000002804DB4A07130E144A135408E04A07D2
:10B800004FEA126C124A00F00F031B1F02F803C02C
:10B8100000BF00BF206803F08DF8054628460028C9
:10B820000DDB00BF00BF00F01F0201219140420963
:10B83000920002F1E022C2F8001100BF00BF00BF79
:10B8400000BFBDE8F08100001003420000E400E00A
:10B8500018ED00E030B5024600201378C3F38003F2
:10B86000D3B1137803F00303012B02D0022B10D1C4
:10B8700007E01388C3F383139B1C0C6823440B60FD
:10B8800008E00B680225146805EB945423440B6010
:10B8900000E000BF00BF012030BD2DE9F0470446A5
:10B8A0000E469046002722E0384602F065FF054626
:10B8B000384602F068FF81462046294642580AB1C0
:10B8C000012200E0002282B14846D4F8041301406E
:10B8D00009B1012100E0002139B12946204602F0DA
:10B8E00057FF2846D6E900219047781CC7B2474544
:10B8F000DADBBDE8F087014600220AE0486830F84C
:10B9000012004FF6FF73984201D001207047501C7F
:10B9100082B208889042F1DC0020F7E70146034834
:10B92000007A08B1012070470020FCE70C4000209D
:10B9300010B502460B8992F8C60200EB8004C4EBF6
:10B94000801002EB40000089834201DA012010BD23
:10B950000020FCE770B50446E2B90D8994F8C602F0
:10B9600000EB8006C6EB801004EB400000898542A6
:10B9700001D1002070BD0889401C188094F8C602CF
:10B9800000EB8005C5EB801004EB40000089588077
:10B990000120EFE70889401CD588A84201D100208A
:10B9A000E8E70889401C1880D088401E5880012094
:10B9B000E0E7014691F85A00C0F3C100012805D024
:10B9C00091F85A00C0F3C100032801D1012070474B
:10B9D0000020FCE70146086808B102680A60704769
:10B9E00010B5044622460121002001F029FE002165
:10B9F00005E054F8210008B1012010BD491C0029C0
:10BA0000F7D00020F9E7000010B50848007850B1E1
:10BA1000002405E0022C02D02046FDF707F8641C44
:10BA2000002CF7D001E0FDF755F810BD28310020BB
:10BA300010B504460448007800F0010018B103482E
:10BA40000078FDF791F810BD24310020203100204E
:10BA500010B502F01BFF20B902F03EFF00200149A3
:10BA6000887010BDC03D0020F72101801721418062
:10BA7000002101714171FB2181711B21C17170474E
:10BA800070B54FF48041002002F0ECF9044600BF8D
:10BA9000254625B100BF2846FBF7F6F900BF00BFD9
:10BAA00001F012FF70BD70472DE9FF4100272E48BD
:10BAB00000F0CAF92C48001F00F0C6F92B48806836
:10BAC00003902B4805680398284028490C3101EB66
:10BAD000800800BF03A94046FFF7BCFE30B10398C1
